:020000040800F2
:1000000000000220D9360008690C00086D0C0008B9
:10001000710C0008750C0008790C00080000000045
:10002000000000000000000000000000B1220008F5
:100030007D0C00080000000051230008810C00081E
:100040002937000829370008293700082937000810
:100050002937000829370008293700082937000800
:1000600029370008293700082937000829370008F0
:1000700029370008293700082937000829370008E0
:1000800029370008293700082937000829370008D0
:1000900029370008293700082937000829370008C0
:1000A00029370008890C000829370008293700087B
:1000B00029370008293700082937000829370008A0
:1000C0002937000829370008293700082937000890
:1000D0002937000829370008293700082937000880
:1000E0002937000829370008293700082937000870
:1000F0002937000829370008293700082937000860
:10010000293700082937000829370008293700084F
:10011000293700082937000829370008293700083F
:10012000293700082937000829370008293700082F
:10013000293700082937000829370008293700081F
:10014000293700082937000829370008293700080F
:1001500029370008293700082937000829370008FF
:1001600029370008293700082937000829370008EF
:100170002937000829370008293700080000000047
:080180002937000829370008A7
:10019000044B05481B1A062B02D9044B03B1184720
:1001A000704700BF0F0000200C000020000000007E
:1001B00005490648091A891001EBD171491002D08E
:1001C000034B03B1184770470C0000200C000020BF
:1001D0000000000010B5064C237843B9FFF7D8FFA4
:1001E000044B13B10448AFF300800123237010BD0A
:1001F0000C000020000000007837000808B5084B0C
:100200001BB108480849AFF300800848036813B9D8
:10021000BDE80840CCE7064B002BF9D09847F7E73C
:100220000000000078370008100000200C000020BB
:100230000000000053B94AB9002908BF00281CBFBC
:100240004FF0FF314FF0FF3000F03CB882B0EC4689
:100250002DE9005000F01EF8DDF804E002B00CBCFF
:10026000704700BF2DE9F041069C154606460F4633
:10027000984600F029F805FB01F300FB0838A5FBC0
:100280000023B21A434467EB0303C4E90023BDE82B
:10029000F08100BF2DE9F041069C904606460F46CE
:1002A0001D4600F05FF900FB05F5A0FB082308FBE5
:1002B0000155B21A2B4467EB0303C4E90023BDE8E0
:1002C000F08100BF704700BF00292DE9F043C0F264
:1002D000A6800026002BC0F29C80884694469E464D
:1002E000154604460F46002B3DD18A4259D9B2FA31
:1002F00082F33BB1C3F120029F4020FA02F29D40FD
:1003000017439C40290C220CB7FBF1FEA8B201FB5D
:100310001E7742EA074700FB0EF3BB420AD97F195A
:100320000EF1FF3280F00581BB4240F20281AEF156
:10033000020E2F44FF1AA4B2B7FBF1F301FB1377AF
:1003400044EA074700FB03F0B84208D97F1903F1DC
:10035000FF3280F0F080B84240F2ED80023B43EA89
:100360000E43002203E08B420FD900221346341CB7
:1003700018BF012460424FF0000565EB450158406D
:10038000514000196941BDE8F083B3FA83F2002AB5
:1003900040F086808B4202D3844500F2DB8001234B
:1003A000E5E712B90123B3FBF2F5B5FA85F00028B1
:1003B0003BD1781B4FEA154E1FFA85FC0122B0FB9A
:1003C000FEF8210C0EFB180741EA07470CFB08F367
:1003D000BB4207D97F1908F1FF3102D2BB4200F2BC
:1003E000BD808846FF1AA4B2B7FBFEF30EFB13775D
:1003F00044EA07470CFB03FCBC4507D97F1903F10E
:10040000FF3102D2BC4500F2A7800B4643EA084305
:10041000ADE752426FEA060663EB43035DE74042F5
:1004200061EB41014FF0FF3654E7C0F1200224FA9E
:1004300002F107FA00F385404FEA154ED740194301
:10044000B7FBFEF20B0C0EFB12771FFA85FC43EA9A
:1004500007430CFB02F79F4204FA00F407D95B192B
:1004600002F1FF3074D29F4272D9023A2B44DF1B53
:1004700089B2B7FBFEF80EFB187341EA03430CFB8D
:1004800008F79F4208D95B1908F1FF315CD29F42FF
:100490005AD9A8F102082B44D81B48EA02428EE739
:1004A000C2F120032CFA03F10EFA02FE20FA03F740
:1004B00041EA0E0E08FA02F028FA03F14FEA1E454F
:1004C0003843B1FBF5F8030C05FB18111FFA8EF742
:1004D00043EA014107FB08F38B420CFA02FC09D9FD
:1004E00011EB0E0108F1FF3930D28B422ED9A8F161
:1004F00002087144C91A80B2B1FBF5F305FB131170
:1005000040EA014107FB03F78F4208D911EB0E01C6
:1005100003F1FF3016D28F4214D9023B714443EAF3
:100520000843C91BA3FB0C89494509D305D0002208
:100530001DE79646FEE6134611E794404445F6D281
:10054000013BF4E70346EAE78846A5E7C846D1E75A
:1005500002468CE713460AE7023B57E7A8F1020878
:100560002F443FE72DE9F041002B44D18A42154644
:1005700004464FD9B2FA82F70E464FB1C7F12003B5
:10058000B94020FA03F602FA07F50E4300FA07F421
:100590004FEA154E230CB6FBFEF0AFB20EFB106116
:1005A00043EA014307FB00F1994209D95B1900F1C5
:1005B000FF3280F0EC80994240F2E98002382B440F
:1005C0005A1AA4B2B2FBFEF30EFB132244EA024213
:1005D00007FB03F7974208D9521903F1FF3180F066
:1005E000D880974240F2D580023B43EA0040002683
:1005F0003146BDE8F0818B4247D8B3FA83F6002E2E
:1006000048D18B4202D3824200F2CD800120314694
:10061000BDE8F08112B90125B5FBF2F5B5FA85F810
:10062000B8F1000F77D14A1B4FEA154EAFB2012641
:10063000B2FBFEF0230C0EFB102143EA014107FB45
:1006400000F38B4207D9491900F1FF3202D28B42E5
:1006500000F2BA801046C91AA4B2B1FBFEF30EFB39
:10066000131144EA014407FB03F7A74208D96419B0
:1006700003F1FF3280F08F80A74240F28C80023B72
:1006800043EA00403146BDE8F0810026304631465D
:10069000BDE8F081C6F1200422FA04F5B3402B43F3
:1006A00020FA04FC01FA06F721FA04F54FEA134E8A
:1006B0004CEA0707B5FBFEF8390C0EFB18551FFA7C
:1006C00083FC41EA05450CFB08F1A94202FA06F257
:1006D00004D9ED1808F1FF3467D3A0466D1ABFB2F4
:1006E000B5FBFEF40EFB145547EA05410CFB04FC78
:1006F0008C4504D9C91804F1FF355CD32C4644EA73
:100700000844CCEB0101A4FB0223994248D344D016
:10071000204600266CE7C8F1200401FA08F305FA28
:1007200008F520FA04F7E1404FEA154E1F43B1FBEC
:10073000FEF63A0C0EFB16111FFA85FC42EA014345
:100740000CFB06F29A4200FA08F407D95B1906F18D
:10075000FF3137D29A4235D9023E2B449B1ABFB2A1
:10076000B3FBFEF00EFB103347EA03430CFB00F132
:10077000994207D95B1900F1FF3221D299421FD962
:1007800002382B445A1A40EA0646674650E710469C
:1007900016E70B4629E7134672E7B0409042B7D2FE
:1007A000601E002624E7304622E7A94295D9A8F129
:1007B00002081D4492E78C45A0D9023C19449EE7EB
:1007C0001046DFE70E46C9E70238294443E700BF79
:1007D00070B588B000240094264B1A6B42F00102D9
:1007E0001A631A6B02F001020092009A01941A6BCC
:1007F00042F008021A631A6B02F008020192019A91
:1008000002941A6B42F002021A631B6B03F002039C
:100810000293029B184E30464FF47041224601F07D
:1008200007FB4FF470430393012504950594069448
:10083000304603A901F014FA4FF4407303930223E6
:1008400004930594032306930C4803A901F008FAC6
:1008500010260396049505940694094C204603A996
:1008600001F0FEF9204631462A4601F0E1FA08B0CF
:1008700070BD00BF00380240000C0240000402407E
:100880000000024008B5012002F022FAFBE700BF99
:1008900010B586B0194C204600F054FC204600F0FC
:1008A00081FC4FF4A0630093019300230293039310
:1008B00004230493042002F00BFA1048012100F0F5
:1008C00017FD0028F9D10D4869460D4A012300F0B3
:1008D00097FC30B90B484FF48051012201F0A8FA7F
:1008E000E8E7084C20464FF48051002201F0A0FABE
:1008F00020464FF4804101F0A1FADBE7B83F002029
:100900000C3F0020000C024070B58CB00025019512
:10091000264B1A6B42F004021A631A6B02F00402AF
:100920000192019A02955A6C42F480725A645B6C8F
:1009300003F480730293029B02230793032308931B
:1009400009951B4807A901F08BF9122029462A4670
:1009500001F08AFA122001F0B9FA164C164B236006
:100960006560A56025610126A66125626562E56274
:10097000A562E560E66126636561204602F0E2FC5F
:100980000B2303930496072305930695204603A99A
:1009900002F0DEFD40B109484FF4004101F04EFA8B
:1009A000642001F0F1FAF6E70CB070BD00380240A7
:1009B000000802404040002000200140000C02409E
:1009C00008B5FFF7A1FF094802F0E6FC642002F039
:1009D0007FF90648064902F05BFD0028F6D103487E
:1009E00002F0B2FD034B1860F0E700BF404000206A
:1009F00040420F000C3F002008B50268024B9A42AB
:100A000001D101F0AFFA08BD0000014008B503486C
:100A10004FF40041012201F00BFAF8E7000C02400C
:100A200008B50B480B4B03604FF461434360002350
:100A30008360C36003610C2242618361C36102F081
:100A4000E7FA20B1044840F25B21FFF7DFFF08BD61
:100A50001C3F0020004C0040F437000808B50E4849
:100A60000E4B03604FF48273436000238360C360C6
:100A7000036143614FF400728261C36103624362A8
:100A800083620A23C36202F0F5FA20B104484FF4EE
:100A90001271FFF7BBFF08BD5C3F00200030014032
:100AA000F437000808B50C480C4B03600C4B43604E
:100AB00000238360C3604FF480420261436183611D
:100AC000C361036202F018FB20B1064840F22F21F7
:100AD000FFF79CFF08BD00BFDC3D00200054004034
:100AE000A0860100F437000808B51048104B0360D9
:100AF00002234360002383604FF04072C2604FF4D2
:100B0000002202614FF4A002426103760122427684
:100B10008376C3760277427700F06AFA20B10548FF
:100B200040F21B21FFF772FF08BD00BFB83F002055
:100B300000640040F437000800B595B0002301932D
:100B4000244A116C41F080511164126C02F0805201
:100B50000192019A0293204A116841F48041116088
:100B6000126802F480420292029A02220892012242
:100B70000B9210220C920E9308A800F04DFD20B1AC
:100B800016484FF4F671FFF741FF0F23039300213E
:100B9000049105910691079103A800F06DFF20B123
:100BA0000E484FF4FD71FFF731FF01F015F80C4BC3
:100BB000A3FB0030800901F095F9042001F0A8F9A9
:100BC0004FF0FF300F21002201F04EF915B05DF813
:100BD00004FB00BF0038024000700040F4370008FA
:100BE000D34D621070B590B001F0A2F9FFF7A4FFE9
:100BF000FFF7EEFDFFF714FFFFF730FFFFF752FF9F
:100C0000FFF772FF144C0BAD26460FCE0FC53368AD
:100C10002B600BA8002102F041F8104B186006ADC4
:100C200004F114060FCE0FC533682B6006A800210F
:100C300002F034F80A4B186001AD28340FCC0FC510
:100C400023682B6001A8002102F028F8054B1860EA
:100C500002F01EF8FEE700BF90370008803D00203C
:100C6000A03E0020103F0020704700BFFEE700BFFD
:100C7000FEE700BFFEE700BFFEE700BF704700BF12
:100C800008B502F02DF808BD08B5024800F05CFB7D
:100C900008BD00BF9440002010B582B0002400942D
:100CA000214B5A6C42F480425A645A6C02F48042DE
:100CB0000092009A01941A6C42F080521A641B6CE4
:100CC00003F080530193019B032001F0BBF86FF008
:100CD0000B002146224601F0C7F86FF00A002146BA
:100CE000224601F0C1F86FF009002146224601F0CA
:100CF000BBF86FF004002146224601F0B5F86FF012
:100D000003002146224601F0AFF86FF001000F21E9
:100D1000224601F0A9F84FF0FF300F21224601F0E2
:100D2000A3F802B010BD00BF003802400268124BA9
:100D30009A421FD100B587B00021009103F5EA3334
:100D40001A6C42F000721A641B6C03F0007300937B
:100D5000009B4FF4407301930223029303910323FA
:100D6000049309230593054801A900F079FF07B012
:100D70005DF804FB704700BF0064004000040240BF
:100D80000268124B9A421FD100B587B0C02301936D
:100D90001223029301230393032304930423059353
:100DA0000B480DEB030100F05BFF00230093094BA0
:100DB0001A6C42F400121A641B6C03F400130093C3
:100DC000009B07B05DF804FB704700BF0054004073
:100DD00000040240003802402DE9F04188B0036869
:100DE0004A4A93424ED100240194494B1A6C42F472
:100DF00080421A641B6C03F480430193019B4FF4FF
:100E0000E0530393022604960594032306930523D7
:100E10000793404F384603A900F022FF4FF0100817
:100E2000CDF80C800125049505940694384603A955
:100E300000F016FF384641462A4600F0F9FF0396B7
:100E400004950594069407F58067384603A900F0D9
:100E500007FF384631462A4600F0EAFF4FF4207675
:100E6000039604950594069404F1804404F5023435
:100E7000204603A900F0F4FE204631462A4600F041
:100E8000D7FF40E0244A93423DD100240294204BF6
:100E90001A6C42F400421A641B6C03F40043029380
:100EA000029B4FF4604303930223049305940323AE
:100EB000069305230793194803A900F0D1FE0C26D9
:100EC00003960125049505940694124F38460DEBC0
:100ED000060100F0C5FE384631462A4600F0A8FF5C
:100EE0004FF4A076039604950594069404F180448B
:100EF00004F50234204603A900F0B2FE2046314634
:100F00002A4600F095FF08B0BDE8F08100380040A7
:100F10000038024000000240003C00400004024053
:100F20000268124B9A421FD100B587B0002300938C
:100F30000F4B1A6C42F400221A641B6C03F400235A
:100F40000093009B4FF4406301930223029301231B
:100F500003930323049308230593064801A900F093
:100F60007FFE07B05DF804FB704700BF004C0040F7
:100F7000003802400008024010B588B00146192030
:100F8000002200F071FF192000F0A0FF002401945E
:100F9000134B5A6C42F001025A645B6C03F001037C
:100FA0000193019B03A802A900F03CFE00F02AFE79
:100FB0000C4BA3FB00239B0C013B0B480B4A02602C
:100FC00040F2E732C26043600461846000F004FBD9
:100FD00018B9054800F0A4F900E0012008B010BDE0
:100FE0000038024083DE1B43944000200000014093
:100FF000002800F0A48038B5044690F8203013F0A3
:10100000FF0F01D1FFF792FE2268136823F002035D
:10101000136000F0B3FF05460DE000F0AFFF401B8A
:101020000A2808D9636A43F400336362052384F80D
:101030002030012038BD23685A6812F0020FECD12D
:101040001A6842F001021A6000F098FF05460DE0B0
:1010500000F094FF401B0A2808D9636A43F4003368
:101060006362052384F82030012038BD23685A6864
:1010700012F0010FECD0227E012A04D11A6842F04E
:1010800080021A6003E01A6822F080021A60637E10
:10109000012B05D12268136843F04003136004E07C
:1010A0002268136823F040031360A37E012B05D14F
:1010B0002268136843F02003136004E02268136879
:1010C00023F020031360E37E012B05D1226813680F
:1010D00023F01003136004E02268136843F0100348
:1010E0001360237F012B05D12268136843F00803A6
:1010F000136004E02268136823F008031360637F21
:10110000012B05D12268136843F00403136004E047
:101110002268136823F0040313602168A268E3685F
:101120001A4323691A4363691A436368013B1343F3
:10113000CB6100206062012384F8203038BD01209B
:10114000704700BF38B590F82030DBB2012B22D1B8
:101150000446022380F820300268136823F001035C
:10116000136000F00BFF05460DE000F007FF401B89
:101170000A2808D9636A43F400336362052384F8BC
:101180002030012038BD23685B6813F0010FECD1DB
:101190000020606238BD436A43F4002343620120AB
:1011A00038BD00BF82B00023019390F82030DBB23D
:1011B000012B04D090F82030DBB2022B17D102684B
:1011C000136823F002031360019B013301930B4A60
:1011D000934205D9436A43F40033436201200BE094
:1011E00003685B6813F0020FEED1002004E0436A4D
:1011F00043F480234362012002B0704740420F0055
:1012000070B490F82040E4B2012C04D090F8204053
:10121000E4B2022C65D10468A56815F0806F07D18F
:10122000A56815F0006F03D1A56815F0805F52D056
:10123000A468C4F301640125A5401D608B684BB907
:1012400005680E68CB6843EA465604F118031B0193
:10125000EE5009E006684D6843EAC503CD682B43AC
:1012600004F118052D01735103680D6904F1180686
:1012700003EB06135D600B7D012B06D1036803EBC6
:101280000613596841F4807159600168D5799379E2
:101290001B0443EA0563557943EA052315792B437B
:1012A00025012944C1F88C310168D67893781B0454
:1012B00043EA0663567843EA062312781343294427
:1012C000C1F88831026818342401135943F001032E
:1012D000135100200AE0436A43F4001343620120E3
:1012E00004E0436A43F480234362012070BC7047EA
:1012F00090F82030DBB2012B04D090F82030DBB224
:10130000022B07D103689B6889060B40994203D1E1
:10131000002070470020704701207047704700BFD1
:101320000268D36843F00103D3600268136843F096
:101330000103136000207047704700BF704700BF73
:10134000704700BF704700BF10B5044603681A69B4
:1013500012F0020F17D0DA6812F0020F13D06FF0FC
:1013600002021A610123037603689B6913F0030FDD
:1013700002D0FFF7E3FF04E0FFF7DEFF2046FFF7B0
:10138000DFFF0023237623681A6912F0040F19D0B7
:10139000DA6812F0040F15D06FF004021A6102230C
:1013A000237623689B6913F4407F03D02046FFF720
:1013B000C5FF05E02046FFF7BFFF2046FFF7C0FF4F
:1013C0000023237623681A6912F0080F19D0DA680F
:1013D00012F0080F15D06FF008021A61042323766B
:1013E0002368DB6913F0030F03D02046FFF7A6FF45
:1013F00005E02046FFF7A0FF2046FFF7A1FF0023EE
:10140000237623681A6912F0100F19D0DA6812F0E7
:10141000100F15D06FF010021A610823237623688D
:10142000DB6913F4407F03D02046FFF787FF05E018
:101430002046FFF781FF2046FFF782FF0023237637
:1014400023681A6912F0010F09D0DA6812F0010F4F
:1014500005D06FF001021A612046FFF7CDFA23682C
:101460001A6912F0800F09D0DA6812F0800F05D0E7
:101470006FF080021A61204600F0CCF823681A69E8
:1014800012F0400F09D0DA6812F0400F05D06FF06B
:1014900040021A612046FFF755FF23681A6912F0CF
:1014A000200F09D0DA6812F0200F05D06FF020026B
:1014B0001A61204600F0ACF810BD00BF0368454A31
:1014C000904214D0B0F1804F13D0A2F57C429042EC
:1014D00011D002F5806290420FD002F580629042F6
:1014E0000DD002F5784290420BD101220AE0012290
:1014F00008E0012206E0012204E0012202E00122CC
:1015000000E000221AB123F070034A681343314A05
:1015100090422CD0B0F1804F2BD0A2F57C4290426B
:1015200029D002F58062904227D002F58062904275
:1015300025D002F57842904223D002F570529042B5
:1015400021D002F5806290421FD002F58062904265
:101550001DD0A2F5983290421BD002F580629042D5
:1015600019D002F58062904217D1012216E00122C3
:1015700014E0012212E0012210E001220EE001221B
:101580000CE001220AE0012208E0012206E001222B
:1015900004E0012202E0012200E000221AB123F45B
:1015A0004073CA68134303608B68C3620B6883622D
:1015B000084B984205D003F58063984203D101237C
:1015C00002E0012300E000230BB10B690363012358
:1015D0004361704700000140C0B110B5044690F867
:1015E000393013F0FF0F04D1002380F83830FFF7B3
:1015F00095FE022384F83930214651F8040BFFF799
:101600005DFF012384F83930002010BD01207047B0
:10161000704700BF704700BF002800F0B58170B56B
:1016200082B00446036813F0010F5AD0A04B9B68A8
:1016300003F00C03042B0AD09D4B9B6803F00C03B2
:10164000082B0DD19A4B5B6813F4800F08D0984B90
:101650001B6813F4003F44D06368002B41D195E12F
:101660006368B3F5803F05D1914A136843F4803332
:10167000136015E0B3F5A02F09D18D4B1A6842F421
:1016800080221A601A6842F480321A6008E0884B9F
:101690001A6822F480321A601A6822F480221A60D2
:1016A00063687BB100F06AFC054605E000F066FC6B
:1016B000401B642800F26C817D4B1B6813F4003FD3
:1016C000F4D00EE000F05AFC054605E000F056FCB0
:1016D000401B642800F25E81754B1B6813F4003FC9
:1016E000F4D1236813F0020F50D0714B9B6813F0B4
:1016F0000C0F0AD06E4B9B6803F00C03082B16D11D
:101700006B4B5B6813F4800F11D1694B1B6813F0AE
:10171000020F03D0E368012B40F03E81644A136856
:1017200023F0F803216943EAC10313602EE0E36864
:10173000D3B101225F4B1A6000F020FC054605E0A2
:1017400000F01CFC401B022800F22881584B1B684B
:1017500013F0020FF4D0564A136823F0F8032169FE
:1017600043EAC103136011E00022524B1A6000F0FB
:1017700005FC054605E000F001FC401B022800F2D4
:101780000F814B4B1B6813F0020FF4D1236813F049
:10179000080F26D0636993B10122474B1A6000F00D
:1017A000EDFB054605E000F0E9FB401B022800F2D6
:1017B000F9803F4B5B6F13F0020FF4D011E0002271
:1017C0003D4B1A6000F0DAFB054605E000F0D6FB61
:1017D000401B022800F2E880354B5B6F13F0020FCC
:1017E000F4D1236813F0040F7CD0314B1B6C13F041
:1017F000805F0DD1002301932D4B1A6C42F0805273
:101800001A641B6C03F080530193019B012500E0D7
:1018100000252A4B1B6813F4807F13D1274A1368D5
:1018200043F48073136000F0A9FB064605E000F066
:10183000A5FB801B022800F2B980204B1B6813F423
:10184000807FF4D0A368012B05D1194A136F43F0B0
:101850000103136714E0052B09D1154B1A6F42F0F1
:1018600004021A671A6F42F001021A6708E0104B6F
:101870001A6F22F001021A671A6F22F004021A6727
:10188000A3688BB100F07AFB064607E000F076FB18
:10189000801B41F28833984200F28A80044B1B6F10
:1018A00013F0020FF2D017E000F068FB06460EE0DE
:1018B0000038024000004742800E4742007000405E
:1018C00000F05CFB801B41F28833984272D8404B99
:1018D0001B6F13F0020FF3D125B13D4A136C23F0B7
:1018E00080531364A369002B66D0394A926802F0D2
:1018F0000C02082A62D0022B33D10022354B1A6029
:1019000000F03CFB054604E000F038FB401B0228D9
:1019100056D82F4B1B6813F0007FF5D1E269236A7C
:101920001343626A43EA8213A26A5208013A43EA05
:101930000243E26A43EA0263254A53600122254BCF
:101940001A6000F01BFB044604E000F017FB001BCC
:10195000022837D81E4B1B6813F0007FF5D00020FB
:1019600033E000221B4B1A6000F008FB044604E041
:1019700000F004FB001B022826D8154B1B6813F04F
:10198000007FF5D1002020E00120704701201CE0FD
:1019900003201AE0032018E0012016E0032014E0E1
:1019A000032012E0032010E003200EE003200CE0EF
:1019B00003200AE0032008E0002006E0012004E004
:1019C000032002E0032000E0032002B070BD00BF4E
:1019D000003802406000474238B5244B9B6803F052
:1019E0000C03042B3FD0082B01D0214838BD1F4BDE
:1019F0005A6802F03F025B6813F4800F0AD01B4B59
:101A00005B68C3F388131B48A3FB00010023FEF7A8
:101A100011FC1FE0154B5B68C3F38813DC00002545
:101A2000690141EAD4616001041B61EB0505A9016C
:101A300041EA9461A001001B61EB0501C01841F16E
:101A400000018B0243EA905384022046194600238A
:101A5000FEF7F0FB054B5B68C3F3014301335B000A
:101A6000B0FBF3F038BD034838BD00BF003802407A
:101A70000024F40040787D01002800F0978070B5C4
:101A80000D460446504B1B6803F00F038B4208D2EF
:101A9000CBB24D4A1370136803F00F038B4240F032
:101AA0008780236813F0020F17D013F0040F04D0BF
:101AB000464A936843F4E0539360236813F0080F99
:101AC00004D0424A936843F4604393603F498B6873
:101AD00023F0F002A36813438B60236813F0010F17
:101AE0002FD06268012A05D1384B1B6813F4003FE0
:101AF0000ED15FE0931E012B05D8344B1B6813F009
:101B0000007F05D158E0314B1B6813F0020F55D010
:101B10002E498B6823F0030313438B6000F02EFAE9
:101B2000064606E000F02AFA801B41F2883398420C
:101B300046D8264B9B6803F00C036268B3EB820F18
:101B4000F0D1214B1B6803F00F03AB4207D9EAB277
:101B50001D4B1A701B6803F00F03AB4232D1236890
:101B600013F0040F06D019498B6823F4E052E368A0
:101B700013438B60236813F0080F07D0134A936850
:101B800023F46043216943EAC1039360FFF724FF14
:101B90000E4B9B68C3F303130D4AD35CD8400D4B27
:101BA00018600020FFF7E8F9002070BD01207047A1
:101BB000012070BD012070BD012070BD012070BDED
:101BC000032070BD012070BD003C0240003802407F
:101BD0001C38000804000020014B1868704700BF43
:101BE0000400002008B5FFF7F7FF044B9B68C3F320
:101BF0008223034AD35CD84008BD00BF00380240AE
:101C00002C38000808B5FFF7E7FF044B9B68C3F3C7
:101C10004233034AD35CD84008BD00BF00380240BD
:101C20002C3800080F2303600B4B9A6802F0030264
:101C300042609A6802F0F00282609A6802F4E05210
:101C4000C2609B6803F46043DB080361034B1B68BD
:101C500003F00F030B60704700380240003C024065
:101C60002DE9F04182B00023D3E09C4601229A4046
:101C70000C681440944240F0CB804D68022D01D096
:101C8000122D14D14FEAD30808F1080850F8287033
:101C900003F0070E4FEA8E0E0F2505FA0EF527EA20
:101CA00005060D6905FA0EF5354340F8285006681B
:101CB0004FEA430E032505FA0EF5ED4305EA060744
:101CC0004E6806F0030606FA0EF63E4306604E68BE
:101CD000771E012F03D9112E01D0122E12D1866842
:101CE00005EA0607CE6806FA0EF63E4386604768A8
:101CF00027EA02074E68C6F3001202FA0CF646EA1B
:101D000007024260C2682A408D6805FA0EF5154345
:101D1000C5604A6812F0805F7AD000220192404A82
:101D2000556C45F480455564526C02F48042019232
:101D3000019A9A08961C3B4D55F8266003F003075C
:101D4000BF000F25BD4026EA0506374DA8422BD01F
:101D500005F58065A84225D005F58065A8421FD00D
:101D600005F58065A84219D005F58065A84213D015
:101D700005F58065A8420DD005F58065A84207D01D
:101D800005F58065A84201D107250EE008250CE085
:101D900006250AE0052508E0042506E0032504E001
:101DA000022502E0012500E00025BD403543023256
:101DB0001C4E46F822501D4A1568E24302EA050609
:101DC0004F6817F4803F01D044EA0506174D2E6096
:101DD0006D6802EA05064F6817F4003F01D044EA37
:101DE0000506124D6E60AD6802EA05064F6817F4ED
:101DF000801F01D044EA05060C4DAE60ED682A4014
:101E00004E6816F4001F01D044EA0502074CE26058
:101E100001330F2B7FF629AF02B0BDE8F08100BF80
:101E2000003802400038014000000240003C014000
:101E30000AB1816170470904816170474369594063
:101E40004161704700F00700064AD36823F4E0635D
:101E50001B041B0C43EA002040F0BF6040F400303C
:101E6000D060704700ED00E030B4164BDC68C4F37E
:101E70000224C4F10705042D28BF0425231D062BC9
:101E800001D9033C00E00024012303FA05F5013DDC
:101E90002940A140A340013B1A400A43002806DA2A
:101EA00000F00F001201D2B2074B1A5407E01201E2
:101EB000D2B200F1604000F5614080F8002330BCF0
:101EC000704700BF00ED00E014ED00E0410900F0B4
:101ED0001F0001238340024A42F82130704700BFAF
:101EE00000E100E00138B0F1807F0AD2064B586073
:101EF000F021064A82F823100020986007221A6019
:101F000070470120704700BF10E000E000ED00E0E6
:101F1000042805D1054A136843F004031360704791
:101F2000024A136823F004031360704710E000E0D6
:101F300008B50B4B1A6842F400721A601A6842F432
:101F400080621A601A6842F480721A600320FFF7F8
:101F500079FF0020FFF710F8FEF79EFE002008BD75
:101F6000003C0240034A1368034909780B4413609C
:101F7000704700BFD040002000000020014B1868CF
:101F8000704700BFD040002038B50446FFF7F6FF89
:101F90000546B4F1FF3F02D0044B1B781C44FFF709
:101FA000EDFF401B8442FAD838BD00BF000000207E
:101FB0000F49D1F8883043F47003C1F888300D4BD5
:101FC0001A6842F001021A60002098601A6822F034
:101FD000847222F480321A60074A5A601A6822F426
:101FE00080221A60D8604FF000638B60704700BF9A
:101FF00000ED00E00038024010300024124A12F0D8
:10200000070F07D0D11D21F00701C1F5705313440C
:102010000A4601E04FF470530C4802600021416011
:102020001344083B23F00703094803605960196013
:10203000991A51601360074B1960074B19604FF0F4
:102040000042064B1A607047380000203000002024
:102050002C0000203C3C002028000020383C0020C0
:10206000134A00E01A4613688342FBD310B4516848
:102070005418844203D140680144516010464168BD
:1020800044189C420CD10B4C2468A34206D05B68D8
:102090001944416013681B68036002E0046000E0BB
:1020A0000360824200D010605DF8044B704700BFAF
:1020B000300000202C00002070B5044600F0C2FB68
:1020C000334B1B680BB9FFF799FF324B1B681C425F
:1020D00047D134B1083414F0070F02D024F00704BC
:1020E0000834002C3FD02C4B1B689C423DD82B4B16
:1020F0001D6801E02B4615466A68A24202D22A6892
:10210000002AF7D1224A1268954230D01E6808365C
:102110002A681A606B681B1B102B10D9281910F045
:10212000070F08D04FF0500383F31188BFF36F8F70
:10213000BFF34F8FFEE743606C60FFF791FF6A6863
:1021400015490B689B1A0B60154909688B4201D22F
:1021500013490B600F4B1B6813436B6000232B600C
:1021600006E0002604E0002602E0002600E000264B
:1021700000F002FC16F0070F08D04FF0500383F375
:102180001188BFF36F8FBFF34F8FFEE7304670BDEE
:102190002C000020383C00202800002030000020C7
:1021A0003C3C0020A0B338B50346A0F1080550F828
:1021B000042C1849096812EA010408D14FF05003B1
:1021C00083F31188BFF36F8FBFF34F8FFEE750F893
:1021D000080C40B14FF0500383F31188BFF36F8FA9
:1021E000BFF34F8FFEE794B188B91C4622EA010283
:1021F00043F8042C00F026FB54F8041C064A13682C
:102200000B4413602846FFF72BFF00F0B5FB38BDE9
:10221000704700BF383C0020280000200B4B1B6893
:10222000B3F1FF3F08D04FF0500383F31188BFF3A1
:102230006F8FBFF34F8FFEE74FF0500383F311888A
:10224000BFF36F8FBFF34F8FFEE700BF0800002082
:1022500006480068006880F3088862B661B6BFF37C
:102260004F8FBFF36F8F00DF00BF000008ED00E06D
:10227000DFF80C00016841F4700101607047000054
:1022800088ED00E04FF0807340F8043C21F001013C
:1022900040F8081C054B40F80C3C40F8202C6FF02F
:1022A000020340F8243C4438704700BF1D22000858
:1022B000074B19680868B0E8F04F80F30988BFF34E
:1022C0006F8F4FF0000080F311887047AFF30080EC
:1022D000083D00204FF0500383F31188BFF36F8F48
:1022E000BFF34F8F0A4A136801331360012B0DD1DE
:1022F000084B1B6813F0FF0F08D04FF0500383F317
:102300001188BFF36F8FBFF34F8FFEE7704700BF99
:102310000800002004ED00E0094B1B6843B94FF0B2
:10232000500383F31188BFF36F8FBFF34F8FFEE726
:10233000013B034A13600BB983F31188704700BF58
:102340000800002000000000000000000000000065
:10235000EFF30980BFF36F8F154B1A681EF0100F53
:1023600008BF20ED108A20E9F04F10604DF8043DC1
:102370004FF0500080F31188BFF34F8FBFF36F8F82
:1023800000F0DCFB4FF0000080F3118808BC1968F6
:102390000868B0E8F04F1EF0100F08BFB0EC108ACC
:1023A00080F30988BFF36F8F704700BFAFF30080E1
:1023B000083D002008B54FF0500383F31188BFF3A8
:1023C0006F8FBFF34F8F00F045FA18B14FF0805276
:1023D000024B1A60002383F3118808BD04ED00E06E
:1023E000064B1B68064AA2FB03239B09013B054AD7
:1023F00013600722044B1A60704700BF04000020DE
:10240000D34D621014E000E010E000E0314B1A6898
:10241000314B9A4208D14FF0500383F31188BFF338
:102420006F8FBFF34F8FFEE72A4B1A682B4B9A42F0
:1024300008D14FF0500383F31188BFF36F8FBFF3C0
:102440004F8FFEE700B583B0254B1A78D2B20192C8
:10245000FF221A701B78DBB28DF803309DF8033031
:1024600003F050031F4A137007221F4B1A6009E044
:102470001D4A1368013B13609DF803305B00DBB21B
:102480008DF803309DF8033013F0800FF0D1164A19
:1024900013681B0203F4E0631360019BDBB2104A74
:1024A0001370124B1A6842F470021A601A6842F0F4
:1024B00070421A60FFF794FF00220D4B1A60FFF77D
:1024C000D7FE0C4A136843F040431360FFF7C0FE89
:1024D000FFF7A4FE00ED00E071C20F4170C20F4192
:1024E00000E400E0403C0020443C002020ED00E0FF
:1024F0000800002034EF00E00A4B1B681B680BB992
:10250000012300E0002323B14FF0FF32064B1A6095
:102510007047044B1B68DB68DB685A68024B1A6023
:10252000704700BF4C3C0020283D002010B50446F9
:10253000006BFFF737FE2046FFF734FE10BD00BFEB
:102540002DE9F04781469846089D099F0A9C236B18
:1025500002F18042013A03EB820626F007060023CF
:1025600006E0C85CE21882F83400CA5C12B101339C
:102570000F2BF6D9002384F84330062D00D9062509
:10258000E56265644FF0000AC4F848A0201D00F021
:102590003DFB04F1180000F039FB2461C5F107058B
:1025A000A5616462C4F84CA084F850A03046494646
:1025B0004246FFF767FE206007B13C60BDE8F08748
:1025C00038B5002407E004EB84039B000E48184450
:1025D00000F010FB0134062CF5D90C4D284600F014
:1025E00009FB0B4C204600F005FB0A4800F002FBFB
:1025F000094800F0FFFA094800F0FCFA084B1D609A
:10260000084B1C6038BD00BF703C0020303D0020EE
:10261000443D00200C3D0020543C0020583D00204B
:102620004C3C0020683C002010B50446FFF752FEE9
:10263000204A1368013313601F4B1B683BB91E4BC4
:102640001C601368012B0DD1FFF7BAFF0AE01B4B8A
:102650001B683BB9184B1B68DA6AE36A9A4201D8D7
:10266000154B1C60164A136801331360E06A01239E
:10267000834014490A6813430B6000EB800080001C
:10268000114B1844211D00F0C5FAFFF745FE0B4B16
:102690001B686BB1084B1B68DA6AE36A9A4207D27F
:1026A0004FF08052094B1A60BFF34F8FBFF36F8F0B
:1026B00010BD00BF043D0020083D0020503C00201C
:1026C0002C3D00206C3D0020703C002004ED00E01B
:1026D00070B504460E461C4B1D681C4B1868043030
:1026E00000F0BEFA48B9194B1B68DA6A012393401F
:1026F00017490A6822EA03030B60B4F1FF3F07D1D0
:1027000036B1124B19681348043100F083FA70BDDA
:102710002C440E4B1B685C60AC4207D20E4B186811
:102720000A4B1968043100F081FA70BD0B4B186830
:10273000064B1968043100F079FA094B1B689C427A
:1027400001D2074B1C6070BD243D0020083D0020D5
:102750006C3D0020583D0020683C00204C3C00208F
:10276000283D00202DE9F04385B080460F461546F0
:102770001E469000FFF7A0FC60B181465420FFF791
:102780009BFC044610B1C0F8309004E04846FFF7C7
:1027900009FD00E000248CB10C9B00930D9B01937C
:1027A000029400230393404639462A463346FFF7F6
:1027B000C7FE2046FFF738FF012001E04FF0FF3051
:1027C00005B0BDE8F08300BF00B583B000230093DF
:1027D000164A0192164817498022FFF7C3FF0128C5
:1027E00014D14FF0500383F31188BFF36F8FBFF301
:1027F0004F8F4FF0FF32104B1A6001220F4B1A60BF
:1028000000220F4B1A60FFF701FE0BE0B0F1FF3F13
:1028100008D14FF0500383F31188BFF36F8FBFF3DC
:102820004F8FFEE703B05DF804FB00BF203D0020A2
:10283000152B000834380008283D0020503C0020AB
:10284000243D0020024A136801331360704700BF23
:10285000FC3C0020F8B53D4B1B68002B69D13C4B7C
:102860001D6801351D60C5B93A4B1B681B6843B133
:102870004FF0500383F31188BFF36F8FBFF34F8F77
:10288000FEE7344A1168344B186810601960334A07
:10289000136801331360FFF72FFE314B1B689D4215
:1028A00003D200243AE0012400E00024294B1B68F5
:1028B0001B680BB9012300E0002323B14FF0FF3266
:1028C000274B1A602AE0234B1B68DB68DE687368BD
:1028D0009D4202D2224A136020E0371D384600F0A4
:1028E000BFF9B36A1BB106F1180000F0B9F9F36A39
:1028F000012202FA03F11B4802680A43026003EB5B
:1029000083039B0018481844394600F083F9F26AA3
:10291000164B1B68DB6A9A42C5D2C7E7134B1B688C
:10292000DB6A03EB83039B000F4AD358012B06D8C5
:1029300006E00F4A136801331360002400E001240D
:102940000C4B1B6803B101242046F8BDFC3C002061
:10295000243D00204C3C0020683C0020483C0020E6
:10296000283D00206C3D0020703C0020083D0020E8
:102970006C3C0020703D002038B5344B1B6843B9D7
:102980004FF0500383F31188BFF36F8FBFF34F8F66
:10299000FEE7FFF79FFC2D4B1A68013A1A601B688F
:1029A000002B4CD12A4B1B6833BB00244AE0294B37
:1029B000DB68DC6804F1180000F052F9251D284698
:1029C00000F04EF9E36A012202FA03F1224802689C
:1029D0000A43026003EB83039B0020481844294606
:1029E00000F018F9E26A1E4B1B68DB6A9A4204D3B6
:1029F00001221C4B1A6000E00024164B1B68002BC0
:102A0000D5D10CB1FFF778FD174B1C6854B1FFF717
:102A100021FF10B10122134B1A60013CF7D10022B3
:102A2000114B1A600F4B1B685BB14FF080520F4B7C
:102A30001A60BFF34F8FBFF36F8F012402E00024B1
:102A400000E00024FFF768FC204638BDFC3C002075
:102A5000043D00200C3D00206C3D0020703C002017
:102A6000083D0020703D00206C3C002004ED00E09B
:102A700010B5A8B10446104B1B6843B14FF050038A
:102A800083F31188BFF36F8FBFF34F8FFEE7FFF71C
:102A9000D9FE20460021FFF71BFEFFF76DFF00E087
:102AA000002038B94FF08052044B1A60BFF34F8FAB
:102AB000BFF36F8F10BD00BFFC3C002004ED00E0B1
:102AC00010B51BE0FFF7BEFE0F4B1C68FFF754FF6D
:102AD000A4B1FFF7FFFB0C4BDB68DC68201D00F0A6
:102AE000BFF80A4A1368013B1360094A1368013BA7
:102AF0001360FFF711FC2046FFF718FD044B1B681D
:102B0000002BDFD110BD00BF543C0020043D00204D
:102B1000003D002008B5FFF7D3FF064B1B68012BD3
:102B2000F9D94FF08052044B1A60BFF34F8FBFF3B7
:102B30006F8FF0E7703C002004ED00E0204B1B6835
:102B40001BB101221F4B1A60704700221D4B1A60F7
:102B50001D4B1B68B3FA83F3DBB2C3F11F0303EB16
:102B60008302920019498A5842B94FF0500383F307
:102B70001188BFF36F8FBFF34F8FFEE710B4134C74
:102B80009A00D118890021444868406848601A4476
:102B9000920008322244904205D1416803EB83023F
:102BA00092002244516003EB83039B00074A1344C5
:102BB0005B68DA68064B1A605DF8044B704700BF2B
:102BC000FC3C0020703D00206C3D0020703C00204B
:102BD000083D0020054B1B6823B1054B1B681BB942
:102BE000022070470120704700207047503C0020B1
:102BF000FC3C002000F1080343604FF0FF3282608C
:102C0000C360036100230360704700BF00230361BA
:102C1000704700BF43684B609A688A609A68516049
:102C200099600861036801330360704730B40D6830
:102C3000B5F1FF3F01D1026907E000F1080200E0B1
:102C40001A4653681C68AC42FAD953684B609960C5
:102C50008A605160086103680133036030BC7047CB
:102C600003694268816891608268416851605A686E
:102C7000824201D182685A600022026118680138DC
:102C800018607047842801D00330704700207047D7
:102C900008B5FFF799FD002008BD00BFF0B585B06D
:102CA0000C46476806680569B0F90800FFF7EAFFB7
:102CB000009003AB019338463146AAB22346FFF792
:102CC00051FD012801D1039800E0002005B0F0BDBE
:102CD00008B508B90120FFE7FFF7CAFE002008BDCC
:102CE00008B5FFF777FF012801D0FFF763FB08BDA8
:102CF0002DE9F84304460268136923F44053C16880
:102D00000B4313610068C36823F4164323F00C03DC
:102D1000A1682269114362691143E2690A431343BE
:102D2000C3602268536923F44073A1690B43536164
:102D3000E369B3F5004F40F0B580266803F18043A6
:102D400003F510439E4203D003F580639E4254D1A5
:102D5000FEF758FF00EB800000EB800065686D0017
:102D6000B0FBF5F5A84FA7FB05356D092D01FEF762
:102D700049FF00EB800000EB800063685B00B0FB64
:102D8000F3F8FEF73FFF00EB800000EB8000636884
:102D90005B00B0FBF3F3A7FB03235B094FF064096F
:102DA00009FB1383DB003233A7FB03231B0903F466
:102DB000F8731D44FEF726FF00EB800000EB800057
:102DC00063685B00B0FBF3F8FEF71CFF00EB8000CC
:102DD00000EB800063685B00B0FBF3F3A7FB032309
:102DE0005B0909FB1383DB003233A7FB0323C3F327
:102DF00042131D44B560BDE8F883FEF7F3FE00EB17
:102E0000800000EB800065686D00B0FBF5F57E4F3B
:102E1000A7FB05356D092D01FEF7E4FE00EB8000F0
:102E200000EB800063685B00B0FBF3F8FEF7DAFEAE
:102E300000EB800000EB800063685B00B0FBF3F305
:102E4000A7FB03235B094FF0640909FB1383DB0035
:102E50003233A7FB03231B0903F4F8731D44FEF769
:102E6000C1FE00EB800000EB800063685B00B0FBFC
:102E7000F3F8FEF7B7FE00EB800000EB800063681C
:102E80005B00B0FBF3F3A7FB03235B0909FB138390
:102E9000DB003233A7FB0323C3F342131D44B560A9
:102EA000BDE8F8832668594B9E4203D003F5806342
:102EB0009E4254D1FEF7A6FE00EB800000EB80009E
:102EC0006568AD00B0FBF5F54F4FA7FB05356D0903
:102ED0002D01FEF797FE00EB800000EB8000636899
:102EE0009B00B0FBF3F8FEF78DFE00EB800000EBDB
:102EF000800063689B00B0FBF3F3A7FB03235B092F
:102F00004FF0640909FB13831B013233A7FB032332
:102F10005B0903F0F0031D44FEF774FE00EB800034
:102F200000EB800063689B00B0FBF3F8FEF76AFEDD
:102F300000EB800000EB800063689B00B0FBF3F3C4
:102F4000A7FB03235B0909FB13831B013233A7FB98
:102F50000323C3F343131D44B560BDE8F883FEF7B4
:102F600041FE00EB800000EB80006568AD00B0FB27
:102F7000F5F5254FA7FB05356D092D01FEF732FE4E
:102F800000EB800000EB800063689B00B0FBF3F86F
:102F9000FEF728FE00EB800000EB800063689B00DA
:102FA000B0FBF3F3A7FB03235B094FF0640909FBB4
:102FB00013831B013233A7FB03235B0903F0F003E8
:102FC0001D44FEF70FFE00EB800000EB80006368FD
:102FD0009B00B0FBF3F8FEF705FE00EB800000EB72
:102FE000800063689B00B0FBF3F3A7FB03235B093E
:102FF00009FB13831B013233A7FB0323C3F34313E2
:103000001D44B560BDE8F8831F85EB5100100140F9
:1030100068B310B5044690F8393013F0FF0F04D1AF
:10302000002380F83830FDF77BFF242384F8393003
:103030002268D36823F40053D3602046FFF758FE7C
:103040002268136923F4904313612268536923F0C3
:103050002A0353612268D36843F40053D3600020ED
:10306000E063202384F8393084F83A3010BD012021
:10307000704700BF00283CD010B50446002383628F
:1030800090F8513013F0FF0F04D1002380F8503036
:10309000FDF7A2FE022384F851302268136823F062
:1030A0004003136021686268A3681A43E3681A4307
:1030B00023691A4363691A43A36903F40073134332
:1030C000E2691343226A1343A26A1A430A60216821
:1030D000638B03F00402636A13434B602268D36975
:1030E00023F40063D36100206065012384F851302C
:1030F00010BD0120704700BF002800F0838038B564
:10310000044690F83D3013F0FF0F04D1002380F8FF
:103110003C30FDF735FE242384F83D3022681368E7
:1031200023F001031360FEF75DFD374BA3FB002383
:103130009B0C2268536021686568344A954201D827
:10314000013308E04FF4967202FB03F3304AA2FB0E
:1031500003239B0901330B62216863682B4A934266
:1031600008D85B00B0FBF3F0C0F30B03032B2BD8A4
:10317000042029E0A5684DB903EB4302B0FBF2F24D
:10318000C2F30B02B2FA82F252090AE003EB8302A5
:1031900002EB8202B0FBF2F2C2F30B02B2FA82F24D
:1031A000520982B935B903EB4303B0FBF3F040F4A5
:1031B000004009E003EB830303EB8303B0FBF3F070
:1031C00040F4404000E00120C8612268E169236AC0
:1031D0000B43136022682169E3680B439360226804
:1031E0006169A3690B43D3602268136843F001034C
:1031F000136000202064202384F83D30206384F88D
:103200003E0038BD0120704783DE1B43A0860100CD
:10321000D34D6210484B5A6822F440325A605968C4
:1032200042680A435A600268536823F4807353600B
:1032300002685368016943EA0123536002685368D6
:1032400023F0407353600268516883680B435360F6
:103250000268936823F40063936002689168C3680E
:103260000B439360826A354B9A4214D0026893688C
:1032700023F07063936002689168836A0B439360E4
:103280000268936823F04053936002689168C36AB0
:103290000B43936009E00268936823F070639360C6
:1032A0000268936823F0405393600268936823F0A8
:1032B0000203936002689368816943EA4103936063
:1032C000036A8BB10268536843F400635360026879
:1032D000536823F46043536001684A68436A013BC2
:1032E00042EA43334B6004E00268536823F400630E
:1032F00053600268D36A23F47003D3620168CA6A18
:10330000C369013B42EA0353CB620268936823F42A
:103310000073936002689368016B43EA41239360F2
:103320000268936823F4806393600268936841693C
:1033300043EA812393607047002301400100000F9E
:10334000704700BF28B310B50446036C23B943642B
:1033500080F83C30FFF7F4FF236C13F0100F13D10B
:10336000236C23F4885323F0020343F00203236405
:103370002046FFF74FFF00206064236C23F0030317
:1033800043F00103236400E00120002384F83C3073
:1033900010BD0120704700BF82B00023019390F858
:1033A0003C30012B61D0012380F83C3003689A68DF
:1033B00012F0010F13D19A6842F001029A60304B6B
:1033C0001B68304AA2FB03239B0C03EB43030193CE
:1033D00002E0019B013B0193019B002BF9D10268A4
:1033E000936813F0010F42D0036C23F4E06323F0E1
:1033F000010343F480730364536813F4806F05D0B2
:10340000036C23F4405343F480530364036C13F4BC
:10341000805F04D0436C23F00603436401E0002383
:103420004364002380F83C306FF022031360164B96
:103430005B6813F01F0F0AD103689A6812F0405FAF
:1034400017D19A6842F080429A60002016E0036823
:103450000E4A93420FD19A6812F0405F0DD19A68DC
:1034600042F080429A60002008E0022006E000203E
:1034700004E0002002E0002000E0002002B07047DD
:103480000400002083DE1B43002301400020014094
:1034900070B503689A6812F4806F0CD09B6813F4BF
:1034A000807F08D0036C43F020030364002380F87E
:1034B0003C30012070BD0D460446FEF75FFD064618
:1034C00011E0B5F1FF3F0ED025B1FEF757FD801B8F
:1034D000A84208D9236C43F004032364002384F832
:1034E0003C30032070BD23681A6812F0020FE8D048
:1034F0006FF012021A60236C43F400732364236894
:103500009A6812F0405F17D1A269BAB9DA6A12F468
:10351000700F03D09B6813F4806F11D1236C23F4D8
:1035200080732364236C13F4805F0BD1236C43F00E
:1035300001032364002070BD002070BD002070BD19
:10354000002070BD002070BD0368D86C704700BFBC
:1035500030B482B00023019390F83C30012B00F08E
:10356000B180012380F83C300B68092B16D905681F
:10357000EA689BB203EB43031E3B072404FA03F300
:1035800022EA0303EB600468E5688A680B8803EBB2
:1035900043031E3B9A402A43E26013E005682A6910
:1035A0009BB203EB4303072404FA03F322EA030369
:1035B0002B61046825698B680A8802EB42029340FC
:1035C0002B4323614B68062B16D805686A6B03EB07
:1035D0008303053B1F2404FA03F322EA03036B630E
:1035E0000468656B0A884B6803EB8303053B02FAAA
:1035F00003F32B4363632EE00C2B16D805682A6B6C
:1036000003EB8303233B1F2404FA03F322EA03039F
:103610002B630468256B0A884B6803EB8303233B09
:1036200002FA03F32B43236315E00568EA6A03EB10
:103630008303413B1F2404FA03F322EA0303EB62F2
:103640000468E56A0A884B6803EB8303413B02FA8E
:1036500003F32B43E36202681C4B9A4207D10B68C9
:10366000122B04D11A4A536843F480035360026852
:10367000164B9A4221D10B68103B012B1DD8144ADE
:10368000536843F4000353600B68102B15D1114BA2
:103690001B6802F1467202F52E3202F28332A2FB5F
:1036A00003239B0C03EB83035B00019302E0019B6C
:1036B000013B0193019B002BF9D1002380F83C30A2
:1036C000184600E0022002B030BC704700200140E4
:1036D0000023014004000020DFF834D0002103E083
:1036E0000C4B5B58435004310B480C4B42189A4228
:1036F000F6D30B4A02E0002342F8043B094B9A42FE
:10370000F9D3FEF755FC00F011F8FDF76BFA70479E
:10371000000002204C380008000000200C000020AF
:103720000C000020D4400020FEE7000070B50E4BD6
:103730000E4CE41AA41000251E46A54204D056F8EB
:10374000253098470135F8E700F016F8084C094B8A
:10375000E41AA41000251E46A54204D056F82530D0
:1037600098470135F8E770BD443800084438000830
:103770004838000844380008F8B500BFF8BC08BC59
:103780009E467047F8B500BFF8BC08BC9E4670471F
:103790001038000885080008000000000000000044
:1037A0008000000008380008C1090008010000007E
:1037B00001000000800000000038000891080008A7
:1037C0000100000001000000800000005445535437
:1037D000494E4720554152542046554E4354494F77
:1037E0004E000000496E632F656563733437332ED6
:1037F000680000005372632F6D61696E2E630000D4
:1038000063616E5461736B006164635461736B0038
:1038100064656661756C745461736B000000000030
:103820000000000001020304060708090000000070
:0C3830000102030449444C450000000064
:08383C008CCAFF7F01000000AF
:04384400FD0100087A
:04384800D50100089E
:0C384C00010000000024F400AAAAAAAAAF
:04000005080036D9E0
:00000001FF
