:020000040800F2
:10000000000002200160000899160008A5160008EB
:10001000AD160008B5160008BD1600080000000067
:10002000000000000000000000000000013F000888
:10003000C51600080000000011410008D116000894
:1000400051600008516000085160000851600008CC
:1000500051600008516000085160000851600008BC
:1000600051600008516000085160000851600008AC
:10007000516000085160000851600008516000089C
:1000800051600008516000084910000851600008E4
:10009000516000085160000851600008516000087C
:1000A00051600008DD16000851600008516000082A
:1000B000516000085160000851600008516000085C
:1000C000516000085160000851600008516000084C
:1000D000516000085160000851600008516000083C
:1000E000516000085160000851600008516000082C
:1000F000516000085160000851600008516000081C
:10010000516000085160000851600008516000080B
:1001100051600008516000085160000851600008FB
:1001200051600008516000085160000851600008EB
:1001300039100008000000000000000051600008B5
:1001400051600008516000085160000851600008CB
:1001500051600008516000085160000851600008BB
:1001600051600008516000085160000851600008AB
:10017000516000085160000800000000000000000D
:08018000516000085160000805
:10019000044B05481B1A062B02D9044B03B1184720
:1001A000704700BF6F0000206C00002000000000BE
:1001B00005490648091A891001EBD171491002D08E
:1001C000034B03B1184770476C0000206C000020FF
:1001D0000000000010B5064C237843B9FFF7D8FFA4
:1001E000044B13B10448AFF300800123237010BD0A
:1001F0006C00002000000000A060000808B5084B5B
:100200001BB108480849AFF300800848036813B9D8
:10021000BDE80840CCE7064B002BF9D09847F7E73C
:1002200000000000A0600008700000206C000020AA
:100230000000000053B94AB9002908BF00281CBFBC
:100240004FF0FF314FF0FF3000F03CB882B0EC4689
:100250002DE9005000F01EF8DDF804E002B00CBCFF
:10026000704700BF2DE9F041069C154606460F4633
:10027000984600F029F805FB01F300FB0838A5FBC0
:100280000023B21A434467EB0303C4E90023BDE82B
:10029000F08100BF2DE9F041069C904606460F46CE
:1002A0001D4600F05FF900FB05F5A0FB082308FBE5
:1002B0000155B21A2B4467EB0303C4E90023BDE8E0
:1002C000F08100BF704700BF00292DE9F043C0F264
:1002D000A6800026002BC0F29C80884694469E464D
:1002E000154604460F46002B3DD18A4259D9B2FA31
:1002F00082F33BB1C3F120029F4020FA02F29D40FD
:1003000017439C40290C220CB7FBF1FEA8B201FB5D
:100310001E7742EA074700FB0EF3BB420AD97F195A
:100320000EF1FF3280F00581BB4240F20281AEF156
:10033000020E2F44FF1AA4B2B7FBF1F301FB1377AF
:1003400044EA074700FB03F0B84208D97F1903F1DC
:10035000FF3280F0F080B84240F2ED80023B43EA89
:100360000E43002203E08B420FD900221346341CB7
:1003700018BF012460424FF0000565EB450158406D
:10038000514000196941BDE8F083B3FA83F2002AB5
:1003900040F086808B4202D3844500F2DB8001234B
:1003A000E5E712B90123B3FBF2F5B5FA85F00028B1
:1003B0003BD1781B4FEA154E1FFA85FC0122B0FB9A
:1003C000FEF8210C0EFB180741EA07470CFB08F367
:1003D000BB4207D97F1908F1FF3102D2BB4200F2BC
:1003E000BD808846FF1AA4B2B7FBFEF30EFB13775D
:1003F00044EA07470CFB03FCBC4507D97F1903F10E
:10040000FF3102D2BC4500F2A7800B4643EA084305
:10041000ADE752426FEA060663EB43035DE74042F5
:1004200061EB41014FF0FF3654E7C0F1200224FA9E
:1004300002F107FA00F385404FEA154ED740194301
:10044000B7FBFEF20B0C0EFB12771FFA85FC43EA9A
:1004500007430CFB02F79F4204FA00F407D95B192B
:1004600002F1FF3074D29F4272D9023A2B44DF1B53
:1004700089B2B7FBFEF80EFB187341EA03430CFB8D
:1004800008F79F4208D95B1908F1FF315CD29F42FF
:100490005AD9A8F102082B44D81B48EA02428EE739
:1004A000C2F120032CFA03F10EFA02FE20FA03F740
:1004B00041EA0E0E08FA02F028FA03F14FEA1E454F
:1004C0003843B1FBF5F8030C05FB18111FFA8EF742
:1004D00043EA014107FB08F38B420CFA02FC09D9FD
:1004E00011EB0E0108F1FF3930D28B422ED9A8F161
:1004F00002087144C91A80B2B1FBF5F305FB131170
:1005000040EA014107FB03F78F4208D911EB0E01C6
:1005100003F1FF3016D28F4214D9023B714443EAF3
:100520000843C91BA3FB0C89494509D305D0002208
:100530001DE79646FEE6134611E794404445F6D281
:10054000013BF4E70346EAE78846A5E7C846D1E75A
:1005500002468CE713460AE7023B57E7A8F1020878
:100560002F443FE72DE9F041002B44D18A42154644
:1005700004464FD9B2FA82F70E464FB1C7F12003B5
:10058000B94020FA03F602FA07F50E4300FA07F421
:100590004FEA154E230CB6FBFEF0AFB20EFB106116
:1005A00043EA014307FB00F1994209D95B1900F1C5
:1005B000FF3280F0EC80994240F2E98002382B440F
:1005C0005A1AA4B2B2FBFEF30EFB132244EA024213
:1005D00007FB03F7974208D9521903F1FF3180F066
:1005E000D880974240F2D580023B43EA0040002683
:1005F0003146BDE8F0818B4247D8B3FA83F6002E2E
:1006000048D18B4202D3824200F2CD800120314694
:10061000BDE8F08112B90125B5FBF2F5B5FA85F810
:10062000B8F1000F77D14A1B4FEA154EAFB2012641
:10063000B2FBFEF0230C0EFB102143EA014107FB45
:1006400000F38B4207D9491900F1FF3202D28B42E5
:1006500000F2BA801046C91AA4B2B1FBFEF30EFB39
:10066000131144EA014407FB03F7A74208D96419B0
:1006700003F1FF3280F08F80A74240F28C80023B72
:1006800043EA00403146BDE8F0810026304631465D
:10069000BDE8F081C6F1200422FA04F5B3402B43F3
:1006A00020FA04FC01FA06F721FA04F54FEA134E8A
:1006B0004CEA0707B5FBFEF8390C0EFB18551FFA7C
:1006C00083FC41EA05450CFB08F1A94202FA06F257
:1006D00004D9ED1808F1FF3467D3A0466D1ABFB2F4
:1006E000B5FBFEF40EFB145547EA05410CFB04FC78
:1006F0008C4504D9C91804F1FF355CD32C4644EA73
:100700000844CCEB0101A4FB0223994248D344D016
:10071000204600266CE7C8F1200401FA08F305FA28
:1007200008F520FA04F7E1404FEA154E1F43B1FBEC
:10073000FEF63A0C0EFB16111FFA85FC42EA014345
:100740000CFB06F29A4200FA08F407D95B1906F18D
:10075000FF3137D29A4235D9023E2B449B1ABFB2A1
:10076000B3FBFEF00EFB103347EA03430CFB00F132
:10077000994207D95B1900F1FF3221D299421FD962
:1007800002382B445A1A40EA0646674650E710469C
:1007900016E70B4629E7134672E7B0409042B7D2FE
:1007A000601E002624E7304622E7A94295D9A8F129
:1007B00002081D4492E78C45A0D9023C19449EE7EB
:1007C0001046DFE70E46C9E70238294443E700BF79
:1007D00080B485B000AF224B1B68002B3AD10023B8
:1007E000FB60204A1F4B1B6B43F0010313631D4B3F
:1007F0001B6B03F00103FB60FB680023BB60194A1D
:10080000184B1B6B43F008031363164B1B6B03F071
:100810000803BB60BB6800237B60124A114B1B6B53
:1008200043F0020313630F4B1B6B03F002037B6067
:100830007B6800233B600B4A0A4B1B6B43F00403AD
:100840001363084B1B6B03F004033B603B68044BD2
:1008500001221A601437BD465DF8047B704700BF63
:10086000880000200038024080B582B000AF786078
:100870007B68022B5DD1604B604A1A605E4B4FF47F
:1008800082725A605C4B00229A605B4B0022DA60F5
:10089000594B02221A61584B01225A61564B4FF4B0
:1008A00000729A61544B0022DA61534B00221A62A3
:1008B000514B00225A62504B00229A624E4B0A2240
:1008C000DA624D4804F026FB0346002B01D000F00D
:1008D00041FC4B4B484A1A60494B04221A71484B61
:1008E00005225A71464B06229A71454B0722DA714E
:1008F000434B4AF6AA221A81414B4AF6AA225A8150
:100900003F4B4AF6AA229A813D4B4AF6AA22DA8147
:100910003B4B4AF6AA221A82394B4AF6AA225A823D
:10092000374B4AF6AA229A82354B4AF6AA22DA8235
:100930005FE07B68032B5CD1324B334A1A60314B4A
:100940004FF482725A602F4B00229A602D4B002286
:10095000DA602C4B02221A612A4B01225A61294B80
:100960004FF400729A61274B0022DA61254B002276
:100970001A62244B00225A62224B00229A62214BB7
:100980000A22DA621F4804F0C5FA0346002B01D0A0
:1009900000F0E0FB1D4B1B4A1A601C4B00221A7131
:1009A0001A4B01225A71194B02229A71174B0322DA
:1009B000DA71164B4AF6AA221A81144B4AF6AA2279
:1009C0005A81124B4AF6AA229A81104B4AF6AA2261
:1009D000DA810E4B4AF6AA221A820C4B4AF6AA2258
:1009E0005A820A4B4AF6AA229A82084B4AF6AA224F
:1009F000DA820837BD4680BDE03D00200038004067
:100A0000383E0020283F0020003C0040D43F00201A
:100A100080B588B002AFF860B9601346FB80182338
:100A2000BB75FB88B8681946002202F0CFFAFB6854
:100A3000186807F1160107F117024FF0FF33009312
:100A4000012304F0CBFA0023BB75FB68186807F19B
:100A5000160107F117024FF0FF330093012304F052
:100A6000BDFAFB88B8681946012202F0AFFA1837C0
:100A7000BD4680BD80B58AB002AF78600B46FB7082
:100A8000454A07F11003106818600023FB77FB78D4
:100A9000032B00D97CE0FB787A6813441B79BB7781
:100AA000BB7F3E4A52F823301B68BB61BB7F3B4A89
:100AB00052F823309B88FB82FB8AB86919460022D2
:100AC00002F084FA7B681868FB7F07F11002D118E6
:100AD00007F114024FF0FF330093012304F07EFA74
:100AE0000346FB73642002F089FFFB7BFB7F01332D
:100AF000FB777B681868FB7F07F11002D11807F1BC
:100B000014024FF0FF330093012304F067FA034609
:100B1000FB73642002F072FFFB7BFB7F0133FB77EA
:100B20007B681868FB7F07F11002D11807F11402E7
:100B30004FF0FF330093012304F050FA0346FB7398
:100B4000642002F05BFFFB7BFB7F0133FB777B685C
:100B50001868FB7F07F11002D11807F114024FF05B
:100B6000FF330093012304F039FA0346FB73FB7B48
:100B7000FB8AB8691946012202F028FA642002F0C3
:100B80003DFFFB8A7868B9691A46FFF741FF00BF4D
:100B90002037BD4680BD00BFB8600008400000207F
:100BA00080B588B002AFF860B9601346FB800823B7
:100BB0003B7500237B750023FB75FB6880221A764A
:100BC000FB88B8681946002202F000FA21E0FB68B1
:100BD000186807F1140107F116020123009301239D
:100BE00004F0FCF9FB681868FB6803F1180207F1D0
:100BF0001403591C01230093012304F0EFF9FB684F
:100C00001B7E23F07F03DAB2FB681A76FB7D01338B
:100C1000FB75FB681B7E002B02D0FB7D042BD6D915
:100C2000FB88B8681946012202F0D0F91837BD4692
:100C300080BD00BF80B58CB002AF78600B46FB7002
:100C40001346BB700023FB840023BB8438233B7412
:100C500000237B743A7CBB781344DBB23B74FB7893
:100C60007A6813441B7987F8233097F823304A4A6F
:100C700052F823301B68FB6197F82330464A52F83C
:100C800023309B887B83FB7803F00103DBB25B009E
:100C9000DAB2BB7813447B767B8B7868F9691A46A5
:100CA000FFF77EFF7B8BF8691946002202F08EF970
:100CB0007B68186807F1100107F10C02012300930B
:100CC000012304F08BF90346FB72FB7A7B681868FA
:100CD00007F11003591C07F10C035A1C0123009360
:100CE000012304F07BF90346FB72FB7A7B681868EA
:100CF00007F11003591C07F10C0201230093012393
:100D000004F06CF90346FB72FB7A7B8BF869194699
:100D1000012202F05BF93B7B9BB21B029AB27B7B08
:100D20009BB21344FB82FB78012B19D87A7E7B6837
:100D3000043233F81230BB82FA8ABB8AD31A174ABC
:100D400082FB03121211DB17D31A9AB2BB8A134427
:100D5000BB827A7E7B680432B98A23F8121018E0CD
:100D60007A7E7B68083233F81230BB82FA8ABB8AFB
:100D7000D31A0A4A82FB03121211DB17D31A9AB252
:100D8000BB8A1344BB827A7E7B680832B98A23F817
:100D900012102837BD4680BD400000201F85EB5152
:100DA00080B582B000AF3B23BB711D4B1D4A1A605A
:100DB0001B4B1D4A5A601A4B00229A60184B0022A6
:100DC000DA60174B4FF480421A61154B00225A61CA
:100DD000134B00229A61124B0022DA61104B002261
:100DE0001A620F4804F022FB0346002B01D000F0EA
:100DF000B1F90023FB7109E0FA79BB79591CB9718B
:100E00000A490A445370FB790133FB71FB79052BC6
:100E1000F2D9064BD0221A700837BD4680BD00BFFC
:100E20004040002000580040A0860100F83F00200C
:100E300080B586B000AF00237B603C4A3B4B5B6CC7
:100E400043F480735364394B5B6C03F480737B60B1
:100E50007B6812200021002202F03EFD122002F0E9
:100E600057FD334B334A1A60314B00225A60304BE6
:100E700000229A602E4B01221A612D4B01229A61A9
:100E80002B4B00221A622A4B00225A62284B002266
:100E9000DA62274B00229A62254B0022DA60244B4B
:100EA0000422DA61224B01221A63214B00225A618B
:100EB0001F4804F09BFB0D23BB600423FB6007234A
:100EC0003B6100237B6107F108031948194604F0D0
:100ED00003FE0E23BB600123FB6007233B6100235D
:100EE0007B6107F108031248194604F0F5FD0F2352
:100EF000BB600223FB6007233B6100237B6107F19A
:100F000008030B48194604F0E7FD0823BB600323E0
:100F1000FB6007233B6100237B6107F10803044862
:100F2000194604F0D9FD1837BD4680BD003802408F
:100F3000883F00200020014080B582B000AF002330
:100F40007B60244A234B1B6B43F480031363214BC8
:100F50001B6B03F480037B607B681F4B1F4A1A6086
:100F60001D4B00225A601C4B00229A601A4B4FF412
:100F700080621A61184B4FF480525A61164B4FF43D
:100F800080429A61144B4FF48072DA61124B4FF435
:100F900000321A62104B00225A620F4B01229A62F1
:100FA0000D4B0022DA620C4B00221A630A4802F051
:100FB00037F80B4B084A9A63074B094A9A633C205F
:100FC0000021002202F088FC3C2002F0A1FC08373E
:100FD000BD4680BD00380240C83E0020706402401B
:100FE000883F002080B485B000AF78600023FB60AC
:100FF0000BE00A4AFB6852F8233099B2084AFB68B2
:1010000022F81310FB680133FB60FB68032BF0DD53
:101010001437BD465DF8047B704700BF2C400020AC
:10102000F03F002080B483B000AF78600C37BD463D
:101030005DF8047B704700BF80B500AF014802F047
:1010400001F980BDC83E002080B500AF014804F022
:1010500011FB80BD883F002080B500AFFFF76CFF1B
:1010600002480349042204F045FC80BD883F00206B
:101070002C40002080B500AF174B184A1A60164B61
:1010800002225A60144B00229A60134B4FF04072B8
:10109000DA60114B4FF400221A610F4B4FF4A0029B
:1010A0005A610D4B00221A760B4B01225A760A4BDD
:1010B00000229A76084B0022DA76074B01221A7733
:1010C000054B01225A77044800F008FD0346002B27
:1010D00001D000F03FF880BDA03E00200064004039
:1010E00080B485B000AFF860B9607A60064AFB68EA
:1010F0005360054ABB685361034A7B681360143729
:10110000BD465DF8047B70471040002080B582B07A
:1011100000AF78600448796800F034FF0346184651
:101120000837BD4680BD00BFA03E002080B582B01C
:1011300000AF7860044B1A687B680448044900F0EB
:1011400051FE0837BD4680BD10400020A03E002063
:101150001440002080B500AF4FF47A7002F04EFCCE
:10116000FAE700BF80B584B000AF786003F07AFE84
:101170000346FB6007F10C031846022103F0B4FE9E
:10118000144800210022FFF755FD124801210022DA
:10119000FFF750FD0F4800210122FFF74BFD0D48DE
:1011A00001210122FFF746FD0A4802210022FFF734
:1011B00041FD084803210022FFF73CFD05480221BC
:1011C0000122FFF737FD034803210122FFF732FD1B
:1011D000D0E700BFD43F002080B584B000AF786076
:1011E00003F040FE0346FB6007F10C0318460221A2
:1011F00003F07AFE144800210022FFF71BFD12487D
:1012000001210022FFF716FD0F4800210122FFF700
:1012100011FD0D4801210122FFF70CFD0A480221B2
:101220000022FFF707FD084803210022FFF702FD17
:10123000054802210122FFF7FDFC0348032101229A
:10124000FFF7F8FCD0E700BF383E002080B58CB037
:1012500000AF78604C4BFB624C4800F03BFD4B48C4
:1012600000F07EFD07F10C03BB6200237B610023CD
:10127000BB6140F2FF63FB600823FB61002387F83A
:10128000273003F0EFFD0346BB6007F10803184663
:10129000192103F029FE3E481021002201F096FE9C
:1012A0000120FFF733FF0346002B26D1394B1B7873
:1012B000002B02D0012B10D01FE040F2F760082174
:1012C000354AFFF70DFF0120FFF730FF314B1B7848
:1012D0000133DAB22F4B1A700FE04FF4DF600821B0
:1012E0002E4AFFF7FDFE0120FFF720FF294B1B7858
:1012F000013BDAB2274B1A7000BF0220FFF706FF4E
:101300000346002B26D1264B1B78002B02D0012B45
:1013100010D01FE040F2F9600821224AFFF7E0FEFA
:101320000220FFF703FF1E4B1B780133DAB21C4B80
:101330001A700FE040F2FA6008211B4AFFF7D0FE56
:101340000220FFF7F3FE164B1B78013BDAB2144B79
:101350001A7000BF0420FFF7D9FE0346002B0DD101
:10136000124B1B78002B09D140F2FB600821064A82
:10137000FFF7B6FE0420FFF7D9FE00BF0448102196
:10138000012201F023FE80E7F03F0020A03E002074
:10139000000402408C000020DC3F0020E43F0020DD
:1013A0008D000020403E0020483E00208E0000209E
:1013B000B0B59AB000AF02F0E1FA052002F01EFBD2
:1013C00000F0D2F8052002F019FBFFF701FA052022
:1013D00002F014FBFFF7E4FC052002F00FFBFFF71F
:1013E00049FE052002F00AFBFFF722FD052002F06E
:1013F00005FBFFF731FE052002F000FB0220FFF79E
:1014000033FA0A2002F0FAFA0320FFF72DFA0A2035
:1014100002F0F4FA45480021FFF72CFB012002F00E
:10142000EDFA42480121FFF725FB012002F0E6FA20
:101430003E480221FFF71EFB012002F0DFFA3B4885
:101440000321FFF717FB012002F0D8FA38480021EA
:10145000FFF710FB012002F0D1FA35480121FFF718
:1014600009FB012002F0CAFA31480221FFF702FB12
:10147000012002F0C3FA2E480321FFF7FBFA0120F6
:1014800002F0BCFA10237B650123BB650023FB65DA
:1014900000233B6607F154032648194601F000FC7F
:1014A000254B07F140041D460FCD0FC42B68236068
:1014B00007F140031846002103F0E4FC02461F4BED
:1014C0001A601F4B07F12C041D460FCD0FC42B686B
:1014D000236007F12C031846002103F0D3FC0246D9
:1014E000184B1A60184B07F118041D460FCD0FC496
:1014F0002B68236007F118031846002103F0C2FC93
:101500000246124B1A60124B3C1D1D460FCD0FC4F4
:101510002B6823603B1D1846002103F0B3FC0246F4
:101520000C4B1A6003F096FCFEE700BFD43F00208E
:10153000383E002000040240C8600008DC3D002066
:10154000EC600008D03F00200C610008803F0020C4
:101550002C6100083C40002080B584B000AF78606A
:1015600003F080FCF860FEE780B594B000AF002384
:10157000BB602D4A2C4B1B6C43F0805313642A4BE9
:101580001B6C03F08053BB60BB6800237B60274A61
:10159000264B1B6843F480431360244B1B6803F401
:1015A00080437B607B6802233B620123FB62102344
:1015B0003B630023BB6307F12003184600F046FF9E
:1015C0000346002B03D01A48E52100F045F80F230D
:1015D000FB6000233B6100237B610023BB61002390
:1015E000FB6107F10C031846002101F06DF9034679
:1015F000002B03D00E48F32100F02EF801F0ECFA96
:1016000002460C4BA3FB02239B09184602F08EF9FD
:10161000042002F097F94FF0FF300F21002202F072
:101620005BF95037BD4680BD003802400070004075
:1016300040610008D34D621080B582B000AF786081
:101640007B681B68034A934201D102F0B9F908375D
:10165000BD4680BD0000014080B588B000AF786015
:1016600039604FF48073FB6001233B6100237B6191
:101670000023BB6107F10C030648194601F010FB7B
:1016800004484FF4807101F0B9FC4FF4FA6002F0A5
:10169000B5F9F5E70004024080B400AFBD465DF83F
:1016A000047B704780B400AFFEE700BF80B400AF9A
:1016B000FEE700BF80B400AFFEE700BF80B400AF1C
:1016C000FEE700BF80B400AFBD465DF8047B704705
:1016D00080B500AF03F0FEFB80BD00BF80B500AF5A
:1016E000014800F0C7FC80BD9840002080B582B062
:1016F00000AF00237B60254A244B5B6C43F480439E
:101700005364224B5B6C03F480437B607B68002353
:101710003B601E4A1D4B1B6C43F0805313641B4BF4
:101720001B6C03F080533B603B68032002F0CAF857
:101730006FF00B000021002202F0CEF86FF00A00DB
:101740000021002202F0C8F86FF0090000210022F9
:1017500002F0C2F86FF004000021002202F0BCF891
:101760006FF003000021002202F0B6F86FF00100D4
:101770000F21002202F0B0F84FF0FF300F210022BD
:1017800002F0AAF80837BD4680BD00BF003802400D
:1017900080B588B000AF78607B681B68124A9342BE
:1017A0001ED10023BB60114A104B1B6C43F0007329
:1017B00013640E4B1B6C03F00073BB60BB684FF4EB
:1017C000C053FB6002233B6100237B610323BB61A9
:1017D0000923FB6107F10C030548194601F060FA83
:1017E0002037BD4680BD00BF006400400038024085
:1017F0000000024080B588B000AF78607B681B684D
:10180000124A93421ED14FF44063FB6012233B61A6
:1018100000237B610323BB610423FB6107F10C03FD
:101820000B48194601F03CFA0023BB60094A094BFA
:101830001B6C43F480031364064B1B6C03F480039E
:10184000BB60BB682037BD4680BD00BF005800406C
:10185000000402400038024080B58AB000AF7860D2
:101860007B681B68564A934258D100233B61554A16
:10187000544B1B6C43F400431364524B1B6C03F436
:1018800000433B613B694FF4E0537B610223BB6142
:101890000123FB6100233B6206237B6207F11403F3
:1018A0004948194601F0FCF910237B610123BB6113
:1018B0000023FB6100233B6207F1140343481946F0
:1018C00001F0EEF941481021012201F07FFB0223D3
:1018D0007B610123BB610023FB6100233B6207F1B5
:1018E00014033B48194601F0DBF939480221012273
:1018F00001F06CFB0C237B610123BB610023FB61C6
:1019000000233B6207F114033048194601F0C8F97F
:101910002E480C21012201F059FB4DE07B681B6829
:101920002C4A934248D10023FB60264A254B1B6C6E
:1019300043F480431364234B1B6C03F48043FB602C
:10194000FB684FF460437B610223BB610123FB61B1
:1019500000233B6205237B6207F114031C481946F0
:1019600001F09EF94FF420737B610123BB610023DA
:10197000FB6100233B6207F114031348194601F091
:101980008FF911484FF42071012201F01FFB4FF431
:10199000A0737B610123BB610023FB6100233B62D9
:1019A00007F114030848194601F07AF906484FF484
:1019B000A071012201F00AFB2837BD4680BD00BF9F
:1019C000003C004000380240000802400000024095
:1019D000000402400038004080B588B000AF786055
:1019E0007B681B680E4A934217D13823FB600323A0
:1019F0003B6100237B6107F10C030A48194601F0A3
:101A00004FF90123FB6003233B6100237B6107F156
:101A10000C030548194601F043F92037BD4680BD47
:101A200000200140000802400004024080B58CB054
:101A300000AF78600023FB620023BB621920796845
:101A4000002201F049FF192001F062FF0023FB6032
:101A50001E4A1E4B5B6C43F0010353641B4B5B6CD3
:101A600003F00103FB60FB6807F1140207F11003A8
:101A70001046194601F0E4F801F0CEF8F862FB6A6E
:101A8000134AA2FB03239B0C013BBB62114B124A7E
:101A90001A60104B40F2E732DA600E4ABB6A5360BC
:101AA0000C4B00221A610B4B00229A60094800F08F
:101AB0008FFA0346002B04D1064800F0BFFA034614
:101AC00000E0012318463037BD4680BD0038024093
:101AD00083DE1B43984000200000014080B584B0A5
:101AE00000AF78600023FB607B68002B01D10123ED
:101AF000ECE07B6893F82030DBB2002B02D17868F1
:101B0000FFF746FE7B681B687A681268126822F04D
:101B100002021A6001F066FFF86012E001F062FF55
:101B20000246FB68D31A0A2B0BD97B685B6A43F425
:101B300000327B685A627B68052283F820200123EB
:101B4000C4E07B681B685B6803F00203002BE5D1EF
:101B50007B681B687A681268126842F001021A609A
:101B600001F040FFF86012E001F03CFF0246FB6824
:101B7000D31A0A2B0BD97B685B6A43F400327B686B
:101B80005A627B68052283F8202001239EE07B684F
:101B90001B685B6803F00103002BE5D07B681B7EAC
:101BA000012B08D17B681B687A681268126842F0C2
:101BB00080021A6007E07B681B687A681268126806
:101BC00022F080021A607B685B7E012B08D17B6863
:101BD0001B687A681268126842F040021A6007E0D7
:101BE0007B681B687A681268126822F040021A60EB
:101BF0007B689B7E012B08D17B681B687A68126822
:101C0000126842F020021A6007E07B681B687A685D
:101C10001268126822F020021A607B68DB7E012BBA
:101C200008D17B681B687A681268126822F010027B
:101C30001A6007E07B681B687A681268126842F0D5
:101C400010021A607B681B7F012B08D17B681B6820
:101C50007A681268126842F008021A6007E07B682E
:101C60001B687A681268126822F008021A607B68A2
:101C70005B7F012B08D17B681B687A681268126849
:101C800042F004021A6007E07B681B687A681268F9
:101C9000126822F004021A607B681B687A689168F7
:101CA0007A68D26811437A68126911437A68526976
:101CB00011437A685268013A0A43DA617B6800226C
:101CC0005A627B68012283F82020002318461037CF
:101CD000BD4680BD80B584B000AF78600023FB6056
:101CE0007B6893F82030DBB2012B2ED17B68022277
:101CF00083F820207B681B687A681268126822F0DB
:101D000001021A6001F06EFEF86012E001F06AFE56
:101D10000246FB68D31A0A2B0BD97B685B6A43F433
:101D200000327B685A627B68052283F820200123F9
:101D300012E07B681B685B6803F00103002BE5D1B0
:101D40007B6800225A62002306E07B685B6A43F4EA
:101D500000227B685A62012318461037BD4680BDB9
:101D600080B485B000AF78600023BB601C4BFB6083
:101D70007B6893F82030DBB2012B05D07B6893F8A9
:101D80002030DBB2022B1ED17B681B687A68126898
:101D9000126822F002021A60BB680133BB60FA6865
:101DA000934207D97B685B6A43F400327B685A62CE
:101DB00001230FE07B681B685B6803F00203002BC4
:101DC000EAD1002306E07B685B6A43F480227B68EB
:101DD0005A62012318461437BD465DF8047B7047EC
:101DE00040420F0080B487B000AFF860B9607A60FD
:101DF0003B60FB6893F82030DBB2012B06D0FB6818
:101E000093F82030DBB2022B40F0AE80FB681B68F9
:101E10009B6803F08063002B0ED1FB681B689B68F6
:101E200003F00063002B07D1FB681B689B6803F07D
:101E30008053002B00F09080FB681B689B6803F0C8
:101E400040731B0E7B617B6901229A403B681A60DC
:101E5000BB689B68002B0DD1FB681968BB681B68C9
:101E60005A05BB68DB681A437B6918331B010B44B6
:101E70001A600FE0FB681968BB685B68DA00BB6832
:101E80009B681A43BB68DB681A437B6918331B01E4
:101E90000B441A60FB681968BB681A697B691833C0
:101EA0001B010B445A60BB681B7D012B0FD1FB68E3
:101EB0001968FB681A687B6918331B0113445B6857
:101EC00043F480727B6918331B010B445A60FB6832
:101ED00019687B6807331B781A067B6806331B7802
:101EE0001B041A437B6805331B781B0213437A6873
:101EF000043212781A437B691B010B4403F5C47347
:101F00005A60FB6819687B6803331B781A067B6884
:101F100002331B781B041A437B6801331B781B02B6
:101F200013437A6812781A437B691B010B4403F54B
:101F3000C4731A60FB681968FB681A687B691833F8
:101F40001B0113441B6843F001027B6918331B011A
:101F50000B441A6000230EE0FB685B6A43F4001236
:101F6000FB685A62012306E0FB685B6A43F4802247
:101F7000FB685A62012318461C37BD465DF8047B96
:101F8000704700BF80B485B000AF7860396000232F
:101F9000FB607B6893F82030DBB2012B05D07B68B7
:101FA00093F82030DBB2022B0BD17B681B689A6858
:101FB0003B689B061A403B689B069A4201D001236E
:101FC000FB60FB6818461437BD465DF8047B70471C
:101FD00080B582B000AF78607B68002B01D101230F
:101FE0001DE07B6893F83930DBB2002B06D17B68AB
:101FF000002283F83820786800F016F87B68022207
:1020000083F839207B681A687B68043310461946C8
:1020100000F060F97B68012283F83920002318461C
:102020000837BD4680BD00BF80B483B000AF786084
:102030000C37BD465DF8047B704700BF80B483B0A9
:1020400000AF78607B681B687A681268D26842F0DB
:102050000102DA607B681B687A681268126842F0D5
:1020600001021A60002318460C37BD465DF8047B58
:10207000704700BF80B582B000AF78607B681B6896
:102080001B6903F00203002B22D07B681B68DB680E
:1020900003F00203002B1BD07B681B686FF0020269
:1020A0001A617B6801221A767B681B689B6903F0C2
:1020B0000303002B03D0786800F0EEF805E07868A1
:1020C00000F0E0F8786800F0F1F87B6800221A76FA
:1020D0007B681B681B6903F00403002B22D07B681C
:1020E0001B68DB6803F00403002B1BD07B681B68B4
:1020F0006FF004021A617B6802221A767B681B6803
:102100009B6903F44073002B03D0786800F0C4F897
:1021100005E0786800F0B6F8786800F0C7F87B68EA
:1021200000221A767B681B681B6903F00803002BEA
:1021300022D07B681B68DB6803F00803002B1BD0F0
:102140007B681B686FF008021A617B6804221A76AC
:102150007B681B68DB6903F00303002B03D07868FE
:1021600000F09AF805E0786800F08CF8786800F0E4
:102170009DF87B6800221A767B681B681B6903F058
:102180001003002B22D07B681B68DB6803F0100370
:10219000002B1BD07B681B686FF010021A617B68F4
:1021A00008221A767B681B68DB6903F44073002BF6
:1021B00003D0786800F070F805E0786800F062F805
:1021C000786800F073F87B6800221A767B681B68D9
:1021D0001B6903F00103002B0ED07B681B68DB68D2
:1021E00003F00103002B07D07B681B686FF001022E
:1021F0001A617868FFF720FA7B681B681B6903F097
:102200008003002B0ED07B681B68DB6803F0800323
:10221000002B07D07B681B686FF080021A6178681A
:1022200000F00AF97B681B681B6903F04003002B70
:102230000ED07B681B68DB6803F04003002B07D0DF
:102240007B681B686FF040021A61786800F038F80C
:102250007B681B681B6903F02003002B0ED07B6892
:102260001B68DB6803F02003002B07D07B681B682A
:102270006FF020021A61786800F0D4F80837BD4684
:1022800080BD00BF80B483B000AF78600C37BD461E
:102290005DF8047B704700BF80B483B000AF786006
:1022A0000C37BD465DF8047B704700BF80B483B037
:1022B00000AF78600C37BD465DF8047B704700BF07
:1022C00080B483B000AF78600C37BD465DF8047B06
:1022D000704700BF80B485B000AF786039600023DC
:1022E000FB607B681B68FB607B68434A934213D0AA
:1022F0007B68B3F1804F0FD07B68404A93420BD08C
:102300007B683F4A934207D07B683E4A934203D0A2
:102310007B683D4A934201D1012300E00023002B5A
:1023200008D0FB6823F07003FB603B685B68FA68C9
:102330001343FB607B68304A93422BD07B68B3F138
:10234000804F27D07B682D4A934223D07B682C4A4C
:1023500093421FD07B682B4A93421BD07B682A4A4A
:10236000934217D07B68294A934213D07B68284A4E
:1023700093420FD07B68274A93420BD07B68264A52
:10238000934207D07B68254A934203D07B68244A56
:10239000934201D1012300E00023002B08D0FB6809
:1023A00023F44073FB603B68DB68FA681343FB600F
:1023B0007B68FA681A603B689A687B68DA623B68F7
:1023C0001A687B689A627B680B4A934203D07B68E9
:1023D0000D4A934201D1012300E00023002B03D0DA
:1023E0003B681A697B681A637B6801225A6114375B
:1023F000BD465DF8047B70470000014000040040CA
:1024000000080040000C0040000401400040014072
:10241000004401400048014000180040001C0040FA
:102420000020004080B483B000AF78600C37BD4618
:102430005DF8047B704700BF80B483B000AF786064
:102440000C37BD465DF8047B704700BF80B586B091
:1024500000AF78607B68002B01D101232AE27B6802
:102460001B6803F00103002B73D0A64B9B6803F09D
:102470000C03042B0BD0A34B9B6803F00C03082B1D
:1024800012D1A04B5B6803F48003002B0CD09D4B52
:102490001B6803F40033002B05D07B685B68002BBE
:1024A00001D1012306E254E07B685B68B3F5803F0D
:1024B00006D1944A934B1B6843F4803313601DE0AC
:1024C0007B685B68B3F5A02F0CD18E4A8D4B1B68DF
:1024D00043F4802313608B4A8A4B1B6843F4803398
:1024E00013600BE0874A874B1B6823F4803313602B
:1024F000844A844B1B6823F4802313607B685B68E9
:10250000002B13D001F06EFA386108E001F06AFA8E
:1025100002463B69D31A642B01D90323CAE1794BE4
:102520001B6803F40033002BF0D012E001F05AFADC
:10253000386108E001F056FA02463B69D31A642B71
:1025400001D90323B6E16F4B1B6803F40033002B62
:10255000F0D17B681B6803F00203002B63D0694B4A
:102560009B6803F00C03002B0BD0664B9B6803F0B9
:102570000C03082B1CD1634B5B6803F48003002B16
:1025800016D1604B1B6803F00203002B05D07B685B
:10259000DB68012B01D001238CE15A49594B1B68A0
:1025A00023F0F8027B681B69DB0013430B603AE001
:1025B0007B68DB68002B20D0534B01221A6001F0AE
:1025C00011FA386108E001F00DFA02463B69D31AAE
:1025D000022B01D903236DE14A4B1B6803F0020370
:1025E000002BF0D04749474B1B6823F0F8027B686B
:1025F0001B69DB0013430B6015E0434B00221A609C
:1026000001F0F0F9386108E001F0ECF902463B69AD
:10261000D31A022B01D903234CE13A4B1B6803F078
:102620000203002BF0D17B681B6803F00803002B2A
:1026300030D07B685B69002B16D0344B01221A60C6
:1026400001F0D0F9386108E001F0CCF902463B69AD
:10265000D31A022B01D903232CE12A4B5B6F03F021
:102660000203002BF0D015E0284B00221A6001F085
:10267000B9F9386108E001F0B5F902463B69D31AAF
:10268000022B01D9032315E11E4B5B6F03F00203FC
:10269000002BF0D17B681B6803F00403002B00F0D3
:1026A0009F800023FB75174B1B6C03F08053002B9E
:1026B0000FD10023FB60134A124B1B6C43F0805375
:1026C0001364104B1B6C03F08053FB60FB68012309
:1026D000FB750F4B1B6803F48073002B20D10C4A51
:1026E0000B4B1B6843F48073136001F07BF9386176
:1026F00010E001F077F902463B69D31A022B09D9A1
:102700000323D7E00038024000004742800E4742D2
:1027100000700040694B1B6803F48073002BE8D005
:102720007B689B68012B06D1654A654B1B6F43F0A4
:10273000010313671CE07B689B68052B0CD1604A82
:102740005F4B1B6F43F0040313675D4A5C4B1B6FC9
:1027500043F0010313670BE0594A594B1B6F23F0F9
:1027600001031367564A564B1B6F23F0040313678C
:102770007B689B68002B15D001F034F938610AE0C2
:1027800001F030F902463B69D31A41F28832934294
:1027900001D903238EE04A4B1B6F03F00203002B89
:1027A000EED014E001F01EF938610AE001F01AF9E8
:1027B00002463B69D31A41F28832934201D903237E
:1027C00078E03F4B1B6F03F00203002BEED1FB7D43
:1027D000012B05D13A4A3A4B1B6C23F0805313640A
:1027E0007B689B69002B64D0354B9B6803F00C031E
:1027F000082B5CD07B689B69022B41D1314B0022B6
:102800001A6001F0EFF8386108E001F0EBF80246D9
:102810003B69D31A022B01D903234BE0284B1B68D9
:1028200003F00073002BF0D125497B68DA697B68DF
:102830001B6A1A437B685B6A9B011A437B689B6A2D
:102840005B08013B1B041A437B68DB6A1B061343CE
:102850004B601C4B01221A6001F0C4F8386108E09B
:1028600001F0C0F802463B69D31A022B01D90323B9
:1028700020E0134B1B6803F00073002BF0D018E02E
:10288000104B00221A6001F0ADF8386108E001F049
:10289000A9F802463B69D31A022B01D9032309E0A8
:1028A000074B1B6803F00073002BF0D101E00123FC
:1028B00000E0002318461837BD4680BD0070004078
:1028C000003802406000474280B584B000AF7860B5
:1028D00039607B68002B01D10123CBE0674B1B687B
:1028E00003F00F023B689A420CD2644B3A68D2B2B2
:1028F0001A70624B1B6803F00F023B689A4201D0CA
:102900000123B7E07B681B6803F00203002B20D093
:102910007B681B6803F00403002B05D0584A584B12
:102920009B6843F4E05393607B681B6803F00803E3
:10293000002B05D0524A524B9B6843F4604393608E
:102940004F494F4B9B6823F0F0027B689B68134311
:102950008B607B681B6803F00103002B45D07B680C
:102960005B68012B07D1464B1B6803F40033002B37
:102970001AD101237EE07B685B68022B03D07B6861
:102980005B68032B08D13E4B1B6803F00073002BE0
:1029900001D101236EE007E0394B1B6803F002030D
:1029A000002B01D1012365E03549354B9B6823F0AD
:1029B00003027B685B6813438B6001F013F8F860D7
:1029C0000AE001F00FF80246FB68D31A41F28832A0
:1029D000934201D903234DE0294B9B6803F00C027D
:1029E0007B685B689B009A42EBD1244B1B6803F029
:1029F0000F023B689A420CD9204B3A68D2B21A7047
:102A00001E4B1B6803F00F023B689A4201D0012362
:102A100030E07B681B6803F00403002B08D01849E2
:102A2000174B9B6823F4E0527B68DB6813438B6091
:102A30007B681B6803F00803002B09D01049104B7A
:102A40009B6823F460427B681B69DB0013438B6047
:102A500000F01CF801460A4B9B6803F0F0031B09C9
:102A6000084AD35C21FA03F3074A13600020FEF7FB
:102A7000DDFF002318461037BD4680BD003C0240F4
:102A8000003802405C610008640000202DE9B04F6E
:102A900086B000AF0024FC6000247C610024BC6090
:102AA00000243C61494CA46804F00C04042C06D0BA
:102AB000082C07D0002C7FD1454B3B617FE0454B74
:102AC0003B617CE0414C646804F03F04FC603F4C97
:102AD000646804F48004002C23D03C4B5A6847F609
:102AE000C07313409B091A464FF00003394901FB9C
:102AF00003F0002101FB02F101443648A2FB002350
:102B000019440B46F9680C464FF00005104619466B
:102B100022462B46FDF78EFB02460B4613467B6191
:102B20003CE02A4C656847F6C0742C40A409A046D6
:102B30004FF0000944464D464FEAC50B4BEA547B23
:102B40004FEAC40A54465D46690141EAD461600116
:102B5000001B61EB05018B0143EA90638201121AAD
:102B600063EB010318EB020849EB030942464B46AD
:102B700099027960796841EA9251796093023B60E9
:102B8000D7E9002310461946FB681A464FF00003A8
:102B9000FDF750FB02460B4613467B610B4B5B680F
:102BA00003F440331B0C01335B00BB607A69BB68E4
:102BB000B2FBF3F33B6102E0054B3B6100BF3B69B5
:102BC00018461837BD46BDE8B08F00BF0038024038
:102BD0000024F40040787D0180B400AF034B1B68F3
:102BE0001846BD465DF8047B704700BF64000020B6
:102BF00080B500AFFFF7F0FF0146054B9B6803F47B
:102C0000E0539B0A034AD35C21FA03F3184680BDC4
:102C1000003802406C61000880B500AFFFF7DCFFB0
:102C20000146054B9B6803F460435B0B034AD35C8E
:102C300021FA03F3184680BD003802406C61000899
:102C400080B483B000AF786039607B680F221A606F
:102C5000114B9B6803F003027B685A600E4B9B6824
:102C600003F0F0027B689A600B4B9B6803F4E05220
:102C70007B68DA60084B9B6803F46043DA087B6882
:102C80001A61064B1B6803F00F023B681A600C3791
:102C9000BD465DF8047B704700380240003C0240AE
:102CA00080B489B000AF7860396000237B61002375
:102CB0003B610023BB610023FB6167E1FB690122EB
:102CC00002FA03F37B613B681A687B6913403B613E
:102CD0003A697B699A4240F056813B685B68022BF7
:102CE00003D03B685B68122B22D1FB69DA087B6852
:102CF000083253F82230BB61FB6903F007039B00E5
:102D00001A460F239340DB43BA691340BB613B680B
:102D10001B69FA6902F0070292009340BA691343F3
:102D2000BB61FB69DA087B680832B96943F8221095
:102D30007B681B68BB61FB695B001A4603239340F9
:102D4000DB43BA691340BB613B685B6803F0030374
:102D5000FA6952009340BA691343BB617B68BA6950
:102D60001A603B685B68012B0BD03B685B68022BE9
:102D700007D03B685B68112B03D03B685B68122B64
:102D80002FD17B689B68BB61FB695B001A460323FC
:102D90009340DB43BA691340BB613B68DB68FA6967
:102DA00052009340BA691343BB617B68BA699A6069
:102DB0007B685B68BB61FB69012202FA03F3DB43BA
:102DC000BA691340BB613B685B6803F010031A09E2
:102DD000FB6902FA03F3BA691343BB617B68BA6902
:102DE0005A607B68DB68BB61FB695B001A460323A2
:102DF0009340DB43BA691340BB613B689B68FA6947
:102E000052009340BA691343BB617B68BA69DA60C8
:102E10003B685B6803F08053002B00F0B480002314
:102E2000FB605F4A5E4B5B6C43F4804353645C4BD6
:102E30005B6C03F48043FB60FB685A4AFB699B08A8
:102E4000023352F82330BB61FB6903F003039B009C
:102E50001A460F239340DB43BA691340BB617B687A
:102E6000514A93422BD07B68504A934225D07B68CD
:102E70004F4A93421FD07B684E4A934219D07B68D9
:102E80004D4A934213D07B684C4A93420DD07B68E5
:102E90004B4A934207D07B684A4A934201D10723A9
:102EA0000EE008230CE006230AE0052308E00423D3
:102EB00006E0032304E0022302E0012300E00023F4
:102EC000FA6902F0030292009340BA691343BB61AE
:102ED0003449FB699B080233BA6941F823203A4B15
:102EE0001B68BB613B69DB43BA691340BB613B684C
:102EF0005B6803F48033002B03D0BA693B6913434A
:102F0000BB61314ABB6913602F4B5B68BB613B6996
:102F1000DB43BA691340BB613B685B6803F4003371
:102F2000002B03D0BA693B691343BB61264ABB69D6
:102F30005360254B9B68BB613B69DB43BA69134017
:102F4000BB613B685B6803F48013002B03D0BA6954
:102F50003B691343BB611C4ABB6993601A4BDB6836
:102F6000BB613B69DB43BA691340BB613B685B688B
:102F700003F40013002B03D0BA693B691343BB6110
:102F8000114ABB69D360FB690133FB61FB690F2BFD
:102F90007FF694AE2437BD465DF8047B704700BFD2
:102FA00000380240003801400000024000040240A6
:102FB00000080240000C02400010024000140240D1
:102FC00000180240001C0240003C014080B483B065
:102FD00000AF78600B467B8013467B707B78002BBC
:102FE00003D07A887B689A6103E07B881A047B6847
:102FF0009A610C37BD465DF8047B704780B483B09E
:1030000000AF78600B467B807B685A697B885A40AA
:103010007B685A610C37BD465DF8047B704700BF82
:1030200080B586B000AF786000237B6100F0DAFCE9
:1030300038617B68002B01D101239BE07B68002273
:1030400083F834207B68022283F835207B681B6874
:103050007A681268126822F001021A600FE000F02C
:10306000C1FC02463B69D31A052B08D97B68202294
:103070005A657B68032283F8352003237AE07B6856
:103080001B681B6803F00103002BE8D17B681B68F9
:103090001B687B617A69394B13407B617B685A6896
:1030A0007B689B681A437B68DB681A437B681B69F3
:1030B0001A437B685B691A437B689B691A437B6888
:1030C000DB691A437B681B6A13437A6913437B618C
:1030D0007B685B6A042B07D17B68DA6A7B681B6BB1
:1030E00013437A6913437B617B681B687A691A60B2
:1030F0007B681B685B697B617B6923F007037B61ED
:103100007B685B6A7A6913437B617B685B6A042B2B
:1031100017D17B689B6A7A6913437B617B68DB6AA2
:10312000002B0ED0786800F08FFA0346002B08D0F1
:103130007B6840225A657B68012283F83520012391
:1031400018E07B681B687A695A61786800F046FA73
:103150000346FB607B68DB6D1A463F2303FA02F2ED
:10316000FB689A607B6800225A657B68012283F8BD
:103170003520002318461837BD4680BD3F8010F02B
:1031800080B586B000AFF860B9607A603B6000231C
:10319000FB75FB689B6D3B61FB6893F83430012B3A
:1031A00001D102234AE0FB68012283F83420FB6846
:1031B00093F83530DBB2012B39D1FB68022283F85A
:1031C0003520FB6800225A65F868B9687A683B6860
:1031D00000F0D6F9FB68DB6D1A463F2303FA02F2D2
:1031E0003B699A60FB681B68FA681268126842F0D3
:1031F00016021A60FB681B68FA681268526942F08E
:1032000080025A61FB681B6C002B07D0FB681B68AF
:10321000FA681268126842F008021A60FB681B68BC
:10322000FA681268126842F001021A6005E0FB6851
:10323000002283F834200223FB75FB7D18461837E3
:10324000BD4680BD80B586B000AF78600023BB600E
:10325000994B1B68994AA2FB03239B0A7B617B68FD
:103260009B6D3B613B691B68FB607B68DB6D1A46AD
:10327000082303FA02F2FB681340002B1CD07B6882
:103280001B681B6803F00403002B15D07B681B68C8
:103290007A681268126822F004021A607B68DB6D9B
:1032A0001A46082303FA02F23B699A607B685B6D59
:1032B00043F001027B685A657B68DB6D1A46012387
:1032C00003FA02F2FB681340002B14D07B681B68E2
:1032D0005B6903F08003002B0DD07B68DB6D1A4621
:1032E000012303FA02F23B699A607B685B6D43F04D
:1032F00002027B685A657B68DB6D1A46042303FA79
:1033000002F2FB681340002B14D07B681B681B681B
:1033100003F00203002B0DD07B68DB6D1A460423FB
:1033200003FA02F23B699A607B685B6D43F004022A
:103330007B685A657B68DB6D1A46102303FA02F23C
:10334000FB681340002B45D07B681B681B6803F0AB
:103350000803002B3ED07B68DB6D1A46102303FA6E
:1033600002F23B699A607B681B681B6803F4802348
:10337000002B18D07B681B681B6803F40023002B0C
:1033800008D17B681B6C002B24D07B681B6C786891
:1033900098471FE07B689B6C002B1BD07B689B6C65
:1033A0007868984716E07B681B681B6803F4807395
:1033B000002B07D17B681B687A681268126822F0BC
:1033C00008021A607B681B6C002B03D07B681B6CA7
:1033D000786898477B68DB6D1A46202303FA02F26F
:1033E000FB681340002B00F093807B681B681B6810
:1033F00003F01003002B00F08B807B68DB6D1A4616
:10340000202303FA02F23B699A607B6893F8353017
:10341000DBB2052B39D17B681B687A6812681268A9
:1034200022F016021A607B681B687A68126852697B
:1034300022F080025A617B681B6C002B03D17B68F1
:103440009B6C002B07D07B681B687A681268126837
:1034500022F008021A607B68DB6D1A463F2303FAEC
:1034600002F23B699A607B68002283F834207B6813
:10347000012283F835207B681B6D002B04D07B680C
:103480001B6D7868984777E076E07B681B681B685F
:1034900003F48023002B1CD07B681B681B6803F49B
:1034A0000023002B0CD17B685B6C002B30D07B6839
:1034B0005B6C786898472BE064000020B5814E1B58
:1034C0007B68DB6B002B23D07B68DB6B78689847CD
:1034D0001EE07B681B681B6803F48073002B0FD110
:1034E0007B681B687A681268126822F010021A6002
:1034F0007B68002283F834207B68012283F8352022
:103500007B68DB6B002B03D07B68DB6B78689847AC
:103510007B685B6D002B2FD07B685B6D03F0010334
:10352000002B21D07B68052283F835207B681B683F
:103530007A681268126822F001021A60BB680133CF
:10354000BB607A69934200D906E07B681B681B6800
:1035500003F00103002BF1D17B68002283F83420B3
:103560007B68012283F835207B68DB6C002B03D05D
:103570007B68DB6C786898471837BD4680BD00BF14
:1035800080B485B000AFF860B9607A603B60FB68DA
:103590001B68FA681268126822F480221A60FB68BD
:1035A0001B683A685A60FB689B68402B08D1FB682F
:1035B0001B687A689A60FB681B68BA68DA6007E083
:1035C000FB681B68BA689A60FB681B687A68DA60F7
:1035D0001437BD465DF8047B704700BF80B485B0EA
:1035E00000AF78607B681B68DBB2103B144AA2FB1B
:1035F00003231B09FB60134AFB6813441B781A461C
:103600007B68DA65FB68032B09D97B681B6823F4A8
:103610007F7323F003031A1D7B689A6507E07B68BC
:103620001B6823F47F7323F003037A6893657B6838
:103630009B6D18461437BD465DF8047B704700BF8C
:10364000ABAAAAAA5461000880B485B000AF786024
:103650000023FB737B689B6ABB607B689B69002BC4
:1036600023D1BB68032B1ED801A252F823F000BF60
:10367000813600089536000881360008A736000814
:103680007B68DB6A03F08073002B02D00123FB739D
:103690000AE009E07B68DB6AB3F1C07F02D1012355
:1036A000FB7301E000E000BF3DE07B689B69B3F580
:1036B000005F25D1BB68032B20D801A252F823F06C
:1036C000D1360008D7360008D1360008EB3600089E
:1036D0000123FB7313E07B68DB6A03F08073002B2C
:1036E00002D00123FB730AE009E07B68DB6AB3F1D7
:1036F000C07F02D10123FB7301E000E000BF12E0B4
:10370000BB68022B02D9032B03D00CE00123FB730F
:1037100009E07B68DB6A03F08073002B02D0012391
:10372000FB73FFE700BFFB7B18461437BD465DF80F
:10373000047B704780B485B000AF78607B6803F08D
:103740000703FB600C4BDB68BB60BA684FF6FF03F6
:103750001340BB60FB681A02BB68134343F0BF63AE
:1037600043F40033BB60044ABB68D3601437BD46E2
:103770005DF8047B704700BF00ED00E080B400AF4F
:10378000044BDB6803F4E0631B0A1846BD465DF892
:10379000047B704700ED00E080B483B000AF0346C7
:1037A000FB71084997F907305B09FA7902F01F02AB
:1037B000012000FA02F241F823200C37BD465DF8E3
:1037C000047B704700E100E080B483B000AF0346A3
:1037D0003960FB7197F90730002B0BDA0D49FB7943
:1037E00003F00F03043B3A68D2B21201D2B20B4489
:1037F0001A7609E0084997F907303A68D2B21201FF
:10380000D2B20B4483F800230C37BD465DF8047B2D
:10381000704700BF00ED00E000E100E080B489B037
:1038200000AFF860B9607A60FB6803F00703FB61E2
:10383000FB69C3F10703042B28BF0423BB61FB69A9
:103840000433062B02D9FB69033B00E000237B61B4
:10385000BB69012202FA03F35A1EBB681A407B6956
:103860009A407B69012101FA03F3591E7B680B40E2
:10387000134318462437BD465DF8047B704700BFEC
:1038800080B582B000AF78607B68013BB3F1807F88
:1038900001D301230FE00A4A7B68013B53604FF0DC
:1038A000FF300F21FFF790FF054B00229A60044B79
:1038B00007221A60002318460837BD4680BD00BFA6
:1038C00010E000E080B582B000AF78607868FFF764
:1038D00031FF0837BD4680BD80B586B000AF0346D6
:1038E000B9607A60FB7300237B61FFF747FF786163
:1038F0007869B9687A68FFF791FF024697F90F3047
:1039000018461146FFF760FF1837BD4680BD00BF5F
:1039100080B582B000AF0346FB7197F907301846B7
:10392000FFF73AFF0837BD4680BD00BF80B582B0C3
:1039300000AF78607868FFF7A3FF034618460837A2
:10394000BD4680BD80B483B000AF78607B68042B37
:1039500006D1094A084B1B6843F00403136005E0D5
:10396000054A054B1B6823F0040313600C37BD4662
:103970005DF8047B704700BF10E000E080B500AF49
:103980000E4A0E4B1B6843F4007313600B4A0B4B3B
:103990001B6843F480631360084A084B1B6843F4B8
:1039A000807313600320FFF78DFF0020FEF73EF8C1
:1039B000FDF79CFE0023184680BD00BF003C02407E
:1039C00080B400AF054B1B781A46054B1B681344A7
:1039D000034A1360BD465DF8047B70476000002019
:1039E000D440002080B400AF034B1B681846BD468E
:1039F0005DF8047B704700BFD440002080B584B0E0
:103A000000AF7860FFF7EEFFB8607B68FB60FB6893
:103A1000B3F1FF3F05D0094B1B781A46FB681344EE
:103A2000FB6000BFFFF7DEFF0246BB68D21AFB68EF
:103A30009A42F7D31037BD4680BD00BF600000201A
:103A400080B400AF164A164BD3F8883043F47003A5
:103A5000C2F88830134A134B1B6843F0010313600C
:103A6000104B00229A600F4A0E4B1B6823F08473A0
:103A700023F4803313600B4B0B4A5A60094A094BFD
:103A80001B6823F480231360064B0022DA60044B8A
:103A90004FF000629A60BD465DF8047B704700BF3E
:103AA00000ED00E0003802401030002480B58AB0FC
:103AB00000AF78600023FB6100F0C4FD574B1B682A
:103AC000002B01D100F00CF9554B1A687B681340AC
:103AD000002B40F08C807B68002B1CD008227B6878
:103AE00013447B607B6803F00703002B13D07B68D3
:103AF00023F0070308337B607B6803F00703002B88
:103B000009D04FF0500383F31188BFF36F8FBFF3D9
:103B10004F8F7B61FEE77B68002B68D0414B1B68B1
:103B20007A689A4263D8404B3B623F4B1B687B628A
:103B300004E07B6A3B627B6A1B687B627B6A5A6833
:103B40007B689A4203D27B6A1B68002BF1D1334B0E
:103B50001B687A6A9A424AD03B6A1B68082213445F
:103B6000FB617B6A1A683B6A1A607B6A5A687B68E9
:103B7000D21A08235B009A421ED97A6A7B681344E2
:103B8000BB61BB6903F00703002B09D04FF0500362
:103B900083F31188BFF36F8FBFF34F8F3B61FEE755
:103BA0007B6A5A687B68D21ABB695A607B6A7A68FA
:103BB0005A60B86900F0F6F81A4B1A687B6A5B68BD
:103BC000D31A184A1360174B1A68184B1B689A428D
:103BD00003D2144B1B68154A13607B6A5A68104B5A
:103BE0001B681A437B6A5A607B6A00221A6000F0E5
:103BF00037FDFB6903F00703002B09D04FF050039A
:103C000083F31188BFF36F8FBFF34F8FFB60FEE725
:103C1000FB6918462837BD4680BD00BF983C002090
:103C2000A43C00209C3C0020903C0020A03C0020B4
:103C300080B586B000AF78607B687B617B68002BC5
:103C400046D008235B427A6913447B617B693B6100
:103C50003B695A68204B1B681340002B09D14FF079
:103C6000500383F31188BFF36F8FBFF34F8FFB6057
:103C7000FEE73B691B68002B09D04FF0500383F32C
:103C80001188BFF36F8FBFF34F8FBB60FEE73B69B7
:103C90005A68114B1B681340002B19D03B691B68F5
:103CA000002B15D13B695A680B4B1B68DB431A404C
:103CB0003B695A6000F0C6FC3B695A68074B1B68B9
:103CC0001344064A1360386900F06CF800F0C8FC31
:103CD0001837BD4680BD00BFA43C00209C3C00209E
:103CE00080B485B000AF4FF47053BB60274BFB60CE
:103CF000FB6803F00703002B0CD0FB680733FB6065
:103D0000FB6823F00703FB60BA68FB68D31A1F4AFD
:103D10001344BB60FB687B601D4A7B6813601C4BCF
:103D200000225A607A68BB681344FB600822FB6873
:103D30009B1AFB60FB6823F00703FB60FB68154AD6
:103D40001360144B1B6800225A60124B1B68002240
:103D50001A607B683B603B68FA68D21A3B685A601D
:103D60000C4B1A683B681A603B685B680A4A136030
:103D70003B685B68094A1360094B4FF000421A60C8
:103D80001437BD465DF8047B704700BF90000020EB
:103D9000903C0020983C0020A03C00209C3C00204F
:103DA000A43C002080B485B000AF7860274BFB6056
:103DB00002E0FB681B68FB60FB681A687B689A423C
:103DC000F7D3FB68BB60FB685B68BA681A447B6822
:103DD0009A4208D1FB685A687B685B681A44FB68A2
:103DE0005A60FB687B607B68BB607B685B68BA6815
:103DF0001A44FB681B689A4218D1FB681A68144B76
:103E00001B689A420DD07B685A68FB681B685B6828
:103E10001A447B685A60FB681B681A687B681A60E2
:103E200008E00B4B1A687B681A6003E0FB681A68AD
:103E30007B681A60FA687B689A4202D0FB687A68ED
:103E40001A601437BD465DF8047B7047903C002033
:103E5000983C002080B485B000AFF860B9607A600B
:103E6000FB68043BFB60FB684FF080721A60FB68E4
:103E7000043BFB60BB6823F00102FB681A60FB682F
:103E8000043BFB600C4AFB681A60FB68143BFB6058
:103E90007A68FB681A60FB68043BFB60FB686FF0A4
:103EA00002021A60FB68203BFB60FB68184614376F
:103EB000BD465DF8047B7047BD3E000880B483B00A
:103EC00000AF0C4B1B68B3F1FF3F09D04FF050031C
:103ED00083F31188BFF36F8FBFF34F8F7B60FEE7D3
:103EE0004FF0500383F31188BFF36F8FBFF34F8FF1
:103EF0003B60FEE7680000200000000000000000BA
:103F0000074B19680868B0E8F04F80F30988BFF3E1
:103F10006F8F4FF0000080F311887047AFF300807F
:103F2000B03C002006480068006880F3088862B64C
:103F300061B6BFF34F8FBFF36F8F00DF00BF00008C
:103F400008ED00E080B586B000AF3B4B1B683B4AF4
:103F5000934209D14FF0500383F31188BFF36F8F61
:103F6000BFF34F8F3B61FEE7334B1B68344A9342EC
:103F700009D14FF0500383F31188BFF36F8FBFF364
:103F80004F8FFB60FEE72F4B7B617B691B78DBB2B9
:103F9000BB607B69FF221A707B691B78DBB2FB7107
:103FA000FB79DBB203F05003DAB2274B1A70274BD0
:103FB00007221A6009E0254B1B68013B234A136066
:103FC000FB79DBB25B00DBB2FB71FB79DBB2DBB20E
:103FD0005BB2002BEFDB1D4B1B681B021B4A1360FF
:103FE0001A4B1B6803F4E063184A1360BB68DAB22B
:103FF0007B691A70164A164B1B6843F470031360F2
:10400000134A134B1B6843F07043136000F0D2F85F
:10401000104B00221A6000F0E7F80F4A0E4B1B68A5
:1040200043F040431360FFF77DFFFFF747FF002396
:1040300018461837BD4680BD00ED00E071C20F4143
:1040400070C20F4100E400E0A83C0020AC3C00201E
:1040500020ED00E06800002034EF00E080B483B081
:1040600000AF4FF0500383F31188BFF36F8FBFF39E
:104070004F8F7B600E4B1B6801330D4A13600C4B56
:104080001B68012B0ED10B4B1B68DBB2002B09D038
:104090004FF0500383F31188BFF36F8FBFF34F8F3F
:1040A0003B60FEE70C37BD465DF8047B704700BF00
:1040B0006800002004ED00E080B483B000AF104B36
:1040C0001B68002B09D14FF0500383F31188BFF315
:1040D0006F8FBFF34F8F7B60FEE7094B1B68013B7F
:1040E000074A1360064B1B68002B04D100233B607A
:1040F0003B6883F311880C37BD465DF8047B70473D
:104100006800002000000000000000000000000027
:10411000EFF30980BFF36F8F154B1A681EF0100F75
:1041200008BF20ED108A20E9F04F10604DF8043DE3
:104130004FF0500080F31188BFF34F8FBFF36F8FA4
:1041400000F00CFC4FF0000080F3118808BC1968E7
:104150000868B0E8F04F1EF0100F08BFB0EC108AEE
:1041600080F30988BFF36F8F704700BFAFF3008003
:10417000B03C002080B582B000AF4FF0500383F315
:104180001188BFF36F8FBFF34F8F7B6000F028FB68
:104190000346002B03D0064B4FF080521A600023D9
:1041A0003B603B6883F311880837BD4680BD00BF84
:1041B00004ED00E080B400AF074A084B1B680849D3
:1041C000A1FB03139B09013B1360064B07221A60F6
:1041D000BD465DF8047B704714E000E064000020F9
:1041E000D34D621010E000E0DFF80C00016841F4EC
:1041F000700101607047000088ED00E080B485B078
:1042000000AFEFF30583FB60FB680F2B13D9154A52
:10421000FB6813441B78FB72134B1B78FA7A9A42A3
:1042200009D24FF0500383F31188BFF36F8FBFF3B0
:104230004F8F7B60FEE70D4B1B6803F4E0620C4B75
:104240001B689A4209D94FF0500383F31188BFF3DA
:104250006F8FBFF34F8F3B60FEE71437BD465DF8AD
:10426000047B7047F0E300E0A83C00200CED00E088
:10427000AC3C002080B58CB004AFF860B9603B6006
:104280001346FB80FB889B001846FFF70FFC786104
:104290007B69002B0ED05420FFF708FCF861FB6906
:1042A000002B03D0FB697A691A6305E07869FFF790
:1042B000BFFC01E00023FB61FB69002B13D0FA88EF
:1042C000BB6A0093FB6A0193FB690293002303938B
:1042D000F868B9683B6800F00FF8F86900F088F8F2
:1042E0000123BB6102E04FF0FF33BB61BB6918469D
:1042F0002037BD4680BD00BF80B588B000AFF860F4
:10430000B9607A603B603B6B1A6B7B6803F180435A
:10431000013B9B001344BB61BB6923F00703BB61F6
:10432000BB6903F00703002B09D04FF0500383F360
:104330001188BFF36F8FBFF34F8F7B61FEE70023C0
:10434000FB6113E0BA68FB69134419783A6BFB69A7
:10435000134430330A461A71BA68FB6913441B7858
:10436000002B00D105E0FB690133FB61FB690F2BDA
:10437000E8D93B6B002283F84320BB6A062B01D9A6
:104380000623BB623B6BBA6ADA623B6BBA6A5A6459
:104390003B6B00229A643B6B0433184600F09EFC92
:1043A0003B6B1833184600F099FC3B6B3A6B1A6173
:1043B000BB6AC3F107023B6B9A613B6B3A6B5A6273
:1043C0003B6B0022DA643B6B002283F85020B86913
:1043D000F9683A68FFF73EFD02463B6B1A60FB6ADC
:1043E000002B02D0FB6A3A6B1A602037BD4680BDB5
:1043F00080B582B000AF7860FFF730FE2B4B1B68B2
:1044000001332A4A13602A4B1B68002B09D1284A22
:104410007B681360254B1B68012B10D100F010FB4B
:104420000DE0244B1B68002B09D1214B1B68DA6A75
:104430007B68DB6A9A4202D81D4A7B6813601E4B78
:104440001B6801331C4A13607B68DB6A1A46012330
:1044500003FA02F2194B1B681343184A13607B6876
:10446000DA6A13469B0013449B00154A1A447B6882
:1044700004331046194600F03DFCFFF71DFE0D4BBE
:104480001B68002B0ED00A4B1B68DA6A7B68DB6A5C
:104490009A4207D20B4B4FF080521A60BFF34F8FF6
:1044A000BFF36F8F0837BD4680BD00BFB03D002011
:1044B000B03C0020BC3D0020CC3D0020B83D002099
:1044C000B43C002004ED00E080B58AB000AF786015
:1044D000396000237B627B68002B09D14FF05003C9
:1044E00083F31188BFF36F8FBFF34F8F7B61FEE7BC
:1044F0003B68002B09D14FF0500383F31188BFF3C1
:104500006F8FBFF34F8F3B61FEE7294B1B68002B7A
:1045100009D04FF0500383F31188BFF36F8FBFF3BF
:104520004F8FFB60FEE700F08DF8224B1B683B626B
:104530007B681A683B681344FB617B681A683B6AB6
:104540009A420BD97B681A68FB699A4211D9FA69B9
:104550003B6A9A420DD901237B620AE07B681A68A4
:10456000FB699A4203D8FA693B6A9A4201D901234E
:104570007B627B68FA691A607B6A002B06D0FA6955
:104580003B6AD31A1846002100F024FB00F068F8BB
:10459000B861BB69002B07D1074B4FF080521A60FE
:1045A000BFF34F8FBFF36F8F2837BD4680BD00BF6D
:1045B000D83D0020B43D002004ED00E080B586B079
:1045C00002AF00230093194B019319481949802227
:1045D0000023FFF74FFEF860FB68012B15D14FF069
:1045E000500383F31188BFF36F8FBFF34F8FBB600E
:1045F000114B4FF0FF321A60104B01221A60104B22
:1046000000221A60FFF79EFC0DE0FB68B3F1FF3F4C
:1046100009D14FF0500383F31188BFF36F8FBFF3BD
:104620004F8F7B60FEE71037BD4680BDD43D002034
:10463000114A00084C610008D03D0020BC3D00201C
:10464000B43D002080B400AF044B1B680133034A23
:104650001360BD465DF8047B704700BFD83D002065
:1046600080B584B000AF0023FB600023BB60424BE9
:104670001B68002B09D14FF0500383F31188BFF35F
:104680006F8FBFF34F8F3B60FEE7FFF7E7FC3A4BBE
:104690001B68013B384A1360374B1B68002B63D102
:1046A000364B1B68002B5FD030E0354BDB68DB6896
:1046B000FB60FB681833184600F078FBFB68043396
:1046C000184600F073FBFB68DB6A1A46012303FA05
:1046D00002F22C4B1B6813432A4A1360FB68DA6A08
:1046E00013469B0013449B00274A1A44FB6804337B
:1046F0001046194600F0FEFAFB68DA6A234B1B6885
:10470000DB6A9A4202D3224B01221A601C4B1B68BF
:10471000002BCAD1FB68002B01D000F019FA1D4B09
:104720001B687B607B68002B10D000F059F80346B3
:10473000002B02D0164B01221A607B68013B7B6084
:104740007B68002BF1D1134B00221A60104B1B68C1
:10475000002B09D00123BB600F4B4FF080521A6031
:10476000BFF34F8FBFF36F8FFFF7A6FCBB681846F0
:104770001037BD4680BD00BFD83D0020B03D0020B1
:10478000703D0020B83D0020B43C0020B03C00202B
:10479000C43D0020C03D002004ED00E080B483B0A3
:1047A00000AF054B1B687B607B6818460C37BD4625
:1047B0005DF8047B704700BFB43D002080B582B037
:1047C00000AFFFF71BFD00237B60044B1B683B60C1
:1047D0003B6818460837BD4680BD00BFB43D002089
:1047E00080B586B000AF00237B61514B1B68002B66
:1047F00040F08E804F4B1B6801333B614D4A3B6953
:1048000013603B69002B1FD14B4B1B681B68002BAF
:1048100009D04FF0500383F31188BFF36F8FBFF3BC
:104820004F8F3B60FEE7444B1B68FB60434B1B68AC
:10483000414A1360414AFB681360414B1B680133D6
:104840003F4A136000F084F93E4B1B683A699A4274
:104850004FD3394B1B681B68002B01D1012300E0AB
:104860000023002B04D0374B4FF0FF321A6040E09A
:10487000314B1B68DB68DB68BB60BB685B687B60D7
:104880003A697B689A4203D22E4A7B68136030E013
:10489000BB680433184600F089FABB689B6A002B9A
:1048A00004D0BB681833184600F080FABB68DB6A96
:1048B0001A46012303FA02F2234B1B681343224AD0
:1048C0001360BB68DA6A13469B0013449B001F4ABF
:1048D0001A44BB6804331046194600F00BFABB6853
:1048E000DA6A1B4B1B68DB6A9A4201D301237B61A6
:1048F000AFE7174B1B68DA6A144913469B00134451
:104900009B000B441B68012B01D901237B6104E050
:10491000104B1B6801330F4A13600F4B1B68002BB1
:1049200001D001237B617B6918461837BD4680BDE5
:10493000D83D0020B43D0020683D00206C3D0020A3
:10494000C83D0020D03D0020B83D0020B43C0020F0
:10495000B03C0020C03D0020C43D002080B487B0A2
:1049600000AF264B1B68002B03D0254B01221A6099
:104970003EE0234B00221A60224B1B68FB60FB6861
:10498000B3FA83F3FB72FB7AC3F11F037B611E4909
:104990007A6913469B0013449B000B441B68002B51
:1049A00009D14FF0500383F31188BFF36F8FBFF32A
:1049B0004F8F7B60FEE77A6913469B0013449B0090
:1049C000114A13443B613B695B685A683B695A6012
:1049D0003B695A683B6908339A4204D13B695B687A
:1049E0005A683B695A603B695B68DB68074A136039
:1049F0001C37BD465DF8047B704700BFD83D0020E2
:104A0000C43D0020B83D0020B43C0020B03C002054
:104A100080B582B000AF786000F050F8064B1B689C
:104A2000012B07D9054B4FF080521A60BFF34F8F0F
:104A3000BFF36F8FF0E700BFB43C002004ED00E04F
:104A400080B582B000AF00237B600CE07A6813462B
:104A50009B0013449B00114A1344184600F01EF9B2
:104A60007B6801337B607B68062BEFD90C4800F034
:104A700015F90C4800F012F90B4800F00FF90B483B
:104A800000F00CF90A4800F009F90A4B044A1A60D0
:104A9000094B044A1A600837BD4680BDB43C00206B
:104AA000403D0020543D0020703D0020843D00200A
:104AB0009C3D0020683D00206C3D002080B582B008
:104AC00000AF28E0FFF7BEFD164B1B68002B0CBFA4
:104AD00001230023DBB27B60FFF7C2FD7B68002B64
:104AE00019D1FFF7BBFA0F4BDB68DB683B603B6813
:104AF0000433184600F05AF90B4B1B68013B0A4A75
:104B000013600A4B1B68013B084A1360FFF7D4FA95
:104B1000386800F00DF8054B1B68002BD2D1083720
:104B2000BD4680BD843D0020B03D0020983D002062
:104B300080B582B000AF78607B681B6B1846FFF7CA
:104B400077F87868FFF774F80837BD4680BD00BF76
:104B500080B483B000AF0E4B1B681B68002B01D1E3
:104B6000012300E00023002B04D00A4B4FF0FF325A
:104B70001A6008E0064B1B68DB68DB687B607B68BB
:104B80005B68044A13600C37BD465DF8047B7047D0
:104B9000683D0020D03D002080B483B000AF0B4BB7
:104BA0001B68002B02D101237B6008E0084B1B68C7
:104BB000002B02D102237B6001E000237B607B6835
:104BC00018460C37BD465DF8047B7047BC3D00209D
:104BD000D83D002080B584B000AF78603960284BA4
:104BE0001B68FB60274B1B680433184600F0DEF897
:104BF0000346002B0BD1234B1B68DB6A1A460123AB
:104C00009340DA43204B1B6813401F4A13607B68B4
:104C1000B3F1FF3F0AD13B68002B07D0194B1B684B
:104C200004331A48194600F065F826E0FA687B68F4
:104C30001344BB60134B1B68BA685A60BA68FB68C0
:104C40009A4209D2124B1A680E4B1B680433104665
:104C5000194600F073F810E00E4B1A68094B1B68F8
:104C600004331046194600F069F80B4B1B68BA680C
:104C70009A4202D2084ABB6813601037BD4680BD15
:104C8000B43D0020B03C0020B83D00209C3D0020F9
:104C90006C3D0020683D0020D03D002080B483B0F2
:104CA00000AF78607B6803F108027B685A607B681C
:104CB0004FF0FF329A607B6803F108027B68DA608C
:104CC0007B6803F108027B681A617B6800221A6026
:104CD0000C37BD465DF8047B704700BF80B483B0DD
:104CE00000AF78607B6800221A610C37BD465DF822
:104CF000047B704780B485B000AF786039607B6812
:104D00005B68FB603B68FA685A60FB689A683B68BE
:104D10009A60FB689B683A685A60FB683A689A60D8
:104D20003B687A681A617B681B685A1C7B681A604A
:104D30001437BD465DF8047B704700BF80B485B072
:104D400000AF786039603B681B68BB60BB68B3F13B
:104D5000FF3F03D17B681B69FB600CE07B68083375
:104D6000FB6002E0FB685B68FB60FB685B681A68DD
:104D7000BB689A42F6D9FB685A683B685A603B6840
:104D80005B683A689A603B68FA689A60FB683A68C0
:104D90005A603B687A681A617B681B685A1C7B689A
:104DA0001A601437BD465DF8047B704780B485B047
:104DB00000AF78607B681B69FB607B685B687A6822
:104DC00092689A607B689B687A6852685A60FB6850
:104DD0005A687B689A4203D17B689A68FB685A607C
:104DE0007B6800221A61FB681B685A1EFB681A6008
:104DF000FB681B6818461437BD465DF8047B704796
:104E000080B485B000AF0346FB800023FB60B7F998
:104E10000630842B05D0B7F90620FB681344033312
:104E2000FB60FB6818461437BD465DF8047B70478D
:104E300080B483B000AFEFF305837B607B68002B09
:104E400014BF01230023DBB218460C37BD465DF8C2
:104E5000047B704780B500AFFFF7B0FB0023184616
:104E600080BD00BF80B500AFFFF7E2FF0346002B17
:104E700003D0FFF7A3FC034602E0FFF78FFC0346D5
:104E8000184680BDF0B587B002AF786039607B68A6
:104E90005E687B681D687B681B699CB27B681B89A8
:104EA0001BB21846FFF7ACFF0346009307F10C0353
:104EB00001933046294622463B68FFF7DBF903465B
:104EC000012B01D0002300E0FB6818461437BD46D3
:104ED000F0BD00BF80B500AFFFF75EFE0346012BBB
:104EE00001D0FFF747F980BD80B584B000AF78608E
:104EF00039603B68FB60FB68002B01D0FB6800E079
:104F0000012378681946FFF7DFFA002318461037A7
:104F1000BD4680BD80B582B000AF78607B68002B55
:104F200001D1012355E07B6800229A627B6893F8E7
:104F30005130DBB2002B06D17B68002283F8502071
:104F40007868FCF789FC7B68022283F851207B6833
:104F50001B687A681268126822F040021A607B6847
:104F60001B687A6851687A68926811437A68D268D7
:104F700011437A68126911437A68526911437A6859
:104F8000926902F4007211437A68D26911437A6817
:104F9000126A11437A68926A0A431A607B681B6836
:104FA0007A689269120C02F004017A68526A0A4324
:104FB0005A607B681B687A681268D26922F40062C2
:104FC000DA617B6800225A657B68012283F85120F0
:104FD000002318460837BD4680BD00BF80B58CB0A1
:104FE00002AFF860B9607A607B800023FB61002328
:104FF000BB6100237B6101237B62002387F82330A0
:10500000FB6893F85030012B01D1022381E1FB684A
:10501000012283F85020FEF7E5FC7861FB6893F8E5
:105020005130DBB2FB61FB685B68BB61FB69012B44
:105030000ED0BB69B3F5827F06D1FB689B68002B5D
:1050400002D1FB69042B03D0022387F8233056E1F9
:10505000BB68002B05D07B68002B02D07B88002B1F
:1050600003D1012387F8233049E1FB6893F85130DD
:10507000DBB2012B03D1FB68052283F85120FB68CA
:1050800000225A65FB687A689A63FB687A88DA8737
:10509000FB687A889A87FB68BA681A63FB687A8823
:1050A000DA86FB687A889A86FB6800221A64FB68B5
:1050B00000225A64FB681B681B6803F04003002B46
:1050C00007D1FB681B68FA681268126842F0400258
:1050D0001A60FB68DB68B3F5006F71D1FB685B6831
:1050E000002B04D0FB68DB8E9BB2012B0ED1FB683A
:1050F0001B68BA681288DA60BB680233BB60FB6861
:10510000DB8E9BB2013B9AB2FB68DA864DE07B6A8C
:10511000002B1CD0FB68DB8E9BB2002B17D0FB68EA
:105120001B689B6803F00203002B10D0FB681B6810
:10513000BA681288DA60BB680233BB60FB68DB8E3A
:105140009BB2013B9AB2FB68DA8600237B62FB6864
:10515000DB8F9BB2002B18D0FB681B689B6803F0A9
:105160000103002B11D0FB681B68DB689AB27B68D7
:105170001A807B6802337B60FB68DB8F9BB2013B4C
:105180009AB2FB68DA8701237B623B6BB3F1FF3F86
:105190000BD0FEF727FC02467B69D21A3B6B9A4282
:1051A00003D3032387F82330A9E0FB68DB8E9BB28F
:1051B000002BACD1FB68DB8F9BB2002BA7D171E039
:1051C000FB685B68002B04D0FB68DB8E9BB2012B75
:1051D0000FD1FB681B680C33BA6812781A70BB6871
:1051E0000133BB60FB68DB8E9BB2013B9AB2FB686C
:1051F000DA864DE07B6A002B1DD0FB68DB8E9BB20C
:10520000002B18D0FB681B689B6803F00203002B7F
:1052100011D0FB681B6803F10C02BB68591CB96014
:105220001B781370FB68DB8E9BB2013B9AB2FB6864
:10523000DA8600237B62FB68DB8F9BB2002B17D0E2
:10524000FB681B689B6803F00103002B10D07B6890
:105250005A1C7A60FA681268D268D2B21A70FB6877
:10526000DB8F9BB2013B9AB2FB68DA8701237B623A
:105270003B6BB3F1FF3F0BD0FEF7B4FB02467B69FB
:10528000D21A3B6B9A4203D3032387F8233036E0CC
:10529000FB68DB8E9BB2002BACD1FB68DB8F9BB233
:1052A000002BA7D17B690093F868022101223B6B98
:1052B00000F034F80346002B03D0032387F8233093
:1052C0001DE0F868396B7A6900F092F80346002B0C
:1052D00006D0012387F82330FB6820225A650EE0B0
:1052E000FB689B68002B0AD100233B61FB681B68AD
:1052F000DB683B61FB681B689B683B613B69FB6843
:10530000012283F85120FB68002283F8502097F88F
:10531000233018462837BD4680BD00BF80B584B015
:1053200000AFF860B9607A603B604DE03B68B3F174
:10533000FF3F49D03B68002B07D0FEF753FB0246E6
:10534000BB69D21A3B689A423ED3FB681B68FA6875
:105350001268526822F0E0025A60FB685B68B3F59D
:10536000827F11D1FB689B68B3F5004F04D0FB68C6
:105370009B68B3F5806F07D1FB681B68FA681268F9
:10538000126822F040021A60FB689B6AB3F5005F66
:1053900010D1FB681A68FB681B6819684DF6FF732B
:1053A0000B401360FB681B68FA681268126842F4CD
:1053B00000521A60FB68012283F85120FB6800222A
:1053C00083F8502003230EE0FB681B689A68BB68D3
:1053D0001A40BB689A4201D1012200E000227B689A
:1053E0009A42A3D1002318461037BD4680BD00BFA6
:1053F00080B586B002AFF860B9607A607B680093D0
:10540000F86880210022BB68FFF788FF0346002B65
:1054100007D0FB685B6D43F02002FB685A650323ED
:1054200000E0002318461037BD4680BD80B584B02B
:1054300000AF78600023FB600023BB607B68002B1B
:1054400001D10123C8E07B6893F83D30DBB2002B2B
:1054500006D17B68002283F83C207868FCF7CAF903
:105460007B68242283F83D207B681B687A68126879
:10547000126822F001021A60FDF7BAFBB860BB683F
:10548000574AA2FB03239B0CFB607B681B68FA68EE
:105490005A607B681A687B685B6852498B4202D805
:1054A000FB68013309E0FB684FF4967101FB03F3DD
:1054B0004D49A1FB03139B09013313627B681968F3
:1054C0007B685B68474A934212D87B685B685B00E5
:1054D000BA68B2FBF3F3C3F30B03032B06D97B6863
:1054E0005B685B00BA68B2FBF3F345E0042343E07A
:1054F0007B689B68002B0FD17B685A6813465B0062
:105500001344BA68B2FBF3F3C3F30B03002B0CBFD5
:1055100001230023DBB210E07B685A6813469B002E
:1055200013449A001344BA68B2FBF3F3C3F30B03BA
:10553000002B0CBF01230023DBB2002B01D0012381
:105540001AE07B689B68002B0AD17B685A68134677
:105550005B001344BA68B2FBF3F343F400430BE07F
:105560007B685A6813469B0013449A001344BA6838
:10557000B2FBF3F343F44043CB617B681B687A686A
:10558000D1697A68126A0A431A607B681B687A6874
:1055900011697A68D2680A439A607B681B687A68E6
:1055A00051697A6892690A43DA607B681B687A6895
:1055B0001268126842F001021A607B6800221A64C5
:1055C0007B68202283F83D207B6800221A637B6879
:1055D000002283F83E20002318461037BD4680BDC8
:1055E00083DE1B43A0860100D34D621080B584B0DA
:1055F00000AF78600023FB737B68002B01D101238F
:1056000033E07B681B6C002B09D17B6800225A6455
:105610007B68002283F83C207868FCF7DDF97B6822
:105620001B6C03F01003002B18D17B681B6C23F458
:10563000885323F0020343F002027B681A647868FF
:1056400000F06EFB7B6800225A647B681B6C23F0C1
:10565000030343F001027B681A6401E00123FB733A
:105660007B68002283F83C20FB7B18461037BD4640
:1056700080BD00BF80B584B000AF78600023FB60C0
:105680000023BB607B681B681B6803F00203002BD0
:1056900014BF01230023DBB2FB607B681B685B68DF
:1056A00003F02003002B14BF01230023DBB2BB60F7
:1056B000FB68002B49D0BB68002B46D07B681B6C75
:1056C00003F01003002B05D17B681B6C43F40072C0
:1056D0007B681A647B681B689B6803F04053002B4F
:1056E0002BD17B689B69002B27D17B681B68DB6A09
:1056F00003F47003002B06D07B681B689B6803F4DF
:105700008063002B19D17B681B687A681268526825
:1057100022F020025A607B681B6C23F480727B6845
:105720001A647B681B6C03F48053002B05D17B68E3
:105730001B6C43F001027B681A647868FBF752FC2B
:105740007B681B686FF012021A607B681B681B681D
:1057500003F00403002B14BF01230023DBB2FB6022
:105760007B681B685B6803F08003002B14BF012378
:105770000023DBB2BB60FB68002B57D0BB68002B5B
:1057800054D07B681B6C03F01003002B05D17B68A1
:105790001B6C43F400527B681A647B681B689B682F
:1057A00003F44013002B39D17B681B689B6B03F417
:1057B0004013002B06D07B681B689B6803F4806352
:1057C000002B2BD17B681B685B6803F48063002B84
:1057D00024D17B681B689B6803F04053002B1DD1CC
:1057E0007B689B69002B19D17B681B687A681268FB
:1057F000526822F080025A607B681B6C23F480524E
:105800007B681A647B681B6C03F48073002B05D1E2
:105810007B681B6C43F001027B681A647868FBF7B5
:1058200001FC7B681B686FF00C021A607B681B68C8
:105830001B6803F00103002B14BF01230023DBB21C
:10584000FB607B681B685B6803F04003002B14BFA0
:1058500001230023DBB2BB60FB68002B17D0BB68C1
:10586000002B14D07B681B681B6803F00103002B1E
:105870000DD07B681B6C43F480327B681A647868B7
:1058800000F016F97B681B686FF001021A607B68F4
:105890001B681B6803F02003002B14BF01230023A7
:1058A000DBB2FB607B681B685B6803F08063002BE6
:1058B00014BF01230023DBB2BB60FB68002B15D0B3
:1058C000BB68002B12D07B685B6C43F002027B68E4
:1058D0005A647B681B686FF020021A60786800F0D9
:1058E000F1F87B681B686FF020021A601037BD4624
:1058F00080BD00BF80B586B000AFF860B9607A6047
:1059000000233B61FB6893F83C30012B01D102235B
:10591000B2E0FB68012283F83C20FB681B689B68AF
:1059200003F00103002B18D1FB681B68FA681268AA
:10593000926842F001029A60514B1B68514AA2FBE7
:1059400003239A0C13465B0013443B6102E03B695E
:10595000013B3B613B69002BF9D1FB681B689B68ED
:1059600003F00103002B00F08680FB681B6C23F41E
:10597000E06323F0010343F48072FB681A64FB6860
:105980001B685B6803F48063002B07D0FB681B6C0B
:1059900023F4405343F48052FB681A64FB681B6C89
:1059A00003F48053002B06D0FB685B6C23F00602E7
:1059B000FB685A6402E0FB6800225A64FB6800221C
:1059C00083F83C20304B7B61FB689B6B2F4ADA638A
:1059D000FB689B6B2E4A1A64FB689B6B2D4ADA644A
:1059E000FB681B686FF022021A60FB681B68FA688C
:1059F0001268526842F080625A60FB681B68FA685D
:105A00001268926842F480729A60FB689A6BFB6835
:105A10001B684C331946BB6810461A467B68FDF775
:105A2000AFFB7B695B6803F01F03002B0FD1FB68A2
:105A30001B689B6803F04053002B1CD1FB681B685C
:105A4000FA681268926842F080429A6013E0FB683C
:105A50001B68114A93420ED1FB681B689B6803F0D8
:105A60004053002B07D1FB681B68FA6812689268E4
:105A700042F080429A60002318461837BD4680BD28
:105A80006400002083DE1B4300230140155F0008F3
:105A9000B95F0008D55F00080020014080B483B0E2
:105AA00000AF78600C37BD465DF8047B704700BFDF
:105AB00080B483B000AF78600C37BD465DF8047BDE
:105AC000704700BF80B483B000AF78600C37BD462C
:105AD0005DF8047B704700BF90B484B000AF78607D
