:020000040800F2
:1000000000000120B9480008450E0008490E00080C
:100010004D0E0008510E0008550E000800000000AB
:10002000000000000000000000000000590E000861
:100030005D0E000800000000610E0008650E00085B
:100040000949000809490008094900080949000848
:100050000949000809490008094900080949000838
:100060000949000809490008094900080949000828
:100070000949000809490008094900080949000818
:100080000949000809490008094900080000000062
:100090000000000000000000000000000949000806
:1000A00009490008094900080949000809490008E8
:1000B00009490008094900080949000809490008D8
:1000C00009490008094900080949000809490008C8
:1000D0000949000809490008094900080000000012
:1000E0000949000809490008094900080000000002
:1000F00000000000000000000000000009490008A6
:1001000000000000094900080949000809490008E1
:1001100000000000000000000000000000000000DF
:100120000949000809490008094900080949000867
:100130000949000800000000000000000000000065
:10014000000000000000000000000000710E000828
:100150000949000809490008094900080949000837
:1001600009490008094900080000000000000000DB
:10017000000000000000000000000000000000007F
:100180000000000009490008000000000000000015
:040190000949000811
:10019400044B05481B1A062B02D9044B03B118471C
:1001A400704700BF93000020900000200000000072
:1001B40005490648091A891001EBD171491002D08A
:1001C400034B03B1184770479000002090000020B3
:1001D4000000000010B5064C237843B9FFF7D8FFA0
:1001E400044B13B10448AFF300800123237010BD06
:1001F4009000002000000000E84A000808B5084B01
:100204001BB108480849AFF300800848036813B9D4
:10021400BDE80840CCE7064B002BF9D09847F7E738
:1002240000000000E84A000894000020900000202C
:100234000000000053B94AB9002908BF00281CBFB8
:100244004FF0FF314FF0FF3000F03CB882B0EC4685
:100254002DE9005000F01EF8DDF804E002B00CBCFB
:10026400704700BF2DE9F041069C154606460F462F
:10027400984600F029F805FB01F300FB0838A5FBBC
:100284000023B21A434467EB0303C4E90023BDE827
:10029400F08100BF2DE9F041069C904606460F46CA
:1002A4001D4600F05FF900FB05F5A0FB082308FBE1
:1002B4000155B21A2B4467EB0303C4E90023BDE8DC
:1002C400F08100BF704700BF00292DE9F043C0F260
:1002D400A6800026002BC0F29C80884694469E4649
:1002E400154604460F46002B3DD18A4259D9B2FA2D
:1002F40082F33BB1C3F120029F4020FA02F29D40F9
:1003040017439C40290C220CB7FBF1FEA8B201FB59
:100314001E7742EA074700FB0EF3BB420AD97F1956
:100324000EF1FF3280F00581BB4240F20281AEF152
:10033400020E2F44FF1AA4B2B7FBF1F301FB1377AB
:1003440044EA074700FB03F0B84208D97F1903F1D8
:10035400FF3280F0F080B84240F2ED80023B43EA85
:100364000E43002203E08B420FD900221346341CB3
:1003740018BF012460424FF0000565EB4501584069
:10038400514000196941BDE8F083B3FA83F2002AB1
:1003940040F086808B4202D3844500F2DB80012347
:1003A400E5E712B90123B3FBF2F5B5FA85F00028AD
:1003B4003BD1781B4FEA154E1FFA85FC0122B0FB96
:1003C400FEF8210C0EFB180741EA07470CFB08F363
:1003D400BB4207D97F1908F1FF3102D2BB4200F2B8
:1003E400BD808846FF1AA4B2B7FBFEF30EFB137759
:1003F40044EA07470CFB03FCBC4507D97F1903F10A
:10040400FF3102D2BC4500F2A7800B4643EA084301
:10041400ADE752426FEA060663EB43035DE74042F1
:1004240061EB41014FF0FF3654E7C0F1200224FA9A
:1004340002F107FA00F385404FEA154ED7401943FD
:10044400B7FBFEF20B0C0EFB12771FFA85FC43EA96
:1004540007430CFB02F79F4204FA00F407D95B1927
:1004640002F1FF3074D29F4272D9023A2B44DF1B4F
:1004740089B2B7FBFEF80EFB187341EA03430CFB89
:1004840008F79F4208D95B1908F1FF315CD29F42FB
:100494005AD9A8F102082B44D81B48EA02428EE735
:1004A400C2F120032CFA03F10EFA02FE20FA03F73C
:1004B40041EA0E0E08FA02F028FA03F14FEA1E454B
:1004C4003843B1FBF5F8030C05FB18111FFA8EF73E
:1004D40043EA014107FB08F38B420CFA02FC09D9F9
:1004E40011EB0E0108F1FF3930D28B422ED9A8F15D
:1004F40002087144C91A80B2B1FBF5F305FB13116C
:1005040040EA014107FB03F78F4208D911EB0E01C2
:1005140003F1FF3016D28F4214D9023B714443EAEF
:100524000843C91BA3FB0C89494509D305D0002204
:100534001DE79646FEE6134611E794404445F6D27D
:10054400013BF4E70346EAE78846A5E7C846D1E756
:1005540002468CE713460AE7023B57E7A8F1020874
:100564002F443FE72DE9F041002B44D18A42154640
:1005740004464FD9B2FA82F70E464FB1C7F12003B1
:10058400B94020FA03F602FA07F50E4300FA07F41D
:100594004FEA154E230CB6FBFEF0AFB20EFB106112
:1005A40043EA014307FB00F1994209D95B1900F1C1
:1005B400FF3280F0EC80994240F2E98002382B440B
:1005C4005A1AA4B2B2FBFEF30EFB132244EA02420F
:1005D40007FB03F7974208D9521903F1FF3180F062
:1005E400D880974240F2D580023B43EA004000267F
:1005F4003146BDE8F0818B4247D8B3FA83F6002E2A
:1006040048D18B4202D3824200F2CD800120314690
:10061400BDE8F08112B90125B5FBF2F5B5FA85F80C
:10062400B8F1000F77D14A1B4FEA154EAFB201263D
:10063400B2FBFEF0230C0EFB102143EA014107FB41
:1006440000F38B4207D9491900F1FF3202D28B42E1
:1006540000F2BA801046C91AA4B2B1FBFEF30EFB35
:10066400131144EA014407FB03F7A74208D96419AC
:1006740003F1FF3280F08F80A74240F28C80023B6E
:1006840043EA00403146BDE8F08100263046314659
:10069400BDE8F081C6F1200422FA04F5B3402B43EF
:1006A40020FA04FC01FA06F721FA04F54FEA134E86
:1006B4004CEA0707B5FBFEF8390C0EFB18551FFA78
:1006C40083FC41EA05450CFB08F1A94202FA06F253
:1006D40004D9ED1808F1FF3467D3A0466D1ABFB2F0
:1006E400B5FBFEF40EFB145547EA05410CFB04FC74
:1006F4008C4504D9C91804F1FF355CD32C4644EA6F
:100704000844CCEB0101A4FB0223994248D344D012
:10071400204600266CE7C8F1200401FA08F305FA24
:1007240008F520FA04F7E1404FEA154E1F43B1FBE8
:10073400FEF63A0C0EFB16111FFA85FC42EA014341
:100744000CFB06F29A4200FA08F407D95B1906F189
:10075400FF3137D29A4235D9023E2B449B1ABFB29D
:10076400B3FBFEF00EFB103347EA03430CFB00F12E
:10077400994207D95B1900F1FF3221D299421FD95E
:1007840002382B445A1A40EA0646674650E7104698
:1007940016E70B4629E7134672E7B0409042B7D2FA
:1007A400601E002624E7304622E7A94295D9A8F125
:1007B40002081D4492E78C45A0D9023C19449EE7E7
:1007C4001046DFE70E46C9E70238294443E700BF75
:1007D4002DE9F0438DB000240194494B1A6B42F08B
:1007E40010021A631A6B02F010020192019A029429
:1007F4001A6B42F004021A631A6B02F004020292AA
:10080400029A03941A6B42F080021A631A6B02F084
:1008140080020392039A04941A6B42F001021A6351
:100824001A6B02F001020492049A05941A6B42F0C6
:1008340002021A631A6B02F002020592059A0694E8
:100844001A6B42F008021A631B6B03F00803069349
:10085400069B2C4E30460821224602F0A9FFDFF801
:10086400B090484601210A4602F0A2FF264F3846BE
:100874004FF21001224602F09BFF042307930894D1
:100884000994304607A902F0BBFE0823079301250B
:10089400089509940A94304607A902F0B1FE322360
:1008A4000793DFF87080CDF820800994304607A9BB
:1008B40002F0A6FE0795089509940A94484607A9EC
:1008C40002F09EFE0795CDF8208009940F4807A9F1
:1008D40002F096FE4FF210030793089509940A94C8
:1008E400384607A902F08CFE202307930894099444
:1008F400384607A902F084FE0DB0BDE8F08300BFBE
:100904000038024000100240000C02400000024087
:100914000008024000001210FEE700BF08B50B48B3
:100924000B4B03600B4B436000238360C3604FF4A5
:100934008042026143618361C361036201F038FE56
:1009440018B10548EE21FFF7E7FF08BDBC00002001
:1009540000540040A0860100004B000808B50C4874
:100964000C4B03604FF40073436000238360C36047
:1009740003614FF4FA5242618361C361036201F07F
:10098400E3FE20B104484FF48171FFF7C5FF08BDB1
:100994006801002000380040004B000808B50C48EE
:1009A4000C4B03604FF40072426000238360C36009
:1009B4000261094A42618361C361036201F0C4FEBA
:1009C40020B106484FF48B71FFF7A6FF08BD00BFA6
:1009D400B0010020003C004000770100004B0008FB
:1009E40008B50E480E4B03604FF482734360002336
:1009F4008360C360036143614FF400728261C36129
:100A04000362436283620A23C36202F0B9F920B12C
:100A140004484FF49771FFF77FFF08BD10010020D1
:100A240000300140004B000800B599B0002100914E
:100A3400324B1A6C42F080521A641B6C03F08053E0
:100A44000093009B01912E4A136823F4404343F41E
:100A540000431360136803F440430193019B012393
:100A64000C934FF480330D93022312934FF48003BD
:100A74001393082314934FF4A87315930423169324
:100A8400072317930CA802F0BDF918B11D48BA2129
:100A9400FFF742FF0F2307930221089100230993D4
:100AA4004FF480520A920B9307A802F0F1FB18B19D
:100AB4001448C821FFF730FF01230293C023039396
:100AC4000223049302A802F0A9FC18B10D48D02116
:100AD400FFF722FF02F08CFC0B4BA3FB00308009D4
:100AE40002F0C0FE042002F0D3FE4FF0FF300021DC
:100AF4000A4602F079FE19B05DF804FB00380240A2
:100B040000700040004B0008D34D621008B502F09D
:100B1400FBFEFFF789FFFFF75BFEFFF7FFFEFFF722
:100B24001DFFFFF73BFFFFF75BFF00F023F800F02A
:100B340037F804484FF4704102F040FE642002F09C
:100B44000FFFF4E7000C024004290CD0052902D061
:100B540002290BD103E00322054B1A7070470222CD
:100B6400034B1A7070470122014B1A70704700BF83
:100B7400AC00002010B5074C20460749012203F0C1
:100B840015F82046054903F029F8204603F06CF8CF
:100B940010BD00BFF80100204D0B00080C00002020
:100BA40008B5024803F06AF808BD00BFF801002048
:100BB4000368B3F1A04F33D130B587B04FF400735D
:100BC4000193002402940394164D284601A902F0CF
:100BD40017FD4FF4E053019302230293039403237C
:100BE40004930A230593284601A902F009FD0E4B3C
:100BF4005A6B42F080025A6300945A6C42F4804269
:100C04005A645B6C03F480430093009B43202146A9
:100C1400224602F0E9FD432002F018FE07B030BD81
:100C2400704700BF000002400038024008B5D0F809
:100C3400940203F0F3F808BD08B5D0F8940203F069
:100C4400F7F808BD08B5D0F8940203F007F908BD19
:100C5400704700BF90F8BC33012B22D110B5044675
:100C64001148C0F89442C4F8C0034FF0A043036095
:100C7400082383600323C36000230361022282618B
:100C8400C36100F07DFA18B10848E221FFF744FE81
:100C9400054800F05BFF0146204603F0BBF8002046
:100CA40010BD0020704700BFC00500200C4B000899
:100CB40008B5D0F8C00300F00DFF10B1022802D02F
:100CC40003E0002008BD012008BD022008BD00BFCC
:100CD40008B5D0F8C00300F013FF10B1022802D009
:100CE40003E0002008BD012008BD022008BD00BFAC
:100CF40008B5D0F8C00300F02FFF10B1022802D0CD
:100D040003E0002008BD022008BD012008BD00BF8B
:100D140008B5D0F8C00300F005FF10B1022802D0D6
:100D240003E0002008BD012008BD022008BD00BF6B
:100D340008B5D0F8C00300F003FF08BD10B584B0B7
:100D4400D0F8C0039DF8184000949DF81C4001940D
:100D5400BDF82040029400F0C9F910B1022802D075
:100D640003E0002002E0012000E0022004B010BDF6
:100D740008B5D0F8C00300F0F1F910B1022802D090
:100D840003E0002008BD012008BD022008BD00BF0B
:100D940010B584B0D0F8C0039DF818400094079CA7
:100DA4000194BDF8204002949DF82440039400F07F
:100DB40025FA10B1022802D003E0002002E001204D
:100DC40000E0022004B010BD08B5D0F8C00300F064
:100DD400AFFE08BD08B590F8BC33012B02D108461C
:100DE40000F022F8C82002F0BBFD002008BD00BFBF
:100DF400D0F8C00301EB8103DB00034493F83B30DC
:100E040033B101EB8101C900014481F8502005E0B0
:100E140001EB8101C900014481F851200020704791
:100E240008B502F09DFD08BD08B508B9012200E02F
:100E340000220248012102F0BBFC08BD0008024068
:100E4400704700BFFEE700BFFEE700BFFEE700BF3C
:100E5400FEE700BF704700BF704700BF704700BF88
:100E640008B502F06BFD02F025FD08BD08B5024887
:100E740000F092FD08BD00BFC005002010B582B08F
:100E840000240094214B5A6C42F480425A645A6CF8
:100E940002F480420092009A01941A6C42F080524B
:100EA4001A641B6C03F080530193019B072002F02A
:100EB40089FC6FF00B002146224602F095FC6FF08E
:100EC4000A002146224602F08FFC6FF009002146F9
:100ED400224602F089FC6FF004002146224602F00B
:100EE40083FC6FF003002146224602F07DFC6FF084
:100EF40001002146224602F077FC4FF0FF302146E4
:100F0400224602F071FC02B010BD00BF003802405E
:100F14000268114B9A421ED110B586B04FF410737B
:100F240001931223029301230393002404940423C2
:100F340005930A480DEB030102F062FB0094084B91
:100F44001A6C42F400121A641B6C03F4001300932D
:100F5400009B06B010BD70470054004000040240DE
:100F64000038024070B588B00368274A934223D101
:100F740000240194254B1A6C42F480421A641B6CC1
:100F840003F480430193019B0823039302260496F0
:100F940005940694052507951D4803A902F030FB26
:100FA4004FF4A053039304960594069407951948A7
:100FB40003A902F025FB25E0174A934222D100241D
:100FC4000294124B1A6C42F400421A641B6C03F430
:100FD40000430293029B1023039302260496059474
:100FE4000694062507950D4803A902F009FB4FF462
:100FF400A45303930496059406940795044803A9FF
:1010040002F0FEFA08B070BD00380040003802401B
:101014000008024000040240003C0040000002407E
:101024000268114B9A421ED100B587B0002100918D
:1010340003F584335A6C42F480525A645B6C03F4B3
:1010440080530093009BE0230193022302930391B6
:101054000323049305230593044801A902F0D0FA5D
:1010640007B05DF804FB7047003001400000024007
:10107400F8B507683A6A02F00F05C2F34343C2F3B6
:101084000A14022B2ED16CB305EB8503DB00034459
:10109400596C39B306463846224600F013FEAB00BD
:1010A4002B44DB0033445A6C22445A64DA6C2244E5
:1010B400DA6407EB4517D7F810250B4B13408BB1B7
:1010C400D7F8003523F0804343F00043C7F80035D8
:1010D400AB005A19D200324492F8503083F0010325
:1010E40082F85030F8BD00BF0000F81FF0B585B09D
:1010F40004469DF828C09DF82CE0BDF8307090F8A7
:101104009002012826D0012084F890028800451816
:10111400ED00254405F1380685F83830A5F840700F
:1011240085F8391085F83FE002F07F05B570D509E0
:10113400F5700844C000204480F83CC0CDF800C0DD
:10114400CDF804E00297206800F0D4FE002384F870
:10115400903200E0022005B0F0BD00BF90F890325C
:10116400012B0BD010B50446012380F8903200689F
:1011740000F042FF002084F8900210BD0220704766
:10118400002836D0F0B58BB00646032380F89132A0
:10119400FFF70EFD306800F043FD344654F810EBC1
:1011A4006D460FCC0FC50FCC0FC594E8030085E83E
:1011B4000300371D97E80E00704600F0EFFC30681E
:1011C400012100F033FD344654F810EB6D460FCC8A
:1011D4000FC50FCC0FC594E8030085E8030097E81A
:1011E4000E00704600F0E8FD012386F891320020DD
:1011F40001E0012070470BB0F0BD00BFF8B5044614
:101204009DF81860BDF820509DF8247088000844AB
:10121400C000204480F83B2080F83F3046B901EB01
:101224008100C00020444FF0030E80F842E007E044
:1012340001EB8100C00020444FF0020E80F842E030
:10124400032B00F2A880DFE803F0029F3571012E22
:1012540040F0A180002A40F09E8035B901EB810363
:10126400DB002344012283F8512001EB8103DB00DE
:10127400234493F851303BB901EB8103DB00234451
:10128400002283F8422006E001EB8103DB002344C3
:10129400022283F8422001EB8103DB00234493F80C
:1012A4005C30022B77D001EB8103DB00234483F80D
:1012B4003D7070E01ABB01EB8103DB00234493F81B
:1012C400513033B901EB8103DB00234483F842201E
:1012D40006E001EB8103DB002344022283F8422071
:1012E40001EB8103DB00234493F85C30022B52D0E2
:1012F40001EB8103DB00234483F83D704BE001EBF9
:101304008103DB00234493F850303BB901EB8103A4
:10131400DB002344002283F842203CE001EB8103FC
:10132400DB002344022283F8422034E0AAB901EB13
:101334008103DB00234493F8513033B901EB81037B
:10134400DB00234483F8422025E001EB8103DB002A
:101354002344022283F842201DE001EB8103DB00D9
:10136400234493F850303BB901EB8103DB00234461
:10137400002283F842200EE001EB8103DB002344CA
:10138400022283F8422006E001EB8103DB002344C0
:10139400002283F8422088004318DB002344079A84
:1013A4005A649D64002283F85C20DA6483F839105F
:1013B40083F85D200144C900383120682144227C2F
:1013C40000F03AFFF8BD00BF30B583B005460468AD
:1013D400D4F840340193D4F840340093009B23F0B4
:1013E4002E030093019B13F0020F0DD0019B13F009
:1013F400010F05D0A36923F00053A361FFF71CFC80
:10140400009B43F002030093019B13F0080F30D0BC
:10141400009B43F008030093019B13F0040F1DD0BD
:10142400AB69022B0FD1019B03F4C023B3F5802FCA
:1014340004D12868022100F063FC0BE02868012134
:1014440000F05EFC06E0EB68032B03D14EF660224D
:10145400C4F804242846FFF7EFFB0AE0D4F840342C
:1014640023F02E03C4F840342A68936943F00053F0
:101474009361019B13F0200F03D0009B43F02003E2
:101484000093009BC4F8403403B030BDF8B5064661
:101494000D46076807EB411707F5A064A36813F02E
:1014A400040F06D00423A360E36843F00203E3605F
:1014B40034E0A36813F0200F02D02023A3602DE0B2
:1014C400A36813F0080F12D0E36843F00203E3604B
:1014D40001EB8103DB000344052283F85D20102324
:1014E400A3600823A360006800F086FD16E0A368EB
:1014F40013F4806F12D0E36843F00203E3600068E2
:1015040000F07AFD1023A36005EB8503DB00334470
:10151400082283F85D204FF48063A360A36813F46A
:10152400007F0BD0E36843F00203E3603068294690
:1015340000F062FD4FF40073A360F8BDA36813F0DC
:10154400010F46D0336963B1AB005A19D20032445B
:10155400916C2269C2F312028A1A2B44DB003344D1
:10156400DA64AB002B44DB003344012283F85D20B2
:1015740000219965A26093F83F300BB1022B0AD188
:10158400E36843F00203E3603068294600F034FD69
:101594001023A36012E0032B10D1D7F8003543F0D9
:1015A4000053C7F8003505EB8503DB003344012203
:1015B40083F85C2030462946FFF74AFBAB005A19F2
:1015C400D200324492F8503083F0010382F8503054
:1015D400F8BDA36813F0020F50D0E36823F00203B0
:1015E400E36005EB8503DB00334493F85D30012BA6
:1015F40007D105EB8503DB003344012283F85C202B
:101604002FE0052B07D105EB8503DB0033440522CE
:1016140083F85C2025E0062B01D0082B21D1AB00F8
:101624002B44DB0033449A6D511C9965032A09D974
:10163400AB002B44DB00334400229A65042283F878
:101644005C2006E005EB8503DB003344022283F8CB
:101654005C20D7F8003523F0804343F00043C7F8FB
:1016640000350223A36005EB8503DB0033443046D9
:10167400294693F85C20FFF7EBFAF8BDA36813F052
:10168400800F15D0E36843F00203E360AB005A19FE
:10169400D2003244916D013191651346062283F8DC
:1016A4005D203068294600F0A7FC8023A360F8BDC4
:1016B400A36813F0100F28D005EB8503DB00334437
:1016C40093F83F30032B07D1E36843F00203E36050
:1016D4003068294600F090FCAA005319DB0033441B
:1016E400032183F85D101023A36015448D40354415
:1016F40095F83F300BB1022B07D1D7F8003523F012
:10170400804343F00043C7F80035F8BDF8B50468DA
:1017140004EB411404F5A064A36813F0040F06D08D
:101724000423A360E36843F00203E360F8BD0E46BC
:101734000546A36813F0200F1FD02023A36001EBFC
:101744008103DB00034493F83D30012B40F02381F7
:101754008F007B18DB000344042283F85D20E368D8
:1017640043F00203E360006800F046FCB919C900C5
:101774002944022381F85C30F8BDA36813F0400FBC
:1017840014D08B005A18D2000244042182F85D1050
:10179400134600229A65E36843F00203E36000689D
:1017A400314600F029FC4023A360F8BDA36813F47C
:1017B400007F0AD0E36843F00203E360006800F0AE
:1017C4001BFC4FF40073A360F8BDA36813F0010F72
:1017D40014D08F007B18DB00034400229A65E36871
:1017E40043F00203E360006800F006FC0123A360F9
:1017F400B919C900294481F85D30F8BDA36813F014
:10180400080F10D00823A360E36843F00203E360E9
:10181400006800F0F1FB06EB8601C90029440523AA
:1018240081F85D30F8BDA36813F0100F15D08F0058
:101834007B18DB00034400229A65E36843F002034B
:10184400E360006800F0D8FBB919C90029440323F8
:1018540081F85D301023A360F8BDA36813F0800FF6
:1018640010D0E36843F00203E360006800F0C4FBB7
:1018740006EB8601C9002944062381F85D308023E4
:10188400A360F8BDA36813F4806F13D0E36843F03A
:101894000203E360006800F0AFFB1023A3604FF481
:1018A4008063A36006EB8601C9002944082381F8FC
:1018B4005D30F8BDA36813F0020F6CD0E36823F029
:1018C4000203E36001EB8103DB00034493F85D3022
:1018D400012B15D18B000B44DB000344012283F858
:1018E4005C2093F83F30022B49D18B000B44DB0082
:1018F400034493F8512082F0010283F851203EE022
:10190400032B07D101EB8103DB000344022283F89C
:101914005C2034E0042B0AD18B000B44DB0003442D
:10192400022283F85C20002283F83D2027E0052B67
:1019340007D101EB8103DB000344052283F85C201B
:101944001DE0062B01D0082B19D1B3003344DB0072
:101954002B449A6D511C9965032A09D9B300334469
:10196400DB002B4400229A65042283F85C2006E005
:1019740006EB8603DB002B44022283F85C2002235F
:10198400A36006EB8603DB002B442846314693F81C
:101994005C20FFF75DF9F8BDF8B5044605682846F4
:1019A40000F0AAF9012840F09480206800F0A0F922
:1019B400002800F08E80206800F09AF910F4001FCF
:1019C40003D023684FF400125A61206800F090F9A4
:1019D40010F4801F03D023684FF480125A612068EA
:1019E40000F086F910F0806F03D023684FF0806216
:1019F4005A61206800F07CF910F0020F02D02368CD
:101A040002225A61206800F073F910F0005F10D0D0
:101A1400D5F8403423F02E03C5F840342046FFF7B0
:101A240011F92068012100F06BF923684FF000528E
:101A34005A61206800F05CF910F0807F02D02046E3
:101A4400FFF7C2FC206800F053F910F0080F05D02E
:101A54002046FFF7EBF8236808225A61206800F05B
:101A640047F910F0007F21D0206800F0B5FA07464E
:101A7400002614E00123B3403B420FD005EB46138C
:101A8400D3F8003513F4004F04D02046F1B2FFF729
:101A9400FDFC03E02046F1B2FFF738FE0136A368EF
:101AA400B342E7D823684FF000725A61206800F00F
:101AB4001FF910F0100F0CD02268936923F0100363
:101AC40093612046FFF7D4FA2268936943F0100328
:101AD4009361F8BD38B590F89032012B0ED00446CE
:101AE400012580F89052006800F094F82068294697
:101AF40000F040F9002084F8900238BD022038BD7F
:101B040090F89032012B0BD010B50446012380F8D5
:101B14009032006800F0CCFC002084F8900210BDE4
:101B24000220704708B5006800F00AF908BD00BF3C
:101B340001EB8101C900084490F85C00704700BFC4
:101B440001EB8101C9000844C06C704708B5006806
:101B540000F0CAF908BD00BF08B5006800F0BAF982
:101B640008BD00BF0C4B01E0013B10D00269002A04
:101B7400FADA036943F001030361074B01E0013B17
:101B840007D0026912F0010FF9D100207047032039
:101B940070470320704700BF400D030084B010B5A8
:101BA400044603A880E80E00089B012B18D1A36B00
:101BB40023F48033A363E36823F4840323F0400312
:101BC400E360E36823F44013E3600F9B012B03D12C
:101BD400E36843F48013E3602046FFF7C3FF09E0A2
:101BE400E36843F04003E3602046FFF7BBFF4FF494
:101BF4008033A363069B012B07D1A36843F006033C
:101C0400A360A36843F02003A3600020BDE8104054
:101C140004B07047836843F0010383600020704779
:101C2400836823F0010383600020704708B5C3680C
:101C340023F0C043C360012904D1C36843F00053B7
:101C4400C36004E019B9C36843F08043C360322021
:101C540001F086FE002008BD890141F020010161E8
:101C6400054B01E0013B05D0026912F0200FF9D1C8
:101C74000020704703207047400D030010230361C8
:101C8400054B01E0013B05D0026912F0100FF9D1B8
:101C94000020704703207047400D030030B49DF8C6
:101CA400084064B903339B0809D000F5805000EB69
:101CB400023251F8045B156001349C42F9D10020D2
:101CC40030BC7047033292080FD030B40C46002366
:101CD40000F580552D6844F8045B01339342F7D135
:101CE40001EB8201084630BC70470846704700BFCC
:101CF4004369806918407047406900F001007047EB
:101D040010B400F58064D0F8003423F00303C0F865
:101D14000034D0F8003401F003021343C0F8003457
:101D2400012903D14BF68033636004E0022902D118
:101D340041F27073636000205DF8044B704700BF8C
:101D440010B582B00446D0F840340193019B23F0CF
:101D54002E030193019B43F48073C0F840340A209E
:101D640001F0FEFD019B23F48073C4F8403400208D
:101D740002B010BD82B0D0F840340193019B23F02F
:101D84002E030193019B13F4805F08D1012906D12E
:101D9400019B43F48053C0F84034019B09E0019B4C
:101DA40013F4805F05D021B9019B23F48053C0F85C
:101DB4004034002002B0704784B010B5044603A834
:101DC40080E80E000023C4F8003EA36B23F48023B4
:101DD400A363A36B23F40023A363A36B43F4001353
:101DE400A363059B032B12D1B4F1A04F0FD0D4F8F9
:101DF400003443F00403C4F8003420461021FFF7F4
:101E04002BFF2046FFF73AFF049B7BB945E0D4F84B
:101E1400003423F00403C4F8003420461021FFF7F3
:101E24001BFF2046FFF72AFF049B63B1049804F5C7
:101E3400A06300224FF0FF3199600021D960013284
:101E440020339042F6D820460121FFF793FFC820A3
:101E540001F086FD0023A3614FF0FF336361B4F109
:101E6400A04F0AD14FF0A04380225A6202F5C0026B
:101E74009A62154AC3F8002108E04FF400736362C4
:101E840003F18073A362114BC4F80031069B8BB934
:101E9400A36943F01003A3610CE020460121FFF77E
:101EA40069FFC82001F05CFD0023A3614FF0FF33FC
:101EB4006361E2E7A269064B1343A3610020BDE816
:101EC400104004B0704700BFE00040000003E00091
:101ED400080020A382B0D0F8403401930198C0F3E5
:101EE400414002B0704700BF00F58060806880B256
:101EF400704700BFF0B58C469DF8184000F5A06609
:101F04004D0177194FF0FF31B960032C2BD8DFE86E
:101F140004F00220021540F29D41F96012F0800F96
:101F240004D0F96841F48071F9601CE0B0F1A04F6D
:101F340019D0F96841F06001F96014E040F29D6144
:101F4400F96012F0800F0ED0F96841F48071F960E5
:101F540009E040F22521F96012F0800F03D0F968FE
:101F640041F4C071F960D0F81874012101FA0CF140
:101F74003943C0F81814816941F0007181619B05EF
:101F840003F0FE50D30203F4F04112F0800F02D1AB
:101F94004FF0000E01E04FF4004E9DF81430022B78
:101FA40001D0002701E04FF40037BDF81C20C2F334
:101FB4000A0240EA02030B43A20402F44022134340
:101FC40043EA0E033B437351032C03D1735943F08B
:101FD400005373510020F0BD80B483B000AF78602B
:101FE4007B6803F580635B699BB218460C37BD467A
:101FF4005DF8047B704700BF80B485B000AF7860A3
:102004000B46FB700023FB60FB785A017B6813448A
:1020140003F5A0631B6803F440239B0C002B0BD037
:10202400FB785A017B68134403F5A0631B6803F42F
:1020340040239B0C022B5ED1FB785A017B6813442E
:1020440003F5A0631946FB785A017B68134403F532
:10205400A0631B6843F080430B607B68DB6A03F476
:102064007F03002B34D1FB785A017B68134403F5BA
:10207400A0631946FB785A017B68134403F5A063F7
:102084001B6823F000430B60FB785A017B68134400
:1020940003F5A0631946FB785A017B68134403F5E2
:1020A400A0631B6843F000430B60FB680133FB60D3
:1020B400FB68B3F57A7F01D900BF1BE0FB785A01B6
:1020C4007B68134403F5A0631B68002BEDDB11E070
:1020D400FB785A017B68134403F5A0631946FB7827
:1020E4005A017B68134403F5A0631B6843F0004363
:1020F4000B605EE05DE0FB785A017B68134403F5F6
:10210400A0631946FB785A017B68134403F5A06366
:102114001B6843F080430B607B6803F580631B6995
:102124009BB2002B34D1FB785A017B68134403F52E
:10213400A0631946FB785A017B68134403F5A06336
:102144001B6823F000430B60FB785A017B6813443F
:1021540003F5A0631946FB785A017B68134403F521
:10216400A0631B6843F000430B60FB680133FB6012
:10217400FB68B3F57A7F01D900BF1AE0FB785A01F6
:102184007B68134403F5A0631B68002BEDDB10E0B0
:10219400FB785A017B68134403F5A0631946FB7866
:1021A4005A017B68134403F5A0631B6843F00043A2
:1021B4000B60002318461437BD465DF8047B704756
:1021C40080B485B000AF78600B46FB700123FB73CD
:1021D4000023BB60FB785A017B68134403F5A063BA
:1021E4001A46FB7BDB041946124B0B4043F00043B9
:1021F4001361FB785A017B68134403F5A0631B68E1
:10220400BB60BB6823F08043BB60BB6843F0004302
:10221400BB60FB785A017B68134403F5A0631A463C
:10222400BB681360002318461437BD465DF8047B71
:10223400704700BF0000F81F90B58BB002AFF86084
:10224400B9601346FB7100237B7700237B83002353
:10225400FB834FF480733B8300237B61FB68B3F102
:10226400A04F2BD0BB681B79002B27D1FB79002B07
:102274000BD1BB685B79012B07D1BB685B78F8682D
:102284001946FFF79DFF00230BE1FB79012B15D1C4
:10229400BB685B785A01FB68134403F5A0631946D5
:1022A400BB685B785A01FB68134403F5A063DB68E1
:1022B40023F06003CB60BB6800225A71BB681B69C2
:1022C400002B19D0BB681B69BA6812891344013BFF
:1022D400BA681289B3FBF2F3FB83FA8B3B8B9A4205
:1022E4000CD93B8BFB83FB8BBA68128902FB03F38B
:1022F4001A46BB681A6101E00123FB83BB68DB78E3
:10230400002B07D0FB8BBA68128902FB03F31A4631
:10231400BB681A61BB685B785A01FB68134403F518
:10232400A0631946BB681B69C3F31202FB8BDB0471
:1023340018465E4B03401A43BB689B7A5B0703F065
:10234400C04313430B61FB79002B0AD0BB685B7855
:102354005A01FB68134403F5A0631A46BB68DB68A3
:102364005361FB6803F580639B6803F00103002B52
:102374000CBF01230023DBB27B77BB685B785A0177
:10238400FB68134403F5A0631946BB685B785A01E4
:10239400FB68134403F5A0631B6823F000530B6030
:1023A400BB685B785A01FB68134403F5A0631946C4
:1023B400BB685B785A01FB68134403F5A0631B6890
:1023C4007A7F520713430B60BB685B785A01FB6842
:1023D400134403F5A0631B687B617B6923F080438E
:1023E4007B617B6943F000437B61BB685B785A0186
:1023F400FB68134403F5A0631A467B691360FB79F9
:10240400002B4DD1BB68DB78002B49D1BB681B691D
:10241400002B45D0BB68DB79032B33D801A252F8DB
:1024240023F000BF392400085F2400083924000881
:102434005F240008BB681B6903339B087B837A8B8A
:10244400FB68DB6A9BB29A4206D9FB689B6943F03E
:102454002002FB689A6116E015E0BB681B69033330
:102464009B087B837A8BFB6803F580631B699BB2B3
:102474009A4206D9FB689B6943F08062FB689A61C3
:1024840001E000E000BFBB68D968BB685A78BB684C
:102494001B699CB200230093F8682346FFF7FEFBF8
:1024A400002318462437BD4690BD00BF0000F81F26
:1024B40080B586B000AF786000233B617868FFF791
:1024C400AFFB78681021FFF7C7FB7868FFF7D6FBEE
:1024D4000023FB751FE0FB7D5A017B68134403F561
:1024E400A0631B68FB60FB6843F08043FB60FB68F0
:1024F40023F00043FB60FB6823F40043FB60FB7D97
:102504005A017B68134403F5A0631A46FB68136001
:10251400FB7D0133FB75FB7D0F2BDCD90023FB75A1
:1025240030E0FB7D5A017B68134403F5A0631B680C
:10253400FB60FB6843F08043FB60FB6843F00043AF
:10254400FB60FB6823F40043FB60FB7D5A017B685E
:10255400134403F5A0631A46FB6813603B69013317
:102564003B613B69B3F57A7F00D908E0FB7D5A01F2
:102574007B68134403F5A0631B68002BEEDBFB7D33
:102584000133FB75FB7D0F2BCBD97B6803F580638F
:102594001A464FF0FF3353617B684FF0FF325A61A4
:1025A4007868FFF737FB002318461837BD4680BD0F
:1025B400002800F0838038B5044690F83D3013F0CD
:1025C400FF0F04D1002380F83C30FEF7A1FC242344
:1025D40084F83D302268136823F00103136000F08F
:1025E4000DFF374BA3FB00239B0C2268536021682B
:1025F4006568344A954201D8013308E04FF4967275
:1026040002FB03F3304AA2FB03239B0901330B6251
:10261400216863682B4A934208D85B00B0FBF3F04F
:10262400C0F30B03032B2BD8042029E0A5684DB974
:1026340003EB4302B0FBF2F2C2F30B02B2FA82F2F2
:1026440052090AE003EB830202EB8202B0FBF2F2CE
:10265400C2F30B02B2FA82F2520982B935B903EB22
:102664004303B0FBF3F040F4004009E003EB8303C1
:1026740003EB8303B0FBF3F040F4404000E001209F
:10268400C8612268E169236A0B43136022682169E7
:10269400E3680B43936022686169A3690B43D360C9
:1026A4002268136843F00103136000202064202390
:1026B40084F83D30206384F83E0038BD0120704723
:1026C40083DE1B43A0860100D34D6210704700BF18
:1026D40008B50268436A991C41621B88D360438D24
:1026E400013B9BB24385438D9BB25BB9026853683F
:1026F40023F0A0031B041B0C5360012380F841301A
:10270400FFF7E4FF08BD00BF704700BF08B5C36A08
:102714009A1CC2620268D2681A80438E013B9BB243
:102724004386438E9BB25BB90268536823F060030F
:102734001B041B0C5360012380F84130FFF7E4FFB6
:1027440008BD00BF704700BF002800F0C38070B50B
:102754000446022580F841505F4B4363FEF702FCB8
:102764002268D36923F47B6323F00F03D3612368C6
:102774001D622368DD696369022B3AD0E3680BB1FB
:10278400202600E01026A368202B00D87600012024
:1027940000F0FCFE2369B3F5007F17D1E36853B161
:1027A400B600B0FBF6F000EB800040006369B0FBBC
:1027B400F3F0053013E0F600B0FBF6F000EB800018
:1027C40040006369B0FBF3F0053008E0B0FBF6F0BD
:1027D40000EB800040006369B0FBF3F005303F4B31
:1027E400A3FB0023DB0803F00102C3F34F0312022F
:1027F40001E000220223991EFD2908D9636C43F0ED
:10280400100363642046FFF79DFF012070BD21681B
:102814002069024313430B62228BA3891343228949
:102824001343A288134343F400631D432368DD610B
:10283400236A012B48D12A4B63632368294A9342B4
:1028440001D1294901E04FF04021264A934201D1A8
:10285400254B01E04FF04023DB6923F47B6323F035
:102864000F03CB6122681F4B9A4201D11E4A01E03B
:102874004FF040220223136225681A4B9D4202D175
:10288400A3F5806301E04FF04023D9696368B3F591
:10289400007F03D02BB94FF4807203E04FF48072B1
:1028A40000E00022208BA3891843238903431343A8
:1028B40043F400630B430B4A954202D1A2F58062B4
:1028C40001E04FF04022D36100206064012384F8CA
:1028D400413070BD01207047F1280008CDCCCCCC2C
:1028E4001D2B0008003800400034004010B584B0AF
:1028F400044602689368039390F84130DBB2042BDA
:102904002AD1039B13F0010F05D0536813F0400F35
:1029140001D0FFF7FBFE039B13F0400F1CD023688C
:102924005A6812F0200F17D05A6822F0600212047D
:10293400120C5A60002301932368DA6801929B68A1
:102944000193019B012384F84130636C43F002033B
:1029540063642046FFF7F6FE94F84130DBB2032BA4
:102964002AD1039B13F0020F07D023685B6813F08E
:10297400800F02D02046FFF7ABFE039B13F0080F35
:102984001AD023685A6812F0200F15D05A6822F022
:10299400A0021204120C5A600023029323689B685D
:1029A4000293029B012384F84130636C43F00403D7
:1029B40063642046FFF7C6FE04B010BD704700BF35
:1029C40008B5F1B90268436A991C41621B88D36057
:1029D400438D013B9BB24385438D9BB2002B3FD17A
:1029E4000268536823F0A0031B041B0C5360438E3E
:1029F4009BB2002B34D1012380F84130FFF7DEFF76
:102A040008BD0268174B9A4201D1174A01E04FF002
:102A14004022436A991C41621B88D360438D013B69
:102A24009BB24385438D9BB2D3B903680D4A93424D
:102A340001D10D4901E04FF040210A4A934201D1EE
:102A4400094B01E04FF040235B6823F0A0034B6087
:102A5400438E9BB223B9012380F84130FFF7AEFFC8
:102A640008BD00BF003800400034004008B5F1B98B
:102A7400C36A9A1CC2620268D2681A80438E013B00
:102A84009BB24386438E9BB2002B40D102685368AD
:102A940023F060031B041B0C5360438D9BB2002B7B
:102AA40035D1012380F84130FFF788FF08BDC36AA0
:102AB4009A1CC2620168164A914202D1A2F5806250
:102AC40001E04FF04022D2681A80438E013B9BB252
:102AD4004386438E9BB2D3B903680D4A934201D116
:102AE4000C4901E04FF04021094A934201D1094BBE
:102AF40001E04FF040235B6823F060034B60438D9B
:102B04009BB223B9012380F84130FFF757FF08BD7A
:102B1400003800400034004010B584B00446036817
:102B24009A680392944A934202D1A2F5806201E02A
:102B34004FF0402292680292DA6902F44072B2F5D0
:102B4400007F04D0DA6912F4407F40F09380039A46
:102B540012F0020F07D05B6813F0800F03D02046F9
:102B64000021FFF72DFF029B13F0010F10D0226804
:102B7400814B9A4202D1A3F5806301E04FF04023D8
:102B84005B6813F0400F03D020460121FFF76EFF6E
:102B9400029B13F0400F38D02368774A934202D146
:102BA400A2F5806201E04FF04022526812F0200F3B
:102BB4002BD0714A934202D1A2F5806201E04FF01A
:102BC40040226D498B4201D16C4B01E04FF0402310
:102BD4005B6823F0600353602268536823F0A0030A
:102BE4001B041B0C5360002300932368DA680092D3
:102BF4009B680093009B012384F84130636C43F08D
:102C0400020363642046FFF79DFD039B13F0080F46
:102C140000F0B08023685A6812F0200F00F0AA80F8
:102C24005A6822F0A0021204120C5A602368524A15
:102C3400934201D1514901E04FF040214E4A934261
:102C440001D14E4B01E04FF040235B6823F0600359
:102C54004B600023019323689B680193019B01232C
:102C640084F84130636C43F0040363642046FFF747
:102C740069FD7FE0029A12F0020F0ED03E4A9342A1
:102C840001D13E4B01E04FF040235B6813F0800F0D
:102C940003D020460121FFF793FE039B13F0010F9D
:102CA40008D023685B6813F0400F03D0204600214E
:102CB400FFF7DCFE039B13F0400F27D023685A680C
:102CC40012F0200F22D05A6822F060021204120C73
:102CD4005A602368284A934201D1284901E04FF001
:102CE4004021254A934201D1244B01E04FF0402377
:102CF4005B6823F0A0034B60012384F84130636CCC
:102D040043F0020363642046FFF71CFD029B13F0AB
:102D1400080F2FD02368184A934202D1A2F580628B
:102D240001E04FF04022526812F0200F22D0124AE4
:102D3400934201D1114901E04FF040210E4A9342E0
:102D440001D10E4B01E04FF040235B6823F0A00358
:102D54004B602268536823F060031B041B0C536010
:102D6400012384F84130636C43F004036364204618
:102D7400FFF7E8FC04B010BD003800400034004008
:102D840000283CD010B504460023836290F85130EB
:102D940013F0FF0F04D1002380F85030FEF740F900
:102DA400022384F851302268136823F0400313602F
:102DB40021686268A3681A43E3681A4323691A43C3
:102DC40063691A43A36903F400731343E269134369
:102DD400226A1343A26A1A430A602168638B03F0D0
:102DE4000402636A13434B602268D36923F40063CB
:102DF400D36100206065012384F8513010BD0120A7
:102E0400704700BF002800F0B58170B582B0044659
:102E1400036813F0010F5AD0A04B9B6803F00C0316
:102E2400042B0AD09D4B9B6803F00C03082B0DD197
:102E34009A4B5B6813F4800F08D0984B1B6813F40B
:102E4400003F44D06368002B41D195E16368B3F53A
:102E5400803F05D1914A136843F48033136015E031
:102E6400B3F5A02F09D18D4B1A6842F480221A6061
:102E74001A6842F480321A6008E0884B1A6822F417
:102E840080321A601A6822F480221A6063687BB167
:102E940000F060FD054605E000F05CFD401B642881
:102EA40000F26C817D4B1B6813F4003FF4D00EE0FC
:102EB40000F050FD054605E000F04CFD401B642881
:102EC40000F25E81754B1B6813F4003FF4D1236854
:102ED40013F0020F50D0714B9B6813F00C0F0AD003
:102EE4006E4B9B6803F00C03082B16D16B4B5B688D
:102EF40013F4800F11D1694B1B6813F0020F03D038
:102F0400E368012B40F03E81644A136823F0F80320
:102F1400216943EAC10313602EE0E368D3B10122BF
:102F24005F4B1A6000F016FD054605E000F012FD47
:102F3400401B022800F22881584B1B6813F0020F33
:102F4400F4D0564A136823F0F803216943EAC10315
:102F5400136011E00022524B1A6000F0FBFC05469E
:102F640005E000F0F7FC401B022800F20F814B4BF8
:102F74001B6813F0020FF4D1236813F0080F26D056
:102F8400636993B10122474B1A6000F0E3FC0546E4
:102F940005E000F0DFFC401B022800F2F9803F4B03
:102FA4005B6F13F0020FF4D011E000223D4B1A6066
:102FB40000F0D0FC054605E000F0CCFC401B0228E4
:102FC40000F2E880354B5B6F13F0020FF4D12368F5
:102FD40013F0040F7CD0314B1B6C13F0805F0DD1C8
:102FE400002301932D4B1A6C42F080521A641B6C1F
:102FF40003F080530193019B012500E000252A4B37
:103004001B6813F4807F13D1274A136843F4807339
:10301400136000F09FFC064605E000F09BFC801B5B
:10302400022800F2B980204B1B6813F4807FF4D08F
:10303400A368012B05D1194A136F43F001031367E9
:1030440014E0052B09D1154B1A6F42F004021A67DC
:103054001A6F42F001021A6708E0104B1A6F22F04F
:1030640001021A671A6F22F004021A67A3688BB16F
:1030740000F070FC064607E000F06CFC801B41F297
:103084008833984200F28A80044B1B6F13F0020FBE
:10309400F2D017E000F05EFC06460EE00038024075
:1030A40000004742800E47420070004000F052FC8E
:1030B400801B41F28833984272D8404B1B6F13F047
:1030C400020FF3D125B13D4A136C23F080531364EE
:1030D400A369002B66D0394A926802F00C02082AD0
:1030E40062D0022B33D10022354B1A6000F032FC3F
:1030F400054604E000F02EFC401B022856D82F4B56
:103104001B6813F0007FF5D1E269236A1343626AF6
:1031140043EA8213A26A5208013A43EA0243E26A8A
:1031240043EA0263254A53600122254B1A6000F0EA
:1031340011FC044604E000F00DFC001B022837D803
:103144001E4B1B6813F0007FF5D0002033E00022F3
:103154001B4B1A6000F0FEFB044604E000F0FAFB8F
:10316400001B022826D8154B1B6813F0007FF5D1ED
:10317400002020E00120704701201CE003201AE019
:10318400032018E0012016E0032014E0032012E0DD
:10319400032010E003200EE003200CE003200AE0EB
:1031A400032008E0002006E0012004E0032002E000
:1031B400032000E0032002B070BD00BF00380240CD
:1031C4006000474238B52F4B9B6803F00C03042B77
:1031D40055D0082B01D02C4838BD2A4B5A6802F030
:1031E4003F025B6813F4800F20D0264B5B68C3F367
:1031F4008813DC000025690141EAD4616001041BE5
:1032040061EB0505A90141EA9461A001001B61EB92
:103214000501C01841F100014B0243EAD0534402B6
:10322400204619460023FDF705F81FE0154B5B689F
:10323400C3F38813DC000025690141EAD46160010D
:10324400041B61EB0505A90141EA9461A001001B7F
:1032540061EB0501C01841F100018B0243EA905370
:103264008402204619460023FCF7E4FF054B5B6803
:10327400C3F3014301335B00B0FBF3F038BD0348F3
:1032840038BD00BF003802400024F40000127A0068
:10329400002800F0978070B50D460446504B1B681B
:1032A40003F00F038B4208D2CBB24D4A137013685C
:1032B40003F00F038B4240F08780236813F0020F62
:1032C40017D013F0040F04D0464A936843F4E05334
:1032D4009360236813F0080F04D0424A936843F4C0
:1032E400604393603F498B6823F0F002A368134363
:1032F4008B60236813F0010F2FD06268012A05D177
:10330400384B1B6813F4003F0ED15FE0931E012B72
:1033140005D8344B1B6813F0007F05D158E0314BBE
:103324001B6813F0020F55D02E498B6823F003035A
:1033340013438B6000F00EFB064606E000F00AFB28
:10334400801B41F28833984246D8264B9B6803F091
:103354000C036268B3EB820FF0D1214B1B6803F0BE
:103364000F03AB4207D9EAB21D4B1A701B6803F076
:103374000F03AB4232D1236813F0040F06D019496E
:103384008B6823F4E052E36813438B60236813F0E3
:10339400080F07D0134A936823F46043216943EA72
:1033A400C1039360FFF70EFF0E4B9B68C3F3031337
:1033B4000D4AD35CD8400D4B1860002000F07EFA13
:1033C400002070BD01207047012070BD012070BD38
:1033D400012070BD012070BD032070BD012070BDAF
:1033E400003C0240003802401C4B0008080000204A
:1033F400014B1868704700BF0800002008B5FFF7AC
:10340400F7FF044B9B68C3F38223034AD35CD84081
:1034140008BD00BF003802402C4B000830B583B013
:103424000446036813F0050F2AD00022524B1A6099
:1034340000F090FA054605E000F08CFA401B0228E3
:1034440000F28F804D4B1B6813F0006FF4D162685B
:10345400A3681B0743EA8213484AC2F88430012256
:10346400454B1A6000F076FA054604E000F072FA63
:10347400401B022877D8414B1B6813F0006FF5D02E
:10348400236813F0020F63D0002301933B4B1A6CA3
:1034940042F080521A641B6C03F080530193019B29
:1034A400374A136843F48073136000F053FA0546F7
:1034B40004E000F04FFA401B022856D8304B1B683A
:1034C40013F4807FF5D02D4B1B6F13F4407322D07F
:1034D400E26802F440729A421DD0284B1A6F22F41B
:1034E4004072284901200860002008601A671B6F99
:1034F40013F0010F0FD000F02DFA054606E000F09E
:1035040029FA401B41F28833984230D81B4B1B6F79
:1035140013F0020FF3D0E36803F44072B2F5407F76
:103524000AD116498A6822F4F81223F0704323F46E
:10353400407313438B6004E0104A936823F4F81338
:1035440093600E4A116FE368C3F30B030B431367D5
:10355400236813F0080F0CD0227C0B4B1A60002058
:1035640008E0032006E0032004E0032002E0032037
:1035740000E0002003B030BD68004742003802403C
:1035840000700040400E4742E011474201282AD112
:10359400174B9B6813F4000303D0012B25D1154866
:1035A4007047134B5B6813F4800F07D0104B5A68B5
:1035B40002F03F02104BB3FBF2F206E00C4B5A68E8
:1035C40002F03F020D4BB3FBF2F20949D1F884003B
:1035D400C0F3881002FB00F3D1F88400C0F302703A
:1035E400B3FBF0F07047002070470020704700BF25
:1035F400003802400080BB0000127A000024F4006E
:103604002DE9F04182B00023C4E09C4601229A4097
:103614000C681440944240F0BC804D68022D01D0E7
:10362400122D14D14FEAD30E0EF1080E50F82E705D
:1036340003F007084FEA88080F2505FA08F527EA7A
:1036440005060D6905FA08F5354340F82E5006685D
:103654004FEA430E032505FA0EF5ED4305EA060786
:103664004E6806F0030606FA0EF63E4306604E6800
:10367400771E012F03D9112E01D0122E12D1866884
:1036840005EA0607CE6806FA0EF63E4386604768EA
:1036940027EA02074E68C6F3001202FA0CF646EA5D
:1036A40007024260C2682A408D6805FA0EF5154388
:1036B400C5604A6812F0805F6BD000220192384ADC
:1036C400556C45F480455564526C02F48042019275
:1036D400019A9F08BD1C334A52F8256003F0030E7B
:1036E4004FEA8E0E0F2202FA0EF226EA02052E4A45
:1036F400904219D002F58062904213D002F58062A4
:1037040090420DD002F58062904207D002F58062AB
:10371400904201D1042208E0072206E0032204E0DB
:10372400022202E0012200E0002202FA0EF22A4301
:1037340002371C4D45F827201C4A1568E24302EA6B
:1037440005064F6817F4803F01D044EA0506174D7B
:103754002E606D6802EA05064F6817F4003F01D039
:1037640044EA0506114D6E60AD6802EA05064F682D
:1037740017F4801F01D044EA05060C4DAE60ED68D5
:103784002A404E6816F4001F01D044EA0502074C93
:10379400E26001330F2B7FF638AF02B0BDE8F08151
:1037A400003802400038014000000240003C014063
:1037B4000AB18161704709048161704743695940C6
:1037C4004161704700F00700064AD36823F4E063C0
:1037D4001B041B0C43EA002040F0BF6040F400309F
:1037E400D060704700ED00E030B4164BDC68C4F3E1
:1037F4000224C4F10705042D28BF0425231D062B2C
:1038040001D9033C00E00024012303FA05F5013D3E
:103814002940A140A340013B1A400A43002806DA8C
:1038240000F00F001201D2B2074B1A5407E0120144
:10383400D2B200F1604000F5614080F8002330BC52
:10384400704700BF00ED00E014ED00E0410900F016
:103854001F0001238340024A42F82130704700BF11
:1038640000E100E00138B0F1807F0AD2064B5860D5
:10387400F021064A82F823100020986007221A607B
:1038840070470120704700BF10E000E000ED00E049
:10389400042805D1054A136843F0040313607047F4
:1038A400024A136823F004031360704710E000E039
:1038B400704700BF08B5FFF7FBFF08BD10B504460D
:1038C4000E4B18784FF47A73B3FBF0F30C4A10687C
:1038D400B0FBF3F0FFF7C6FF58B90F2C0BD84FF02D
:1038E400FF3021460022FFF77FFF064B1C600020BB
:1038F40010BD012010BD012010BD00BF0400002038
:10390400080000200000002008B50B4B1A6842F4A0
:1039140000721A601A6842F480621A601A6842F4EB
:1039240080721A600320FFF74DFF0020FFF7C6FFE7
:10393400FDF7A4FA002008BD003C0240034A1368C6
:10394400034909780B441360704700BF58080020EE
:1039540004000020014B1868704700BF580800207D
:1039640038B50446FFF7F6FF0546B4F1FF3F02D031
:10397400044B1B781C44FFF7EDFF401B8442FAD82C
:1039840038BD00BF040000200F49D1F8883043F44B
:103994007003C1F888300D4B1A6842F001021A60B6
:1039A400002098601A6822F0847222F480321A602F
:1039B400074A5A601A6822F480221A60D8604FF0CD
:1039C40000638B60704700BF00ED00E000380240E8
:1039D40010300024002306E003F1DE0200EB820233
:1039E4000021516001330E2BF6D9002304E0C218E4
:1039F400002182F81C110133B3F5007FF7D30023B3
:103A04000370437001228270C0F8B83302764021FB
:103A14008171437680F81C3380F81D231846704763
:103A240008B50378DBB20A2B04D1D0F874330BB198
:103A34009B69984708BD00BF70B584B004464378BD
:103A4400072B00F29E80DFE803F0042B345D666FE1
:103A54008091082100F01CFC002840F0948094F828
:103A64002723A27101256570217994F81C3394F8F9
:103A74001D0300900026019602922046802200F049
:103A8400EFFCA279617994F81C3394F81D0300903B
:103A9400019602922046324600F0E2FC284683E07A
:103AA400122100F0F5FB00286FD10223637001207E
:103AB4007AE0012100F034FC002868D10220FDF7EF
:103AC400AFF9012584F81C5303236370A37921798A
:103AD40094F81D230092002601960293204680222A
:103AE4002B4600F0BDFCA279617994F81C3394F85C
:103AF4001D030090019602922046324600F0B0FC6D
:103B0400284651E0092100F0DBFB002841D10423C1
:103B14006370012048E0B4F8341300F0D1FBD0BB4B
:103B24000523637001203FE090F82E1349B104F59A
:103B34008E72FF2300F0DCFB78BB06236370012048
:103B440032E00623437001202EE090F82F1349B190
:103B540004F58E72FF2300F0CBFB00BB07236370D8
:103B6400012021E00723437001201DE090F8301369
:103B7400B9B104F58E72FF2300F0BAFB98B10120AD
:103B840012E0012010E001200EE001200CE00120F1
:103B94000AE0012008E0012006E0012004E0012001
:103BA40002E0002000E0002004B070BD98B138B5F8
:103BB4000D46044680F8BC230023C0F87433C0F8D3
:103BC4007833FFF707FF0DB1C4F8C4532046FDF75F
:103BD40041F8002038BD0220704700BF0A4651B1A9
:103BE400D0F878334BB9591CC0F87813DC3340F85B
:103BF400232000207047022070470220704700BF36
:103C040090F836338B4203D980F81F130020704795
:103C14000220704770B400241FE066B21A2505FB29
:103C2400060595F841538D4201D0FF2913D11A2579
:103C340005FB060595F84253954201D0FF2A0AD1A7
:103C44001A2505FB060696F843539D4201D0FF2B27
:103C540001D1E0B205E00134E4B265B2012DDCDD4E
:103C6400FF2070BC704700BF10B50446FDF720F874
:103C740020460121FDF7AEF8002010BD30B587B015
:103C8400044602238DF817300378DBB20A2B00F2C6
:103C9400BD80DFE803F006BB15B0BB4598565F68EE
:103CA400AA0090F81E3313F0FF0F00F0AF80012339
:103CB4000370C820FDF7B4F82046FDF729F8A5E005
:103CC4006420FDF7ADF82046FDF712F884F81D03D3
:103CD400052323702046002100F0D8FB60712046A4
:103CE400802100F0D3FB01462071A27994F81C33A3
:103CF40094F81D030090002501950292204680222D
:103D040000F0AEFBA279617994F81C3394F81D039A
:103D140000900195029220462A4600F0A1FB75E02E
:103D2400FFF78AFE002871D1002384F81F3394F82A
:103D34003133012B02D10823237067E0072323705A
:103D440064E0D0F8C433002B60D0012198470823E5
:103D540023705BE094F8371300F0F2FA002855D191
:103D64000923237052E0D0F87833002B4ED000237F
:103D7400C0F8743310E003F1DC0254F82220117906
:103D840094F84123914205D103F1DC0254F8222036
:103D9400C4F874230133DBB2002BECD0D4F87433B1
:103DA40073B19B682046984738B906232370D4F82A
:103DB400C43320460321984728E00C23237025E0D0
:103DC4000C23237022E0D0F874335BB11B6998474D
:103DD4008DF817009DF8173013F0FF0F16D10A2342
:103DE400237013E00C23037010E0D0F874336BB12C
:103DF4005B6998470AE0FFF7EDFDD4F874332BB103
:103E0400DB68204698470023C4F87433002007B0C9
:103E140030BD00BFC0F8B813704700BF08B5D0F874
:103E2400B8330133C0F8B833FFF7FAFD08BD00BF5B
:103E340008B5037813F0FF0F08D1012380F81E336F
:103E4400D0F8C43343B10421984705E00378DBB2CA
:103E5400012B01D102230370002008BD10B50446D4
:103E6400FCF736FF2046217900F022FB20466179D9
:103E740000F01EFB002384F81E33D4F8C43313B1BE
:103E84002046052198472046FCF712FF03232370A0
:103E9400002010BD10B40B7803704B7843708B78FE
:103EA400CC7803EB042343800B7903714B79437182
:103EB4008B798371CB79C371082A16D90B7A4A7A24
:103EC40003EB022303818B7ACA7A03EB0223438137
:103ED4000B7B4A7B03EB022383818B7B8373CB7B3A
:103EE400C3730B7C03744B7C43745DF8044B7047C1
:103EF4000B7803704B7843708B788370CB78C370E6
:103F04000B7903714B7943718B798371CB79C371CD
:103F14000B7A0372704700BF0B7803704B784370C1
:103F24008B788370CB78C3700B794A7903EB0223C7
:103F340083808B79837170474378032B14D110B439
:103F44000378023B9A42A8BF1A4692B2002305E0C6
:103F5400C418A47801F8014B02339BB29342F7D3FF
:103F640000230B705DF8044B704700BF30B583B07D
:103F74000446037E013B0A2B00F2CE80DFE803F007
:103F8400060F313D4E5C768295A3B80004F1100112
:103F9400627900F0F7F9022323760120C9E0617900
:103FA400FCF712FF012815D1237C03F08003E28A79
:103FB4003AB113B103232376BBE005232376012012
:103FC400B7E01BB1092323760120B2E0072323764F
:103FD4000120AEE0042840F0A1800B2323760120C9
:103FE400A7E0D0F8B833C381A168A289237900F08F
:103FF400EFF90423237601209BE02179FCF7E4FE0A
:10400400012801D109232376052800F0898004289A
:1040140040F088800B23237601208AE0828943794B
:1040240001250095A16800F0BDF9D4F8B833E38107
:104034000623237628467CE06179FCF7C5FE012837
:1040440002D10723237674E0052803D10C232376B9
:1040540003206EE0022803D105232376012068E0C3
:10406400042861D10B232376022062E000210A4652
:10407400237900F0ADF9D4F8B833E381082323762B
:10408400012056E02179FCF79FFE012803D10D237E
:10409400237600204DE0042803D10B23237601204E
:1040A40047E0052842D0012043E0437901250095EB
:1040B40000210A4600F076F9D4F8B833E3810A23E4
:1040C4002376284635E06179FCF77EFE012803D18A
:1040D4000D23237600202CE0022803D10923237624
:1040E400012026E0042823D10B232376012020E09D
:1040F400437E0133DBB24376022B05D8FCF7E8FD9F
:1041040001202076A07014E0D0F8C433062198472B
:104114000023637602200CE001200AE0012008E07D
:10412400032006E0012004E0012002E0032000E077
:10413400012003B030BD00BF02780B8813440B800C
:1041440003781844704700BF2DE9F04383B0054657
:104154000C460B7803704B7843708B78C97803EB6B
:10416400012343802379037163794371A3798371B4
:10417400E379C371237A0372092A48D90923ADF874
:10418400063000263BE020460DF10601FFF7D4FF80
:1041940004464378F6B2042B31D14FFA86F91A203B
:1041A40000FB09500A302146FFF7A2FE4FF0000839
:1041B40016E020460DF10601FFF7BEFF04464378E2
:1041C400052B0DD11A2000FB09F000EBC700284491
:1041D40014302146FFF7A0FE08F101085FFA88F8C1
:1041E4004FFA88F71A2303FB09539B7B9F4204DA97
:1041F4006A88BDF806309A42DBD80136F6B273B24B
:10420400012B04DC6A88BDF806309A42BBD803B09F
:10421400BDE8F08310B504468378012B02D0022B4D
:1042240007D014E081608281012303760222827028
:104234000EE0FFF79BFE034620B90122A270002284
:10424400227605E0022803D10122A27000E00123B6
:10425400184610BD38B5BDF810508478012C11D122
:1042640061F07F04047406214174428202F47F44A5
:10427400B4F5407F03D140F20942828201E000227A
:104284008282C58219462A46FFF7C4FF38BD00BFA3
:10429400F0B583B0064600F58E750C4600910021FA
:1042A4004FF480722B46FFF7D5FF074628B906F571
:1042B400487029462246FFF7EDFD384603B0F0BDAD
:1042C400F0B583B006460C4600F11C0500910021B0
:1042D4004FF400722B46FFF7BDFF074628B906F2DC
:1042E400323029462246FFF72FFF384603B0F0BD8F
:1042F400F0B583B017461C4641F4407200F58E7544
:10430400009300212B46FFF7A5FF064620B9284657
:1043140039462246FFF710FE304603B0F0BD00BF19
:1043240008B58378012B06D1002303740522427457
:1043340041828382C38200210A46FFF76BFF08BDD6
:1043440008B58378012B06D1002303740922427433
:1043540041828382C38200210A46FFF75BFF08BDC6
:1043640008B58378012B07D1022303740123437416
:10437400002343828182C38200210A46FFF74AFF59
:1043840008BD00BF10B584B0002400940191082337
:1043940002930394114622462346FCF7F9FC204677
:1043A40004B010BD30B585B09DF8204090F81D5381
:1043B40005B1002401250095019102920394194648
:1043C40000221346FCF7E4FC002005B030BD00BF1A
:1043D40030B585B001250095019102920024039423
:1043E40019462A462346FCF7D3FC204605B030BDC7
:1043F40030B585B09DF8204090F81D5305B10024D8
:10440400012500950191029203941946002202238A
:10441400FCF7BEFC002005B030BD00BF30B585B050
:1044240001250095019102920024039419462A461D
:104434000223FCF7ADFC204605B030BD00230AE0A2
:1044440000EB8302D2F87C2312F4004F01D198B21E
:1044540070470133DBB20A2BF2D94FF6FF70704775
:1044640010B584B09DF8184000949DF81C40019448
:10447400BDF820400294FCF761FC002004B010BD9C
:1044840008B5FCF775FC002008BD00BF38B504462C
:104494000D46FFF7D3FF4FF6FF73984205D045F45E
:1044A400004504EB8004C4F87C53C0B238BD00BF9F
:1044B4000A2906D8DE3100EB81014B68C3F30E03F1
:1044C4004B600020704700BF0020704708B52122D0
:1044D4000274202242740022428282820722C28213
:1044E400FFF798FE08BD00BF08B5A122027421227F
:1044F40042740022428282820722C282FFF78AFE2D
:1045040008BD00BF38B50446D0F87433D9694031CA
:10451400FFF7EAFF054620B9D4F8C4332046022148
:104524009847284638BD00BF38B50546D0F87433DF
:10453400DC69217839B1FFF7A3FF28462178FFF71A
:10454400B7FF00232370217B41B12846FFF798FF72
:104554002846217BFFF7ACFF00232373617B41B125
:104564002846FFF78DFF2846617BFFF7A1FF002354
:104574006373D5F87433D86928B100F0F3F9D5F82A
:1045840074330022DA61002038BD00BF70B584B0F6
:10459400044602210A460123FFF73CFB0646FF2896
:1045A40000F09E8020463146FFF72AFBD4F874536E
:1045B400502000F0CFF9E861D4F87433DD691A2390
:1045C40003FB064393F8483313F0800F06D06B7057
:1045D4001A2303FB0646B6F84A336B8120466978F2
:1045E400FFF754FF014628706A7894F81C3394F856
:1045F4001D03009003200190688902902046FFF774
:104604002FFF204629780022FCF7F2FB20460A21DE
:1046140000221346FFF7FEFAFF2863D01A2303FB98
:10462400004393F8483313F0800F07D0EB731A2339
:1046340003FB0043B3F84A336B8306E0AB731A23DE
:1046440003FB0043B3F84A332B831A2303FB0043D1
:1046540093F8503313F0800F07D0EB731A2303FB46
:104664000040B0F852336B8306E0AB731A2303FBAC
:104674000040B0F852332B832046A97BFFF706FF96
:1046840068732046E97BFFF701FF2873697BAA7BE7
:1046940094F81C3394F81D03009002260196288B8D
:1046A40002902046FFF7DCFE297BEA7B94F81C335A
:1046B40094F81D0300900196688B02902046FFF742
:1046C400CFFE002685F84C602046697B3246FCF715
:1046D4008FFB2046297B3246FCF78AFB304602E0FA
:1046E400022000E0022004B070BD00BF704700BF8C
:1046F40070B582B00546D0F87433DC6994F84D3057
:10470400012B02D0022B17D039E0666A228B964225
:1047140007D9E169637B012000902846FFF768FE12
:1047240006E0E169637B01220092B2B2FFF760FE0A
:10473400022384F84D3022E0617BFCF745FB01281D
:1047440018D1626A238B9A4205D9D21A6262E2694D
:104754001344E36101E000236362636A1BB1012334
:1047640084F84D300BE0002384F84D302846FFF7E1
:10477400BDFF04E0022802D1012384F84D3002B0C9
:1047840070BD00BF704700BF38B50546D0F874331C
:10479400DC6994F84E30032B02D0042B09D038BDC9
:1047A400216A628B237BFFF739FE042384F84E30A1
:1047B40038BD217BFCF708FB012819D12846217B51
:1047C400FCF7B6FA80B2A36A83420BD0628B8242B2
:1047D40008D21B1AA362236A18442062032384F8B4
:1047E4004E3038BD002384F84E302846FFF7CAFF08
:1047F40038BD00BF704700BF38B50546D0F87433E4
:10480400DC6994F84C30042B04D8DFE803F0460547
:1048140015363D00012038BDA16CFFF757FE20B9C5
:10482400022384F84C30012038BD012837D00423FA
:1048340084F84C30012038BD04F14001FFF754FEE8
:10484400A0B9002384F84C30636C23F07F42A16C40
:104854004B6823F07F439A4223D1226C0B689A421F
:1048640021D12846FFF7C6FF012038BD01281CD0FE
:10487400042384F84C30012038BDFFF739FF284663
:10488400FFF782FF012038BD0021FFF769FD70B9F1
:10489400002384F84C30012038BD002038BD0120AD
:1048A40038BD012038BD012038BD012038BD0120AC
:1048B40038BD00BFDFF834D0002103E00C4B5B5857
:1048C400435004310B480C4B42189A42F6D30B4A1E
:1048D40002E0002342F8043B094B9A42F9D3FFF764
:1048E40053F800F011F8FCF711F9704700000120AB
:1048F4004C4B000800000020900000209000002095
:1049040060080020FEE7000070B50E4B0E4CE41A60
:10491400A41000251E46A54204D056F82530984719
:104924000135F8E700F0DEF8084C094BE41AA4104E
:1049340000251E46A54204D056F825309847013577
:10494400F8E770BD444B0008444B0008484B00088E
:10495400444B0008024B0146186800F04FB800BFF2
:104964008C000020024B0146186800F003B800BF19
:104974008C00002030B500293DD051F8042C0B1FC9
:104984001D49002AB8BF9B180A680C4612B95A6020
:104994000B6030BD93420DD219685818904201BF84
:1049A4005A5852181A6042685A60236030BD9942BE
:1049B40003D80A4651680029F9D1146815199D4293
:1049C4000AD11B682344D0188842136013D10868A5
:1049D400034413604B680DE002D90C23036030BD1F
:1049E4001C681819884204BF08684968596004BFE4
:1049F40000191860536030BDB400002070B5CC1CA1
:104A040024F0030408340C2C38BF0C24002C064674
:104A140003DA0C233360002070BD8C42F9D3204AA2
:104A2400136810461946A1B10A68121B0ED40B2A4A
:104A340003D90A608B188C501FE08B420DBF5A6853
:104A44004A685A60026018BF0B4616E00B46496874
:104A5400E9E7144D2B681BB9304600F025F82860AF
:104A64003046214600F020F8421C0346D1D0C51C34
:104A740025F0030585420AD11C6003F10B001A1DC1
:104A840020F00700821A0AD05142995070BD304676
:104A9400E91A00F009F80130BBD02B46ECE770BDF1
:104AA400B4000020B000002038B5064C00230546B1
:104AB4000846236000F008F8431C02D1236803B1C0
:104AC4002B6038BD5C080020044A05491368002B9C
:104AD40008BF0B461844106018467047B800002001
:104AE40060080020F8B500BFF8BC08BC9E467047BB
:0C4AF400F8B500BFF8BC08BC9E46704737
:104B00005372632F6D61696E2E6300005372632FC1
:104B1000757362685F636F6E662E6300000000004D
:104B2000000000000102030406070809000000005D
:0C4B300001020304434443004300000062
:084B3C0090B7FF7F01000000AB
:044B44000102000862
:044B4800D901000887
:104B4C0010000000010000000024F400344B0008A9
:104B5C0002000000914500082D4500080945000899
:104B6C00FD470008CD4400080000000000000000D4
:104B7C000000000000000000000000000000000029
:104B8C00000000000000000000000000384B00088E
:104B9C000000000000000000000000000000000009
:104BAC0000000000000000000000000000000000F9
:104BBC0000000000000000000000000000000000E9
:104BCC000000000000000000000000002C0000208D
:04000005080048B9EE
:00000001FF
